:100000000C94A4000C94BA200C94E7200C94CC001F
:100010000C94CC000C94CC000C94CC000C94CC0030
:100020000C94CC000C94CC000C94CC000C94CC0020
:100030000C94CC000C94CC000C94CC000C94CC0010
:100040000C9414210C94CC000C9433260C946F2641
:100050000C94CC000C94CC000C94CC000C94CC00F0
:100060000C94CC000C94CC00B60BC00BCA0BCD0B7F
:10007000000C060C2E0C4D0C4F0C630C660CBE0EC7
:100080006F0CBE0EBE0E960CB30CED0DF00D080EEF
:100090001F0EBE0E910E9D0EA90EBB0E7C3C3E5E49
:1000A0002B3D3F2F5B5D3B2C2A225C0000000007AC
:1000B0000002010000030406000000000000000030
:1000C00001020408102040800102040810200102EF
:1000D00004081020040404040404040402020202BC
:1000E00002020303030303030000000023002600B1
:1000F000290000000000250028002B00000000005F
:10010000240027002A00494E46494E4954594E4181
:100110004E000020410000C84200401C4620BCBEEA
:100120004CCA1B0E5AAEC59D74CDCCCC3D0AD7230C
:100130003C17B7D13877CC2B329595E6241FB14FB9
:100140000A00C2103D112A2711241FBECFEFD8E0AC
:10015000DEBFCDBF13E0A0E0B1E0ECE1F8E502C006
:1001600005900D92AA3DB107D9F717E0AAEDB3E0CB
:1001700001C01D92A835B107E1F711E0C8E4D1E054
:1001800004C02297FE010E94272AC234D107C9F772
:100190000E9428230C940C2C0C9400002F923F9268
:1001A0004F925F926F927F928F929F92AF92BF9287
:1001B000CF92DF92EF92FF920F931F93CF93DF9333
:1001C000CDB7DEB72A970FB6F894DEBF0FBECDBF0E
:1001D0001B01BC01882777FD8095982F0E947E28FF
:1001E0006B017C018090670490906804A090690482
:1001F000B0906A04A50194010E94E3278B018A87CD
:100200009F8320917E0430917F044091800450911F
:100210008104C501B4010E94322969837A838B83EA
:100220009C83209171043091720440917304509129
:100230007404C501B4010E943229B981AA817B806E
:100240006C802B2F3A2F472D562D0E947A272B0199
:100250003C01B101882777FD8095982F0E947E2868
:10026000A50194010E94E3271B018D839E839A853B
:100270008F81202F312F492F582FFC01602F712F94
:100280008F2F9E2F0E9432294B015C01242D352D8A
:10029000462D572D642D752D862D972D0E943229C0
:1002A0009B01AC01C501B4010E947B274B015C019D
:1002B0009D818E81222D332D492F582FE92FF82F24
:1002C000622D732DCF010E9432299B01AC01C50123
:1002D000B4010E947A274B015C019A858F81202FFF
:1002E000312F492F582FFC01602F712F8F2F9E2FF8
:1002F0000E947B27242D352D462D572D0E94322913
:100300009B01AC01C501B4010E94E3278B01482E7B
:10031000792EA7019601712F0E9432294B015C01B1
:1003200020E030E040E05FE3B981AA816B805C802F
:100330006B2F7A2F862D952D0E9432299B01AC01BF
:10034000C501B4010E947B270E944B2870934F0483
:1003500060934E04202F312F442D572D602F712F85
:10036000842D972D0E9432299B01AC0160E070E042
:1003700080E89FE30E947A270E949929A7019601AD
:100380000E9432290E944B2870934D0460934C04C4
:100390002A960FB6F894DEBF0FBECDBFDF91CF9186
:1003A0001F910F91FF90EF90DF90CF90BF90AF9093
:1003B0009F908F907F906F905F904F903F902F9085
:1003C000089560E083E10E9467221EBC0DB407FE21
:1003D000FDCF8EB561E083E10C94672262E071E0AD
:1003E0008FEA96E00E948C2348E062E189EF93E077
:1003F0000E946220811103C06AE071E002C069E1DD
:1004000071E08FEA96E00C948C23F8948091380484
:1004100090913904892B11F443E501C043E66EE164
:1004200071E08EED93E00E94581C811108C06BE2D0
:1004300071E08FEA96E00E948C23789408954AE058
:1004400050E06DE374E08AED93E00E94A7208EED0A
:1004500093E00E94881978940E94E10169E171E0BB
:100460008FEA96E00C948C23CF93DF93EC01F89401
:1004700043E661E471E08EED93E00E94581C811127
:1004800008C06BE271E08FEA96E00E948C237894BA
:100490001CC06BE471E08FEA96E00E946D234AE095
:1004A00050E0BE018AED93E00E94BC248EED93E003
:1004B0000E94881962E671E08FEA96E00E948C2320
:1004C0007894DF91CF910C94E101DF91CF91089561
:1004D000CF92DF92EF92FF92F89441E061E471E0F5
:1004E0008EED93E00E94581C811108C068E671E00F
:1004F0008FEA96E00E948C2378944AC06DE771E001
:100500008FEA96E00E948C23C12CD12C760105C085
:100510008FEFC81AD80AE80AF80A8EED93E00E9415
:100520009A1718161906A4F3C701B6018827992748
:100530000E947C2860933F047093400480934104A0
:1005400090934204B701882799270E947C286093E2
:10055000430470934404809345049093460467E8F1
:1005600071E08FEA96E00E946D232AE030E0B70147
:10057000A6018FEA96E00E9409248EED93E00E9486
:1005800088197894FF90EF90DF90CF900C94E10160
:10059000FF90EF90DF90CF900895682F81E10C9449
:1005A0006722CF93DF93EC0180E00E94CD02BE0171
:1005B000882777FD8095982F0E949A2181E0DF910E
:1005C000CF910C94CD0282E090E00E94D10262E3D0
:1005D00070E080E090E00E949A2182E090E00E942A
:1005E000D10268EE73E080E090E00C949A2182E002
:1005F00090E00E94D10264E670E080E090E00E940A
:100600009A2182E090E00E94D10268EE73E080E0DF
:1006100090E00C949A2181E00C94CD02CF93DF936B
:10062000EC01BC018AE00E94C7226FE871E08FEA0A
:1006300096E00E946D234AE050E0BE018FEA96E00A
:10064000DF91CF910C94BC24CF93DF93EC01BC01DC
:100650008BE00E94C72267E971E08FEA96E00E9472
:100660006D234AE050E0BE018FEA96E0DF91CF9122
:100670000C94BC24CF93DF93EC010E940E03CE01B7
:10068000DF91CF910C94240381E080934704809103
:100690008404909185040E943A036FE971E08FEA27
:1006A00096E00C948C23813011F40C944403109246
:1006B000470480918204909183040E943A036EEA79
:1006C00071E08FEA96E00C948C230F931F93CF93E5
:1006D000DF93D82F092FC62F172F682F88E00E948D
:1006E00067226C2F89E00E94672261EC71E08FEA3B
:1006F00096E00E946D234AE050E06D2F702F8FEA44
:1007000096E00E94BC246BEC71E08FEA96E00E94B8
:100710006D234AE050E06C2F712F8FEA96E0DF9155
:10072000CF911F910F910C94BC24CF93DF93EC01D8
:10073000909301018093000165ED71E08FEA96E0EE
:100740000E946D234AE050E0BE018FEA96E0DF91FF
:10075000CF910C94BC24CF93DF93EC0160EE71E059
:100760008FEA96E00E946D234AE050E0BE018FEAD6
:1007700096E0DF91CF910C94BC24809182049091FB
:1007800083040E943A0380918C0490918D040E940E
:10079000950380E797E10E94AB0360E070E080E0A2
:1007A00090E00C9465035C985B985B9A08955C9A62
:1007B0005B985B9A0895EF92FF920F931F93CF93EC
:1007C000DF93EC0180914704882319F080E00E94B8
:1007D000530300E010E0EE24FF24EC1AFD0A10C0E1
:1007E0001C161D061CF40E94D30302C00E94D703EE
:1007F00080910001909101010E94C0210F5F1F4F65
:10080000CE01D7FDC7010817190754F3DF91CF9127
:100810001F910F91FF90EF9008955A9A5998599A05
:1008200008955A985998599A0895EF92FF920F9304
:100830001F93CF93DF93EC0180914704882319F035
:1008400080E00E94530300E010E0EE24FF24EC1A45
:10085000FD0A10C01C161D061CF40E940D0402C0E7
:100860000E94110480910001909101010E94C02119
:100870000F5F1F4FCE01D7FDC7010817190754F3AB
:10088000DF91CF911F910F91FF90EF900895CF933B
:10089000DF93C0E0D0E009C08FEF9FEF0E94DB0341
:1008A0008FEF9FEF0E94150421968DE00E949E22FB
:1008B000892B91F36CEE71E08FEA96E00E948C2315
:1008C000CE01DF91CF910895CF93DF93C0E0D0E0C8
:1008D00009C081E090E00E94DB038FEF9FEF0E9450
:1008E0001504219685E00E949E22892B91F36FEFDB
:1008F00071E08FEA96E00E948C23CE01DF91CF91C8
:1009000008952F923F928F929F92AF92BF92CF9273
:10091000DF92EF92FF920F931F93CF93DF931B0110
:10092000BC01882777FD8095982F0E947E284B0177
:100930005C01C0906704D0906804E0906904F09076
:100940006A0460916F0470917004882777FD809528
:10095000982F0E947E28A70196010E9432298B01C0
:10096000D82FC92F762FCE01272F312F492F582F5F
:10097000C501B4010E94DF2787FD53C02091710497
:10098000309172044091730450917404C701B60110
:100990000E943229FE01202F312F4F2F5E2F0E94FF
:1009A0007A279B01AC01C501B4010E942E291816BB
:1009B000C4F1B101882777FD8095982F0E947E2889
:1009C0004B015C0160916D0470916E04882777FD86
:1009D0008095982F0E947E28A70196010E943229B7
:1009E0009B01AC01C501B4010E94DF2787FD19C03E
:1009F00020917504309176044091770450917804E9
:100A0000C701B6010E9432299B01AC01C1E0C501BA
:100A1000B4010E942E2918160CF0C0E081E08C274A
:100A200001C080E0DF91CF911F910F91FF90EF9077
:100A3000DF90CF90BF90AF909F908F903F902F907E
:100A400008952F923F924F925F926F927F928F9272
:100A50009F92AF92BF92CF92DF92EF92FF920F934D
:100A60001F93CF93DF93CDB7DEB728970FB6F894D7
:100A7000DEBF0FBECDBF4B015C0119012A01C09042
:100A80006704D0906804E0906904F0906A042091B3
:100A90007E0430917F044091800450918104C7010D
:100AA000B6010E94322920E030E040E05FE30E947E
:100AB000322969837A838B839C83762F6A81982F6E
:100AC0008C81272F362F492F582FC501B4010E9442
:100AD0007A276D837E833C01A2019101C201B1019D
:100AE0000E9432298B0188879F837D816E81272F09
:100AF000362F462D572DDB016B2F7A2F862D972D04
:100B00000E943229F885EF81202F312F4F2F5E2F41
:100B10000E947B270E9499290E944B283B0120912B
:100B20007104309172044091730450917404C701B0
:100B3000B6010E943229A50194010E947A27B98149
:100B4000AA81FB80EC802B2F3A2F4F2D5E2D0E9427
:100B50007A27262F372F482F592F0E943229F885C0
:100B6000EF81202F312F4F2F5E2F0E947B270E9475
:100B700099290E944B287B0180914A0490914B0453
:100B8000681679063CF06816790641F0CC24C394C7
:100B9000D12C06C0CC24CA94DC2C02C0C12CD12C90
:100BA0008091480490914904E816F90634F0E8165B
:100BB000F90631F001E010E01FC00FEF1FEF1CC07D
:100BC00000E010E019C08C0D9D1D90934B048093A4
:100BD0004A04C6010E94DB038091480490914904B5
:100BE0008E159F0549F0800F911F909349048093C3
:100BF0004804C8010E94150480914A0490914B0456
:100C00008615970501F780914804909149048E1547
:100C10009F0511F7C501B4010E944B2870934F0442
:100C200060934E04C201B1010E944B2870934D04A1
:100C300060934C0428960FB6F894DEBF0FBECDBF6C
:100C4000DF91CF911F910F91FF90EF90DF90CF90A8
:100C5000BF90AF909F908F907F906F905F904F90DC
:100C60003F902F9008952F923F924F925F926F92F4
:100C70007F928F929F92AF92BF92CF92DF92EF922C
:100C8000FF920F931F93CF93DF93CDB7DEB7A49757
:100C90000FB6F894DEBF0FBECDBF69A37AA38BA3B6
:100CA0009CA329013A0181E991E0998B888B1D82EF
:100CB0001E821F821886198E1A8E1B8E1C8E1D8A0C
:100CC0001E8A1F8A188E7D816E819F818885272FBD
:100CD000362F492F582F60E070E080E89FE30E9494
:100CE0007A27962E872E382E292EB401C101272F60
:100CF000362F492F582FD401F1016B2F7A2F8F2FC8
:100D00009E2F0E94322969837D878E879F877D81F0
:100D10006E819F818885272F362F492F582FDB0121
:100D2000FC016B2F7A2F8F2F9E2F0E947B27D401DF
:100D3000F1012B2F3A2F4F2F5E2F0E9432296D8FFA
:100D40007E8F8F8F98A37D816E819F818885272FCD
:100D5000362F492F582FDB01FC016B2F7A2F8F2F55
:100D60009E2F0E943229962E872E382E292E29A1B9
:100D70003AA14BA15CA1B981AD85FE85EF856B2FB2
:100D80007A2F8F2F9E2F0E94322969877A878B872F
:100D90009C8729AD3AAD4BAD5CADBD8DAE8DFF8D61
:100DA000E8A16B2F7A2F8F2F9E2F0E9432299B0153
:100DB000AC0169857A858B859C850E947B27698734
:100DC0007A878B879C87A8019701D401F1016B2F4B
:100DD0007A2F8F2F9E2F0E9432299B01AC016985AB
:100DE0007A858B859C850E947B2769877A8B8B8B84
:100DF0009C8BA3019201B981AD85FE85EF856B2F98
:100E00007A2F8F2F9E2F0E94322969837A838B83BA
:100E10009C8321962CAD3DAD4EAD5FAD2197BD8D30
:100E2000AE8DFF8DE8A16B2F7A2F8F2F9E2F0E9402
:100E300032299B01AC0169817A818B819C810E945E
:100E40007B2769837A838B839C83A6019501D401D8
:100E5000F1016B2F7A2F8F2F9E2F0E9432299B0139
:100E6000AC0169817A818B819C810E947B27698397
:100E70007D878E879F8779856A899B898C89272FB3
:100E8000362F492F582FBD89AE89FF89E88D6B2FEA
:100E90007A2F8F2F9E2F0E947A27962E872E382EFC
:100EA000292E20E030E0A901D401F1016B2F7A2F27
:100EB0008F2F9E2F0E942E29181684F420E030E0F8
:100EC00040E85FE3D401F1016B2F7A2F8F2F9E2F23
:100ED0000E942E2918160CF44FC00EC020E030E0FE
:100EE00040E85FEBD401F1016B2F7A2F8F2F9E2FFB
:100EF0000E94DF2787FD40C079816D859E858F85A3
:100F0000272F362F492F582FB98DAA8DFB8DEC8DA9
:100F10006B2F7A2F8F2F9E2F0E947A27962E872E47
:100F2000382E292E20E030E0A901D401F1016B2FE9
:100F30007A2F8F2F9E2F0E942E2918167CF420E0E6
:100F400030E040E85FE3D401F1016B2F7A2F8F2F5F
:100F50009E2F0E942E2918167CF030C020E030E031
:100F600040E85FEBD401F1016B2F7A2F8F2F9E2F7A
:100F70000E94DF2787FF22C079816D859E858F853E
:100F8000272F362F492F582FB985AA89FB89EC893D
:100F90006B2F7A2F8F2F9E2F0E9421059981998F79
:100FA000AD85AA8FBE85BB8F8F858C8F99859D8BD4
:100FB000AA89AE8BBB89BF8B8C89888F2AE037EDDD
:100FC00043E25BE3BD81AE81FF81E8856B2F7A2F21
:100FD0008F2F9E2F0E947B276D837E838F83988720
:100FE000A889B9891197B98BA88BAB2B09F06BCE67
:100FF000A4960FB6F894DEBF0FBECDBFDF91CF91A0
:101000001F910F91FF90EF90DF90CF90BF90AF9026
:101010009F908F907F906F905F904F903F902F9018
:1010200008954F925F926F927F92AF92BF92CF924C
:10103000DF92EF92FF920F931F93CF93DF9300D035
:1010400000D0CDB7DEB77B018C0159016A01CA011E
:10105000B9010E944B282B013C01C801B7010E9435
:101060004B28DC01CB01B2010E948104811118C020
:1010700063E172E08FEA96E00F900F900F900F906F
:10108000DF91CF911F910F91FF90EF90DF90CF9064
:10109000BF90AF907F906F905F904F900C948C2397
:1010A00060914E0470914F04882777FD8095982FAA
:1010B0000E947E282B013C0160914C0470914D04EC
:1010C000882777FD8095982F0E947E2869837A83F0
:1010D0008B839C839B01AC01C601B5010E947A27DA
:1010E00020E030E040E05FE30E9432299B01AC0148
:1010F00069817A818B819C810E947B279F938F934A
:101100007F936F93A3019201C801B7010E947A27D0
:1011100020E030E040E05FE30E9432299B01AC0117
:10112000C301B2010E947B279F938F937F936F939C
:1011300029813A814B815C81C301B2010E9433064F
:101140000FB6F894DEBF0FBECDBF0F900F900F907B
:101150000F90DF91CF911F910F91FF90EF90DF9053
:10116000CF90BF90AF907F906F905F904F90089519
:101170002F923F924F925F926F927F928F929F92A7
:10118000AF92BF92CF92DF92EF92FF920F931F9395
:10119000CF93DF9380E00E9453030E94F70260E048
:1011A00070E080E090E00E94650380918604909159
:1011B00087040E940E0380918804909189040E9404
:1011C000240380918A0490918B040E9495030E94CD
:1011D000470402E814E0F801808191810E943A03FB
:1011E00084E690E00E94DB030E9464041C012BE66D
:1011F000622E24E0722EF30140805180C7E6D4E0D5
:10120000C880D980EA80FB806091790470917A046B
:10121000640D751D882777FD8095982F0E947E2884
:10122000A70196010E9432294B015C01B101882778
:1012300077FD8095982F0E947E289B01AC01C50107
:10124000B4010E947B2720E030E048EC52E40E9489
:101250007B270E944B284B015C0170934B046093E9
:101260004A0460917B0470917C04640D751D88278D
:1012700077FD8095982F0E947E28A70196010E94F5
:1012800032290E944B287093490460934804C4019A
:101290000E94CE0060914A0470914B04882777FD2C
:1012A0008095982F0E947E28288139814A815B8110
:1012B0000E94E3276B017C01F30160817181882723
:1012C00077FD8095982F0E947E289B01AC01C70175
:1012D000B6010E947A27AB01BC0122E030E08FEA20
:1012E00096E00E9486256091480470914904882701
:1012F00077FD8095982F0E947E28288139814A8128
:101300005B810E94E3276B017C01F30160817181A5
:10131000882777FD8095982F0E947E289B01AC013D
:10132000C701B6010E947A27AB01BC0122E030E080
:101330008FEA96E00E94862560914E0470914F04DA
:10134000882777FD8095982F0E947E2828813981F3
:101350004A815B810E94E327AB01BC0122E030E0BF
:101360008FEA96E00E94862560914C0470914D04AE
:10137000882777FD8095982F0E947E2828813981C3
:101380004A815B810E94E327AB01BC0122E030E08F
:101390008FEA96E00E948625F801808191810E9463
:1013A0003A03288139814A815B816091710470918F
:1013B000720480917304909174040E94322920E099
:1013C00030E040E05FE30E943229262F372F482F7C
:1013D000592F0E94110880918C0490918D040E94D5
:1013E000950381E080935404DF91CF911F910F9179
:1013F000FF90EF90DF90CF90BF90AF909F908F9035
:101400007F906F905F904F903F902F900895CF9274
:10141000DF92EF92FF920F931F93CF93DF938C0194
:101420008FEA96E00E949A251816190614F565E0D1
:1014300070E080E090E00E949A218FEA96E00E949E
:101440009A256C017801C0E0D0E00FC08FEA96E0E9
:101450000E94C9258C3229F4F801EC0FFD1F10827F
:101460000AC0F70181937F012196CC15DD0574F345
:10147000F3CFC0E0D0E0CE01DF91CF911F910F916B
:10148000FF90EF90DF90CF900895CF93DF93CDB78B
:10149000DEB727970FB6F894DEBF0FBECDBFCE01E3
:1014A00001960E94070A892B29F0CE0101960E941D
:1014B0002B2A04C060E070E080E090E027960FB631
:1014C000F894DEBF0FBECDBFDF91CF9108950F938B
:1014D0001F93CF93DF9300D000D0CDB7DEB78C0140
:1014E0000E94DB0364E272E08FEA96E00E946D23C3
:1014F0004AE050E0B8018FEA96E00E94B4246BE223
:1015000072E08FEA96E00E948C2306C064E670E0E9
:1015100080E090E00E949A218FEA96E00E949A254E
:10152000892BA1F30E94450A9B01AC01B8018827D1
:1015300077FD8095982F29833A834B835C830E94A3
:101540007E2829813A814B815C810E94E327AB018F
:10155000BC0122E030E08FEA96E00F900F900F90F0
:101560000F90DF91CF911F910F910C948625CF930F
:10157000DF93EC0166EB73E08FEA96E00E946D2347
:101580006881772767FD70954AE050E08FEA96E022
:101590000E94B4246FE372E08FEA96E00E946D230C
:1015A00069818FEA96E00E946F236EED71E08FEA09
:1015B00096E00E946D234A815B816C817D8122E0EF
:1015C00030E08FEA96E00E9484256EED71E08FEAAC
:1015D00096E00E946D234E815F816885798522E0C7
:1015E00030E08FEA96E0DF91CF910C94862510923F
:1015F0005A041092590411C0FC01EB59FB4F608151
:101600008FEA96E00E94FD258091590490915A043A
:10161000019690935A0480935904809159049091B3
:101620005A048932910540F36DEB72E08FEA96E03F
:101630000C948C230F931F93CF93DF9360E070E0A3
:10164000C5E6D4E049918B010F5F1F4F8EE894E00F
:101650000E94E310B80109321105A1F7DF91CF9183
:101660001F910F910895CF93DF9364E670E080E0BF
:1016700090E00E949A218FEA96E00E949A2589972D
:10168000B1F4C5E6D4E005C08FEA96E00E94C92512
:10169000899384E0CE38D807B9F70E941A0B61E429
:1016A00072E08FEA96E0DF91CF910C948C2360E595
:1016B00072E08FEA96E00E946D234AE050E069E212
:1016C00070E08FEA96E00E941D246AE672E08FEADD
:1016D00096E00E946D238FEA96E00E949A254AE0E8
:1016E00050E0BC018FEA96E00E94BC248FEA96E0AD
:1016F000DF91CF910C94EB258F929F92AF92BF9286
:10170000CF92DF92EF92FF92CF93DF93EC01909113
:101710005404898191111AC08336C1F08636B1F024
:1017200061E972E08FEA96E00E948C2360EA72E041
:101730008FEA96E0DF91CF91FF90EF90DF90CF900E
:10174000BF90AF909F908F900C948C23992787FD2A
:101750009095A92FB92FFC01E156F109EA31F10565
:1017600008F00CC3EC5CFF4F0C94252A6A817B8146
:101770008C819D810E944B28CB010E94AB0304C346
:101780006A817B818C819D810E944B28CB010E94C4
:10179000670AFAC20E94B80836C020E030E0A9010A
:1017A0006A817B818C819D810E94DF27882319F0CB
:1017B0006FE672E002C068E772E08FEA96E00E948E
:1017C0008C2320E030E0A9016A817B818C819D819E
:1017D0000E94DF27882319F00E94E30202C00E94C2
:1017E000F70260EA72E08FEA96E00E948C236A8139
:1017F0007B818C819D810E94502860933704C4C2F4
:1018000081E00E94E20E60EA72E0BAC26A817B81E6
:101810008C819D810E944B2870934B0460934A04F5
:101820006E817F81888599850E944B287093490439
:101830006093480463EA72E08FEA96E00E948C238A
:10184000609148047091490480914A0490914B043E
:101850000E94CE0081E080935404D5CFC0906704ED
:10186000D0906804E0906904F0906A042E813F8172
:1018700048855985C701B6010E9432294B015C0198
:101880002A813B814C815D81C701B6010E943229CA
:10189000A50194010E941108B6CF80E0B2CF6E81FD
:1018A0007F81888599850E944B286B017C016A8124
:1018B0007B818C819D810E944B28DC01CB01B6018C
:1018C0000E946503A0CF0E94F70A9DCF60EA72E0F4
:1018D0008FEA96E00E948C230E94330B94CF2091D4
:1018E0006704309168044091690450916A046A81E8
:1018F0007B818C819D810E9432290E944B28CB01E3
:101900000E94DB03209167043091680440916904D0
:1019100050916A046E817F81888599850E94322961
:101920000E944B28CB010E9415046DCF6A817B81F8
:101930008C819D810E944B28CB010E9495036E8172
:101940007F81888599850E944B28CB010E943A03AC
:101950006E817F81888599850E944B2870938304CE
:101960006093820450CF65EB72E08FEA96E00E94AC
:101970006D2360914E0470914F04882777FD809508
:10198000982F0E947E28209167043091680440912E
:10199000690450916A040E94E327AB01BC0122E074
:1019A00030E08FEA96E00E94842569EB72E08FEACE
:1019B00096E00E946D2360914E0470914F044AE0BE
:1019C00050E08FEA96E00E94BC246EEB72E08FEA52
:1019D00096E00E946D2360914C0470914D0488271D
:1019E00077FD8095982F0E947E2820916704309182
:1019F00068044091690450916A040E94E327AB0196
:101A0000BC0122E030E08FEA96E00E94842569EB79
:101A100072E08FEA96E00E946D2360914C04709111
:101A20004D044AE050E08FEA96E00E94BC2462EC4C
:101A300072E08FEA96E00E946D2360914A047091F3
:101A40004B04882777FD8095982F0E947E2820914F
:101A50006704309168044091690450916A040E94BF
:101A6000E3276B017C0160916B0470916C04882703
:101A700077FD8095982F0E947E289B01AC01C701BD
:101A8000B6010E947A27AB01BC0122E030E08FEA68
:101A900096E00E94842569EB72E08FEA96E00E944E
:101AA0006D2360914A0470914B044AE050E08FEA44
:101AB00096E00E94BC2463ED72E08FEA96E00E94FB
:101AC0006D236091480470914904882777FD8095C3
:101AD000982F0E947E2820916704309168044091DD
:101AE000690450916A040E94E3276B017C016091B4
:101AF0006B0470916C04882777FD8095982F0E9465
:101B00007E289B01AC01C701B6010E947A27AB0178
:101B1000BC0122E030E08FEA96E00E94842569EB68
:101B200072E08FEA96E00E946D2360914804709104
:101B300049044AE050E08FEA96E00E94BC2480917C
:101B40003704882319F06FE772E002C069E872E099
:101B50008FEA96E00E948C2364EE72E08FEA96E0B2
:101B60000E946D23409150045091510460915204A1
:101B7000709153042AE030E08FEA96E00E94A0249E
:101B8000C0906704D0906804E0906904F0906A0403
:101B900060914E0470914F04882777FD8095982FAF
:101BA0000E947E28A70196010E94E3276A837B8317
:101BB0008C839D8360914C0470914D04882777FD40
:101BC0008095982F0E947E28A70196010E94E32706
:101BD0006E837F838887998716CE65EF72E0D0C0C9
:101BE00081E080933C0410923904109238046A8199
:101BF0007B818C819D810E94502870933B0460936F
:101C00003A046EEF72E08FEA96E00E948C23FBCDDF
:101C10006A817B818C819D810E94502860935B0446
:101C20006AE173E08FEA96E00E946D234AE050E09B
:101C300060915B048FEA96E00E943B24A5C0CA80B5
:101C4000DB80EC80FD8020E030E0A901C701B60117
:101C50000E942E29181644F4C0926704D09268049A
:101C6000E0926904F0926A0466E273E08FEA96E01B
:101C70000E946D234091670450916804609169044B
:101C800070916A0422E030E08FEA96E00E94862597
:101C900063E373E08FEA96E00E946D234091710444
:101CA00050917204609173047091740422E030E0EA
:101CB0008FEA96E00E94862567E373E08FEA96E05C
:101CC0000E946D23409175045091760460917704D1
:101CD0007091780422E030E08FEA96E00E94862539
:101CE0006BE373E08FEA96E00E946D2360916D04D0
:101CF00070916E044AE050E08FEA96E00E94BC24A6
:101D000068E473E08FEA96E00E946D2360916F04AF
:101D1000709170044AE050E08FEA96E00E94BC2483
:101D200072CD6A817B818C819D810E944B28CB0181
:101D30000E9434020E94680227C080E00E94AA200C
:101D400066E573E08FEA96E00E948C230E94E7101C
:101D50001BC020E030E0A9016A817B818C819D81DC
:101D60000E94DF27882311F06CE201C062EC81E160
:101D70000E94672248CD0E94EE0106C063E673E030
:101D80008FEA96E00E948C23809150049091510438
:101D9000A0915204B09153040196A11DB11D8093EE
:101DA000500490935104A0935204B0935304DF91D4
:101DB000CF91FF90EF90DF90CF90BF90AF909F902A
:101DC0008F900895CF92DF92EF92FF921F93CF935F
:101DD000DF93CDB7DEB72A970FB6F894DEBF0FBEFC
:101DE000CDBF182FF89441E06EE171E08EED93E0E5
:101DF0000E94581C811120C068E671E08FEA96E0CD
:101E00000E948C23789457C08FEFC81AD80AE80A2A
:101E1000F80ACE0101960E94B70A112381F06FE6FD
:101E200073E08FEA96E00E948C237894CE010196AD
:101E30000E947C0BF89403C0C12CD12C76014AE09F
:101E400050E0BE016F5F7F4F8EED93E00E948916D8
:101E500018161906CCF2C701B601882799270E94E7
:101E60007C2860933F0470934004809341049093D6
:101E70004204B701882799270E947C286093430475
:101E80007093440480934504909346048EED93E050
:101E90000E94881978940E94E10165E773E08FEA57
:101EA00096E00E946D232AE030E0B701A6018FEA98
:101EB00096E00E9409242A960FB6F894DEBF0FBE62
:101EC000CDBFDF91CF911F91FF90EF90DF90CF902A
:101ED00008950F931F9386E00E949E22892B11F490
:101EE0000E94B80864EF71E082E694E00E94081155
:101EF000882351F061E080915C04811160E060937F
:101F00005C0487E00E9467228FEA96E00E949A258F
:101F1000181619060CF58FEA96E00E94C9258093E1
:101F20003E040E94450A60933F04709340048093EE
:101F30004104909342040E94450A609343047093C5
:101F40004404809345049093460481E080935E04AA
:101F50008FEA96E00E94EB2580915E04882309F4C5
:101F600061C010925E0480913C04882309F449C04A
:101F700080913E04833731F510923C0465E873E0AC
:101F80008FEA96E00E948C2380E00E94E20E60912E
:101F900038047091390480913A0490913B04681B95
:101FA000790B4AE050E08FEA96E00E94232460EA31
:101FB00072E08FEA96E00E948C2310923B0410920C
:101FC0003A0423C00E94050266E973E08FEA96E0B6
:101FD0000E946D236091380470913904CB01019601
:101FE00090933904809338044AE050E08FEA96E0F9
:101FF0000E94232460EA72E08FEA96E00E948C231C
:1020000004C08DE394E00E947C0B81E080935D042A
:102010000E945E2160935504709356048093570488
:10202000909358040E945E2100915504109156042B
:102030002091570430915804601B710B820B930B55
:10204000613D77408105910540F080914704811101
:1020500004C01F910F910C9444031F910F91089598
:102060000F931F93CF93DF93C5E6D4E060E070E059
:102070008B010F5F1F4F8EE894E00E94E010899360
:10208000B80109321105A1F7DF91CF911F910F918E
:1020900008950E94301040E051EE60E070E08FEA59
:1020A00096E00E94AA2667EA73E08FEA96E00E9413
:1020B0006D234AE050E060917D048FEA96E00E9433
:1020C0003B2461E087E00E942F2261E087E00E94CC
:1020D000672261E081E10E942F2280E00E94CD0210
:1020E00061E088E00E942F2261E089E00E942F22B7
:1020F00061E08AE00E942F2261E08BE00E942F22A3
:1021000061E084E00E942F2261E080E00E942F22A3
:1021100061E081E00E942F2261E082E00E942F2294
:1021200060E086E00E942F2261E086E00E94672244
:1021300061E08AE00E942F2261E082E10E942F226A
:1021400061E083E10E942F2261E082E10E94672228
:1021500061E083E10E94672260E08DE00E942F220F
:1021600061E08DE00E94672260E085E00E942F22FE
:1021700061E085E00E9467220E94BD030E940B037C
:102180000C94EE01109264041092610489E1809332
:10219000FA031092FD031092150410921C04109281
:1021A0001F041092DE031092E1031092DD031092DF
:1021B000DC0386EC93E09093DB038093DA030895CD
:1021C000CB010C944D2ACB01642F0C94552A8CB56D
:1021D0008F7B8CBD08950F931F93CF93DF938C015A
:1021E000EB0181E0209709F480E0F80182838823E5
:1021F00051F00E945E219E0121503109260F371FA8
:10220000F80131832083DF91CF911F910F910895C1
:10221000EF92FF920F931F93CF93DF93EC018B010B
:102220008A81882371F0E880F9800E945E21C701CD
:10223000861B970B81362AEE920748F0F82EF19410
:1022400001C0F12CB801CE010E94EB1001C0F12CAD
:102250008F2DDF91CF911F910F91FF90EF900895F7
:102260008091C10085FDFCCF8091C00085FFF8CF33
:102270006093C60081E090E008951092920410925D
:1022800091048EEB93E09093900480938F040895D3
:102290008091990480FF41C040919A0450919B0421
:1022A00060919C0470919D042EE934E08091930428
:1022B000909194040E94FE1F811102C080E0089555
:1022C0008091990481FD06C0809199048E7F80934E
:1022D000990423C08091950490919604A09197044D
:1022E000B09198040097A105B10571F340919A044B
:1022F00050919B0460919C0470919D04480F591F5C
:102300006A1F7B1F2EE934E080919304909194041E
:102310000E94FE1F8111D8CFD1CF81E00895CF92C6
:10232000DF92EF92FF92CF936B017C01C42F8091DB
:102330009A0490919B04A0919C04B0919D048C15EB
:102340009D05AE05BF0509F10E944811811103C02A
:1023500020E030E022C0C2FF0BC010929904C0926E
:102360009A04D0929B04E0929C04F0929D040DC0CC
:102370002EE934E0B701A601809193049091940472
:102380000E94D11E8111E9CFE3CFC37080919904DF
:102390008C2B809399042EE934E0C901CF91FF90F2
:1023A000EF90DF90CF9008950C9448118FEF9FEF3E
:1023B000DC0180939A0490939B04A0939C04B093B7
:1023C0009D041092990408950F931F93FC014250AD
:1023D000510961097109A481B0E09A01AB010E9421
:1023E000F8298B019C0186859785A089B189080F02
:1023F000191F2A1F3B1FB801C9011F910F91089592
:10240000AF92BF92CF92DF92EF92FF920F931F9302
:10241000CF93DF935C016A017B01E90142305105F2
:102420006105710508F459C0F50141855285638540
:1024300074854F5F5F4F6F4F7F4F4C155D056E0585
:102440007F0508F44AC08789803129F499278F2DA8
:102450007E2D6D2D0DC0803209F03FC0C701B60141
:1024600047E096958795779567954A95D1F7F50159
:102470000389148925893689600F711F821F931F74
:1024800042E00E948F11009741F1F5012789203128
:1024900069F4DD24EE24FF24F601EE0FFF1FE80FA0
:1024A000F91F80819181A0E0B0E011C0E894C7F8E5
:1024B000DD24EE24FF24F601EE0FFF1FEE0FFF1FB9
:1024C000E80FF91F80819181A281B381BF70888359
:1024D0009983AA83BB8381E001C080E0DF91CF9123
:1024E0001F910F91FF90EF90DF90CF90BF90AF9032
:1024F00008956F927F928F929F92AF92BF92CF92E8
:10250000DF92EF92FF920F931F93CF93DF9300D050
:10251000CDB7DEB73C016A017B0142305105610550
:10252000710508F456C0F3014185528563857485B1
:102530004F5F5F4F6F4F7F4F4C155D056E057F05F9
:1025400008F447C08789803129F499278F2D7E2D83
:102550006D2D0DC0803209F03CC0C701B601E7E027
:102560009695879577956795EA95D1F7F3018388D6
:102570009488A588B688680D791D8A1D9B1D43E047
:1025800029833A830E948F1129813A81009709F1AA
:10259000F3014789403159F4DD24EE24FF24F6018C
:1025A000EE0FFF1FE80FF91F1183008310C0E8949E
:1025B000C7F8DD24EE24FF24F601EE0FFF1FEE0F17
:1025C000FF1FE80FF91F008311832283338381E00B
:1025D00001C080E00F900F90DF91CF911F910F917C
:1025E000FF90EF90DF90CF90BF90AF909F908F9033
:1025F0007F906F9008952F923F924F925F926F92CB
:102600007F928F929F92AF92BF92CF92DF92EF9282
:10261000FF920F931F93CF93DF93CDB7DEB72F9722
:102620000FB6F894DEBF0FBECDBF1C014C875D878F
:102630006E877F873B872A87DC0119964D905D90D6
:102640006D907C901C97BFEF4B1A5B0A6B0A7B0A5C
:10265000F90180809180A280B38081149104A1044B
:10266000B10431F0FFEF8F1A9F0AAF0ABF0A10C002
:10267000DC018D909D90AD90BC90B1E0BD832C8528
:102680003D854E855F85213031054105510509F0B5
:102690001D82750164011E821F8218861986F10150
:1026A00081859285A385B4852E813F814885598592
:1026B000281739074A075B0708F052C04C145D041D
:1026C0006E047F0450F4B2E0CB2ED12CE12CF12C1F
:1026D00012E0812E912CA12CB12C9E012F5F3F4F37
:1026E000B701A601C1010E9400128823C9F14981E6
:1026F0005A816B817C81D701C6010196A11DB11D54
:10270000452B462B472B19F04C015D010DC0881954
:102710009909AA09BB092C853D854E855F858217DD
:102720009307A407B50789F08E819F81A885B98595
:102730000196A11DB11D8E839F83A887B9879FEF46
:10274000C91AD90AE90AF90AAACF0FEF1FEF2FEF2A
:102750003FE0A601B701C1010E947912811115C0A5
:1027600080E041C044244A94542C32014C0C5D1C3E
:102770006E1C7F1C97018601B301A201C1010E945A
:102780007912882369F3730162018C149D04AE04ED
:10279000BF0440F3AA85BB854D915D916D917C91FD
:1027A000411551056105710551F4EA85FB8580826B
:1027B0009182A282B382FD81F11109C013C09501FB
:1027C0008401C1010E9479128111EFCFC9CF2FEF8F
:1027D000821A920AA20AB20AD1018D929D92AD92FA
:1027E000BC92139781E02F960FB6F894DEBF0FBE10
:1027F000CDBFDF91CF911F910F91FF90EF90DF90B0
:10280000CF90BF90AF909F908F907F906F905F9090
:102810004F903F902F900895AF92BF92CF92DF924A
:10282000EF92FF920F931F93CF93DF9300D000D0CE
:10283000CDB7DEB75C016A017B0142E050E060E0A9
:1028400070E0FC0140835183628373839E012F5F9C
:102850003F4FB701A601C5010E940012811102C0BD
:1028600080E023C000E010E09801B701A601C50197
:102870000E9479128823A1F3C980DA80EB80FC8062
:10288000F5018789803141F4F8EFCF16FFEFDF06BD
:10289000E104F10448F4DACF88EFC8168FEFD806C8
:1028A000E8068FE0F80690F281E00F900F900F900D
:1028B0000F90DF91CF911F910F91FF90EF90DF90DC
:1028C000CF90BF90AF9008956F927F928F929F921A
:1028D000AF92BF92CF92DF92EF92FF921F93CF936E
:1028E000DF93EC01142F70939404609393041F8A78
:1028F00062E0C62ED12CE12CF12CC882D982EA826A
:10290000FB8210929904CC24CA94DC2C7601C092EC
:102910009A04D0929B04E0929C04F0929D04109241
:1029200095041092960410929704109298044423F0
:1029300061F1453008F0D5C040E060E070E0CB01C7
:102940000E948F11009709F4CCC0FC0120E1129F76
:10295000E00DF11D1124E255FE4F80818F7709F0C3
:10296000C0C0448555856685778544365105610527
:10297000710508F4B6C0C084D184E284F384C11424
:10298000D104E104F10421F4ACC0C12CD12C7601B6
:1029900040E0C701B6010E948F11FC01009709F4C5
:1029A000A0C0838594858115924009F09AC0208942
:1029B000222309F496C086859785892B09F491C056
:1029C0008585882309F48DC02A8B25852C831D8657
:1029D00030E041E050E006C0812F8F5F8D871830D6
:1029E00008F07FC01D85CA01012E02C0880F991F03
:1029F0000A94E2F72817390779F7268937892115CC
:102A0000310519F040E050E004C024A135A146A1F1
:102A100057A12D833E834F8358872093950430938D
:102A200096044093970450939804868597854601B1
:102A30005701880E991EA11CB11C8B8A9C8AAD8AF5
:102A4000BE8A61887288798E688EA089B0E00E9403
:102A5000F829680D791D8A1D9B1D6A8F7B8F8C8FCD
:102A60009D8F930145E0220F331F4A95E1F72150D6
:102A70003E4F232F33272695DC01CB01820F931F76
:102A8000A11DB11D8E879F87A88BB98B83889488E1
:102A90008114910419F0A12CB12C04C080A091A044
:102AA000A2A0B3A0A7019601281B390B4A0B5B0B10
:102AB000DA01C901880D991DAA1DBB1D04C0B69578
:102AC000A795979587951A95D2F789879A87AB87A7
:102AD000BC87853F3FE09307A105B10520F48CE05A
:102AE0008F8B80E012C0853F9F4FA105B10510F488
:102AF00080E109C044A555A566A577A54A8F5B8FDF
:102B00006C8F7D8F80E28F8B81E0DF91CF911F9161
:102B1000FF90EF90DF90CF90BF90AF909F908F90FD
:102B20007F906F900895CF93DF93EC019C01295F14
:102B30003F4F41E050E060E070E08D819E810E9457
:102B4000FB128823A1F04F89588D698D7A8D452B12
:102B5000462B472B71F44F81588569857A854F8BB9
:102B6000588F698F7A8F89818068898302C080E05D
:102B700001C081E0DF91CF910895AF92BF92CF92D3
:102B8000DF92EF92FF920F931F93CF93DF93EC01AD
:102B90004B895C896D897E89403E5F4F6F4171052D
:102BA00008F014C00E949315882381F04F81588546
:102BB00069857A858D819E810E94E4116B017C017B
:102BC00045E00E948F115C01009719F4A12CB12CF3
:102BD00035C080E092E0F5019C0111922150304017
:102BE000E1F711E010C0B701A601410F511D611DB1
:102BF000711D950180919304909194040E94FE1F91
:102C0000882321F31F5FED81FE810481101758F3A3
:102C100010E020E030E089E0000F111F221F331F79
:102C20008A95D1F74B895C896D897E89400F511F48
:102C3000621F731F4B8B5C8B6D8B7E8BC501DF918D
:102C4000CF911F910F91FF90EF90DF90CF90BF90A9
:102C5000AF900895CF93DF93EC01462F6F8578896D
:102C600089899A890E948F11009749F02C81AC01C3
:102C700060E2269F400D511D11249A0102C020E000
:102C800030E0C901DF91CF910895CF93DF93FB012D
:102C90002BE030E231932150E9F7DC0130E0C7E06E
:102CA0001DC0CA3059F138E0CAE018C0E21731F14E
:102CB000FC010196E491E111F9CFC317F8F021323C
:102CC000E8F02F37D8F4FB01E30FF11D822F815676
:102CD0008A3110F4D22FD052D0833F5FCD012D9195
:102CE000211109C0FA018083918381E0FB01908169
:102CF000903261F403C02F3219F4F4CF80E006C0A3
:102D0000D22F2E3271F28CE990E0D2CFDF91CF91A9
:102D100008952F923F924F925F926F927F928F927F
:102D20009F92AF92BF92CF92DF92EF92FF920F935A
:102D30001F93CF93DF9300D000D0CDB7DEB79C8335
:102D40008B831A01FC018381811103C02FEF3FEFB8
:102D5000D9C0EB81FC81818180FFF8CF9DC0160135
:102D6000201A310A31015B018B819C8107969A837D
:102D700089838CC0EB81FC8103851485258536858C
:102D8000D901C8019170AA27BB272C0185819681A2
:102D9000FC0194806801790159E0F694E794D79496
:102DA000C7945A95D1F7EB81FC814381423051F4AD
:102DB000FC01628D738D848D958D6C0D7D1D8E1D36
:102DC0009F1D2FC09A949C2041145104E1F491104E
:102DD0001AC0EB81FC81012B022B032B49F487895C
:102DE000908DA18DB28D87839087A187B2870BC00C
:102DF000478150856185728529813A810E94001240
:102E0000882309F4A3CFEB81FC814781508561853C
:102E10007285858196810E94E411690D711D811D65
:102E2000911D4114510409F051C06114F2E07F0674
:102E300008F44CC000919A0410919B0420919C04CA
:102E400030919D04601771078207930709F04EC007
:102E50003DC0480E591EA701B201C5010E94442A77
:102E600003C0E12C42E0F42EAE0CBF1CEB81FC81D0
:102E700003851485258536850E0D1F1D211D311DE9
:102E800003871487258736876E187F0861147104BD
:102E900009F070CF910136C0EB81FC81C388D488E2
:102EA000E588F68803851485258536852A01612CF9
:102EB000712C46015701801A910AA20AB30A4814DC
:102EC00059046A047B0408F04ACF4CCF20E032E07A
:102ED0002419350973012615370508F4790140E0F6
:102EE0000E948F11009709F0B4CF30CF9501AB014C
:102EF000BC0180919304909194040E94D11E811191
:102F0000B0CF24CFC9010F900F900F900F90DF9199
:102F1000CF911F910F91FF90EF90DF90CF90BF90D6
:102F2000AF909F908F907F906F905F904F903F9069
:102F30002F900895CF93DF931F92CDB7DEB741E076
:102F400050E0BE016F5F7F4F0E948916019719F410
:102F5000298130E002C02FEF3FEFC9010F90DF91D0
:102F6000CF910895CF92DF92EF92FF92CF93DF93AC
:102F7000EC018B81823018F420E030E029C0CB8452
:102F8000DC84ED84FE84E5E0F694E794D794C7945E
:102F9000EA95D1F78FE0C822DD24EE24FF24CE018C
:102FA0000E949A1797FDE8CF4B855C856D857E85DD
:102FB000415E5F4F6F4F7F4F4B875C876D877E878A
:102FC000960175E0220F331F7A95E1F722563B4FA9
:102FD000C901DF91CF91FF90EF90DF90CF900895DE
:102FE0008F929F92AF92BF92CF92DF92EF92FF9219
:102FF0000F931F93CF93DF93EC014A015B012B8169
:10300000222309F475C08B899C89AD89BE898417F8
:103010009507A607B70708F46BC06CC0811491042C
:10302000A104B10449F41F82188619861A861B86EA
:103030001C861D861E865AC00B851C852D853E85E7
:10304000ED81FE81858590E00996B901A801415086
:10305000510961097109082E04C076956795579545
:1030600047950A94D2F7CC24CA94DC2C7601C80C7C
:10307000D91CEA1CFB1C04C0F694E794D794C794AF
:103080008A95D2F7C416D506E606F70620F0012B7E
:10309000022B032B49F44F89588D698D7A8D4F830C
:1030A000588769877A8716C0C41AD50AE60AF70ACC
:1030B00011C04F81588569857A8598018D819E81DF
:1030C0000E94001291E0C91AD108E108F1088111AB
:1030D00004C014C08E01095F1F4FC114D104E10464
:1030E000F10439F78B869C86AD86BE8681E006C0EA
:1030F00080E004C0223009F091CFF4CFDF91CF916E
:103100001F910F91FF90EF90DF90CF90BF90AF9005
:103110009F908F900895CF92DF92EF92FF920F933E
:103120001F93CF93DF9300D000D0CDB7DEB77C01E3
:10313000DC0157964D915D916D917C915A97498331
:103140005A836B837C83C12CD12C49815A816B813A
:103150007C819E012F5F3F4FF701858196810E9400
:103160000012882389F1D7011596ED91FC911697ED
:103170008481C80ED11CC114B0E1DB0628F5098199
:103180001A812B813C818789803131F4083F1F4FA0
:103190002105310530F4D9CF083F1F4F2F4F3F4055
:1031A000A0F2A60160E070E0F9E0440F551F661F31
:1031B000771FFA95D1F7D70153964D935D936D9391
:1031C0007C93569781E001C080E00F900F900F90A4
:1031D0000F90DF91CF911F910F91FF90EF90DF90B3
:1031E000CF900895CF93DF93EC01FB018B8188236F
:1031F00011F080E03EC07E836D838789803101F5C8
:1032000022C083E08B83428D538D648D758D4F8BEF
:10321000588F698F7A8FCE010E948B18882349F3CB
:1032200081E089831F82188619861A861B861C8670
:103230001D861E861F86188A198A1A8A1C8219C042
:103240008032B9F6DECF82E08B831F8A188E198E0A
:103250001A8E408D518D60E070E0A5E0440F551F3F
:10326000661F771FAA95D1F74B8B5C8B6D8B7E8B7E
:10327000D7CFDF91CF9108950F931F93CF93DF9313
:10328000EC018B818823E1F1898187FF33C061E004
:10329000CE010E942A168C01009791F1FC018081D9
:1032A000853E71F18B81823040F44B895C896D8958
:1032B0007E89448F558F668F778F4F89588D698DA2
:1032C0007A8DF801538F428F758B648BE0919E0647
:1032D000F0919F06309759F0B8016A5E7F4FC801A0
:1032E00048960995F801808D918D938B828B898109
:1032F0008F778983DF91CF911F910F910C944811A3
:1033000081E0888380E0DF91CF911F910F91089534
:10331000CF93DF93EC010E943C191B82DF91CF9188
:1033200008956F927F928F929F92AF92BF92CF92A9
:10333000DF92EF92FF920F931F93CF93DF9300D012
:1033400000D0CDB7DEB73C016A017B01FC0183816F
:10335000813009F083C0818181FF80C081C0452B0D
:10336000462B472B09F478C0F30183849484A58409
:10337000B684B701A601C3010E94F017811101C0F4
:103380006DC0F30185819681C114D104E104F1047B
:1033900079F44789508D618D728D0E940C148823B9
:1033A00009F45CC0F301178A108E118E128E3AC098
:1033B000F30147815085618572859E012F5F3F4FE4
:1033C0000E940012882309F449C049815A816B8107
:1033D0007C81F30185819681FC012789203139F4B4
:1033E000483FFFEF5F0761057105E0F407C0483F04
:1033F0002FEF520762072FE07207A0F40E940C140F
:10340000882361F1F30147815085618572850FEF53
:103410001FEF2FEF3FE0858196810E947912811185
:1034200001C01CC0F301C38AD48AE58AF68A81816F
:1034300080688183C3010E943C19882379F0B70119
:10344000A6018C149D04AE04BF0410F4B501A401C0
:10345000C3010E94F01710C081E00EC080E00CC0D4
:10346000F30143895489658976894C155D056E059C
:103470007F0508F074CFF2CF0F900F900F900F9050
:10348000DF91CF911F910F91FF90EF90DF90CF9040
:10349000BF90AF909F908F907F906F900895BF9254
:1034A000CF92DF92EF92FF920F931F93CF93DF9310
:1034B000EC01B42E80E2689FF0011124E256FB4F2C
:1034C0008385817121F0842F827109F05CC00091A5
:1034D0009A0410919B0420919C0430919D040F87C5
:1034E000188B298B3A8B6C830489158920E030E096
:1034F000980111270027C28CD38CE12CF12C0C29C8
:103500001D292E293F290F8B188F298F3A8F8385EC
:10351000887151F4048D158D268D378D0B8B1C8B86
:103520002D8B3E8B81E008C0803169F5CE010E9471
:103530008B18882341F184E08B838B2D8F708983D6
:103540001F82188619861A861B861C861D861E8673
:10355000B4FE1CC040E050E0BA01CE010E949119B7
:10356000811114C010C04B895C896D897E89CE01A0
:10357000DF91CF911F910F91FF90EF90DF90CF904F
:10358000BF900C94F0171B8280E003C0B5FCEBCF1A
:1035900081E0DF91CF911F910F91FF90EF90DF902D
:1035A000CF90BF9008956F927F928F929F92AF922B
:1035B000BF92CF92DF92EF92FF920F931F93CF9320
:1035C000DF935C01EB014A01722E8D819E81F50132
:1035D0009683858340E050E0BA01CE010E94F01747
:1035E000612C33C045E036952795179507954A9588
:1035F000D1F70F70CE010E94B217DC01009709F4D9
:1036000094C08C91882311F0853EB1F4611010C0F4
:10361000C0909A04D0909B04E0909C04F0909D048C
:10362000F501C786D08AE18AF28A0483662463940E
:103630008C9181110AC074C04BE050E0BD01C401FF
:103640000E94372A009709F46EC00B851C852D85D2
:103650003E85CB88DC88ED88FE880C151D052E057F
:103660003F0508F4BFCF5CC071FE5FC0662051F01B
:10367000F501048161E0C5010E942A16EC01009762
:1036800069F453C08B81823009F44FC0CE010E948F
:10369000BD15009709F449C0EC0100E080E2FE018D
:1036A00011928A95E9F78BE0F401DE0101900D9209
:1036B0008A95E1F7E0919E06F0919F06309739F0E8
:1036C000BE01625F7F4FCE014096099508C081E23E
:1036D00098E2998B888B80E098E09F878E87888915
:1036E00099899B8B8A8B998F888F8E859F859F8BDD
:1036F0008E8B0E9448118823C1F0472D602FC50191
:10370000DF91CF911F910F91FF90EF90DF90CF90BD
:10371000BF90AF909F908F907F906F900C944F1AB6
:1037200076FCA2CF02C077FEE8CF80E0DF91CF9198
:103730001F910F91FF90EF90DF90CF90BF90AF90CF
:103740009F908F907F906F9008955F926F927F927D
:103750008F929F92AF92BF92CF92DF92EF92FF92A1
:103760000F931F93CF93DF93CDB7DEB7C354D10927
:103770000FB6F894DEBF0FBECDBF5C016B0124967F
:103780005FAF4EAF2497522E1C8E1F8E19821C8263
:103790006115710511F480E074C0FC018381811111
:1037A000FACF2496EEADFFAD249780818F3239F0A9
:1037B000760117C031962496FFAFEEAF249724967A
:1037C000EEADFFAD249780818F32A1F3F6018381A6
:1037D0008250823060F4ECCFEE24E394F12CEC0EB6
:1037E000FD1E8E01045E1F4F480138010CC0F6011A
:1037F00065817681CE0101960E94F2188111ECCF8D
:10380000CACF78018301AE014E5B5F4FBE01695C98
:103810007F4F24968EAD9FAD24970E94451681114F
:1038200006C0B9CF31962496FFAFEEAF2497249609
:10383000EEADFFAD249780818F32A1F38823C9F0CC
:1038400021E0AE01495C5F4FB701C8010E94D31A65
:10385000882309F4A0CFEC14FD0419F0C7010E94DD
:1038600088190815190569F68E010F5F1F4F73013E
:10387000CACF252DAE01495C5F4FB701C5010E943B
:10388000D31ACD5BDF4F0FB6F894DEBF0FBECDBFAE
:10389000DF91CF911F910F91FF90EF90DF90CF902C
:1038A000BF90AF909F908F907F906F905F900895A2
:1038B000FB01242F6091A0067091A106AF010C942A
:1038C000A51B2F923F924F925F926F927F928F92A1
:1038D0009F92AF92BF92CF92DF92EF92FF920F939F
:1038E0001F93CF93DF93CDB7DEB72A970FB6F89427
:1038F000DEBF0FBECDBF3C01162F072F5E834D8369
:10390000DC0113968C911397813009F038C1119620
:103910008C9181FF34C139C1F30143895489658990
:10392000768983859485A585B68584179507A6072E
:10393000B70729F42D803E80412E502EEBC0C301E5
:103940000E94F0178111F6CF1AC1D30115968D91FF
:103950009C911697FC01B480BA94B901A801E9E0E2
:103960007695679557954795EA95D1F7B4221170EA
:1039700022273327B1104BC00115110509F047C0AC
:1039800017964D915D916D917C911A974115510556
:103990006105710529F19E012F5F3F4F0E940012C2
:1039A000882309F4ECC0C980DA80EB80FC80D30165
:1039B0001596ED91FC9116978789803141F4B8EF07
:1039C000CB16BFEFDB06E104F104A0F419C0E8EF69
:1039D000CE16EFEFDE06EE06EFE0FE0688F00AC038
:1039E000F301C788D08CE18CF28CC114D104E104BE
:1039F000F10431F4C3010E949315811108C0BFC0C6
:103A0000D3011796CD92DD92ED92FC921A97F301B5
:103A10004781508561857285858196810E94E41178
:103A20006B0D711D811D911D0115110521F42114CE
:103A3000F2E03F06C0F520E032E0201B310B7101BF
:103A40002215330508F4790101151105A1F4D301FC
:103A50001B968D909D90AD90BC901E9753962D9186
:103A60003D914D915C91569782169306A406B5063A
:103A700010F045E001C041E00E948F11009709F469
:103A80007EC09C01200F311FA701B201C9010E9415
:103A9000442A0E0D1F1D0115124059F50E94D41124
:103AA000811127C06CC000919A0410919B04209151
:103AB0009C0430919D04061717072807390751F415
:103AC0006F83788789879A870E94D6119A8589851E
:103AD00078856F819201AB01BC0180919304909134
:103AE00094040E94FE1F882309F449C0E12C72E06F
:103AF000F72EF30103851485258536850E0D1F1DD0
:103B0000211D311D03871487258736874E0C5F1CC6
:103B10002E183F08F3010385148525853685211469
:103B2000310409F012CFC388D488E588F688C0161E
:103B3000D106E206F30630F4D301038B148B258BF8
:103B4000368B0BC080919E0690919F06892B59F071
:103B5000ED81FE81EF2B39F0D30111968C911197F5
:103B6000806811968C93F301818183FD03C02D81C0
:103B70003E810EC0C3010E943C198111F8CF81E043
:103B8000D3018C932FEF3FEF03C082FDC5CED2CE81
:103B9000C9012A960FB6F894DEBF0FBECDBFDF91E4
:103BA000CF911F910F91FF90EF90DF90CF90BF903A
:103BB000AF909F908F907F906F905F904F903F90CD
:103BC0002F9008958D3010F4869501C086E0282F3F
:103BD00030E03595279520652CBD80FD03C091E030
:103BE000863009F490E09DBD08958FEF8EBD0DB431
:103BF00007FEFDCF8EB508958EBD0DB407FEFDCF37
:103C0000089561E0FC0180810E9467228FEF0C948F
:103C1000FC1DCF93DF93EC018A810E94E21D60E0DE
:103C20008881DF91CF910C946722CF92DF92EF923F
:103C3000FF920F931F93CF93DF93EC018B017A01D7
:103C40000E945E216B0109C00E945E216C197D09F2
:103C50006D32714010F081E108C00E94F51D8B8328
:103C60008F3F91F38E3F19F08FE0898329C0E114D3
:103C7000F104E1F081E0E81AF1088FEF8EBDF80160
:103C80002FEF06C00DB407FEFDCF8EB52EBD81937C
:103C9000CF01801B910B8E159F05A0F30DB407FE7D
:103CA000FDCF8EB5F801EE0DFF1D80831B820E94B3
:103CB000F51D0E94F51DCE010E94011E81E004C089
:103CC000CE010E94011E80E0DF91CF911F910F91E4
:103CD000FF90EF90DF90CF9008950F931F93CF93B5
:103CE000DF938B010E945E21EB0107C00E945E21E1
:103CF0006C1B7D0B6017710730F40E94F51D8F3F20
:103D0000A9F781E001C080E0DF91CF911F910F9171
:103D10000895FF920F931F93CF93DF9300D000D0AD
:103D2000CDB7DEB78C01F62E29833A834B835C83B3
:103D30000E94091E6CE271E0C8010E946D1E8F2D69
:103D400080640E94FC1D8C810E94FC1D8B810E945E
:103D5000FC1D8A810E94FC1D89810E94FC1DF110BE
:103D600002C085E901C087E80E94FC1D8CE0F812C2
:103D700002C00E94F51DF12C0E94F51DF8018383FD
:103D800087FF05C0FFEFFF1611F0F394F5CF0F90FA
:103D90000F900F900F90DF91CF911F910F91FF9097
:103DA00008950F931F93CF93DF93EC0189018C81CA
:103DB000833039F0E9E0440F551F661F771FEA95FD
:103DC000D1F79A01AB0161E1CE010E94891E8111F8
:103DD0000AC040E052E0B801CE01DF91CF911F91BF
:103DE0000F910C94151E84E08983CE010E94011E60
:103DF00080E0DF91CF911F910F910895AF92BF9214
:103E0000CF92DF92EF92FF920F931F93CF93DF93A6
:103E1000EC01162F1C82198248830E945E215B01EF
:103E200061E088810E942F2261E088810E946722E0
:103E300061E08AE00E94672261E08AE00E942F220E
:103E400060E08CE00E942F2261E08BE00E942F2234
:103E500061E08DE00E942F228BE08A830E94E21DA8
:103E60000AE08FEF0E94FC1D0150D9F709C00E94A3
:103E70005E216A197B09613D774010F081E05BC0EB
:103E800020E030E0A90160E0CE010E94891E81306F
:103E900071F72AEA31E040E050E068E0CE010E948C
:103EA000891E853011F481E009C004E00E94F51DEF
:103EB0008B830150D9F78A3A19F482E08C8309C0C8
:103EC0000E945E216A197B09613D774010F382E010
:103ED00032C08C81823031F4C12CD12CE12CF0E441
:103EE000FF2E0DC0C12CD12C760109C00E945E218D
:103EF0006A197B09613D774010F08AE01CC020E020
:103F000030E0A90167E3CE010E94891EA701960156
:103F100069E2CE010E94891E8111E8CF8C81823036
:103F2000C9F420E030E0A9016AE3CE010E94891EB5
:103F3000882319F088E0898318C00E94F51D807CD1
:103F4000803C11F483E08C830E94F51D0E94F51DD6
:103F50000E94F51DCE010E94011E1F3018F088E15D
:103F6000898306C01A8381E004C0CE010E94011E2D
:103F700080E0DF91CF911F910F91FF90EF90DF9044
:103F8000CF90BF90AF9008950F931F93CF93DF937F
:103F9000EC01862F8A010E94FC1DF80180818EBDF4
:103FA000818122E030E00DB407FEFDCF8EBD2115EA
:103FB000F2E03F0739F0F801E20FF31F80812F5F35
:103FC0003F4FF1CF0DB407FEFDCF8FEF0E94FC1DD8
:103FD0008FEF0E94FC1D0E94F51D8B838F71853031
:103FE00039F083E18983CE010E94011E80E001C087
:103FF00081E0DF91CF911F910F9108950F931F934F
:10400000CF93DF93EC0189018C81833039F089E013
:10401000440F551F661F771F8A95D1F79A01AB0190
:1040200068E1CE010E94891E882311F086E029C034
:10403000A8016EEFCE010E94C41F8823B9F068E585
:1040400072E0CE010E946D1E811102C087E119C08D
:1040500020E030E0A9016DE0CE010E94891E8111AF
:104060000FC00E94F51D81110BC005C0CE010E943A
:10407000011E80E008C0CE010E94011E81E003C045
:1040800086E18983F3CFDF91CF911F910F9108953E
:10409000CF93DF93EC01662329F083969093A106DA
:1040A0008093A0068EA1882321F0CE0183960E94E2
:1040B0008819BE016B5F7F4FCE018396DF91CF9150
:1040C0000C94F2180F931F93CF93DF93EC01842F7E
:1040D000462F682FCE010E94FE1E8823C9F08E0154
:1040E0000B5F1F4F41E0BE01C8010E94641488238A
:1040F00041F061E0CE01DF91CF911F910F910C94BF
:10410000482040E0BE01C8010E9464148111F1CF33
:1041100080E0DF91CF911F910F910895CF93DF93AE
:104120001F92CDB7DEB7698341E050E0BE016F5FFB
:104130007F4F04960E94611C21E030E0019711F04E
:1041400020E030E0C9010F90DF91CF9108950496EF
:104150000C94611C823068F4813011F0E89801C041
:10416000E998E82FF0E0EE0FFF1FEE55F94F1182AE
:10417000108208951F920F920FB60F9211242F9361
:104180003F934F935F936F937F938F939F93AF93DF
:10419000BF93EF93FF938091A2069091A306892B82
:1041A00029F0E091A206F091A3060995FF91EF9105
:1041B000BF91AF919F918F917F916F915F914F913F
:1041C0003F912F910F900FBE0F901F9018951F9247
:1041D0000F920FB60F9211242F933F934F935F933B
:1041E0006F937F938F939F93AF93BF93EF93FF93BF
:1041F0008091A4069091A506892B29F0E091A40650
:10420000F091A5060995FF91EF91BF91AF919F9114
:104210008F917F916F915F914F913F912F910F906F
:104220000FBE0F901F9018951F920F920FB60F920E
:1042300011242F933F938F939F93AF93BF938091BC
:10424000A6069091A706A091A806B091A906309164
:10425000AE06232F2D5F2D3720F40196A11DB11D31
:1042600005C0232F2A570296A11DB11D2093AE062B
:104270008093A6069093A706A093A806B093A906DC
:104280008091AA069091AB06A091AC06B091AD06C4
:104290000196A11DB11D8093AA069093AB06A09331
:1042A000AC06B093AD06BF91AF919F918F913F91B6
:1042B0002F910F900FBE0F901F9018950F931F9383
:1042C0008FB7F8940091A6061091A7062091A80632
:1042D0003091A9068FBFB801C9011F910F910895B0
:1042E0000F931F939FB7F8940091AA061091AB0605
:1042F0002091AC063091AD0686B5A89B06C08F3FD5
:1043000021F00F5F1F4F2F4F3F4F9FBF322F212FA5
:10431000102F0027080F111D211D311D42E0000F35
:10432000111F221F331F4A95D1F7B801C9011F91F0
:104330000F910895CF92DF92EF92FF92CF93DF9388
:104340006B017C010E947021EB010EC00E94702164
:104350006C1B7D0B683E734038F081E0C81AD108B1
:10436000E108F108C851DC4FC114D104E104F104A3
:1043700069F7DF91CF91FF90EF90DF90CF90089594
:10438000019739F0880F991F880F991F029701979D
:10439000F1F70895789484B5826084BD84B5816016
:1043A00084BD85B5826085BD85B5816085BDEEE63D
:1043B000F0E0808181608083E1E8F0E0108280811C
:1043C00082608083808181608083E0E8F0E080818A
:1043D00081608083E1EBF0E0808184608083E0EBAA
:1043E000F0E0808181608083EAE7F0E08081846092
:1043F00080838081826080838081816080838081EE
:10440000806880831092C1000895833069F028F499
:104410008130A1F0823011F514C08630B1F08730C0
:10442000C1F08430D9F404C0809180008F7703C03C
:10443000809180008F7D80938000089584B58F7770
:1044400002C084B58F7D84BD08958091B0008F77C0
:1044500003C08091B0008F7D8093B0000895CF930A
:10446000DF9390E0FC01E054FF4F4491FC01EC52DB
:10447000FF4F8491882341F190E0880F991FFC0140
:10448000E450FF4F25913491D9018E509F4FFC018C
:1044900085919491C82FD92F9FB7F8948C91611171
:1044A00006C0409584238C938881842308C06230A1
:1044B00041F4242F209582238C938881842B888338
:1044C00002C0842B8C939FBFDF91CF9108950F93EF
:1044D0001F93CF93DF931F92CDB7DEB7282F30E025
:1044E000F901E455FF4F8491F901E054FF4F149115
:1044F000F901EC52FF4F04910023D1F0882321F001
:1045000069830E9405226981E02FF0E0EE0FFF1F12
:10451000EE50FF4F85919491DC019FB7F8948C91F8
:10452000611103C01095812301C0812B8C939FBF23
:104530000F90DF91CF911F910F910895CF93DF934B
:10454000282F30E0F901E455FF4F8491F901E05440
:10455000FF4FD491F901EC52FF4FC491CC2389F065
:1045600081110E940522EC2FF0E0EE0FFF1FE851B1
:10457000FF4F85919491DC018C918D2321E030E0F7
:1045800011F420E030E0C901DF91CF9108951F932D
:10459000CF93DF93182FEB0161E00E942F22209729
:1045A00011F460E004C0CF3FD10539F461E0812F00
:1045B000DF91CF911F910C946722E12FF0E0E45539
:1045C000FF4FE491E330B9F028F4E13051F0E230EC
:1045D000B1F50CC0E63019F1E73049F1E43079F576
:1045E00014C084B5806884BDC7BD2EC084B5806208
:1045F00084BDC8BD29C08091800080688093800000
:10460000D0938900C09388001FC080918000806291
:1046100080938000D0938B00C0938A0015C0809156
:10462000B00080688093B000C093B3000DC080914B
:10463000B00080628093B000C093B40005C0C03861
:10464000D1050CF0B3CFADCFDF91CF911F9108957D
:104650000E94CA210E944910C6E6D6E20E94690F54
:104660002097E1F30E946626F9CFCF92DF92EF9276
:10467000FF920F931F93CF93DF936C01EB017A01AD
:10468000E60EF71E00E010E00BC06991D601ED9137
:10469000FC910190F081E02DC6010995080F191FCA
:1046A000CE15DF0591F7C801DF91CF911F910F91D2
:1046B000FF90EF90DF90CF900895DB010D900020E8
:1046C000E9F7AD0141505109461B570BDC01ED9153
:1046D000FC910280F381E02D09940C945D23DC01B0
:1046E000ED91FC910190F081E02D09940F931F93BF
:1046F000CF93DF93EC016DE00E946F238C016AE0A1
:10470000CE010E946F239C01200F311FC901DF9150
:10471000CF911F910F9108950F931F93CF93DF9324
:10472000EC010E945D238C01CE010E94762398014A
:10473000280F391FC901DF91CF911F910F91089563
:104740005F926F927F928F929F92AF92BF92CF9221
:10475000DF92EF92FF920F931F93CF93DF93CDB72A
:10476000DEB7A1970FB6F894DEBF0FBECDBF3C01F8
:104770006A017B01522E19A281E0821710F08AE0B3
:10478000582E8E010F5D1F4F852C912CA12CB12C22
:10479000C701B601A50194010E94032A8C2D529EE7
:1047A00080191124015011098A3014F4805D01C070
:1047B000895CF801808369017A01C114D104E104A4
:1047C000F10431F7B801C3010E945D23A1960FB631
:1047D000F894DEBF0FBECDBFDF91CF911F910F9137
:1047E000FF90EF90DF90CF90BF90AF909F908F9011
:1047F0007F906F905F9008952115310541F4DC01A1
:10480000ED91FC910190F081E02D642F09940C94BE
:10481000A0230F931F93CF93DF93EC010E94FC23FF
:104820008C01CE010E9476239C01200F311FC9010B
:10483000DF91CF911F910F9108959A01AB0160E034
:1048400070E00C94FC230F931F93CF93DF93EC0144
:104850009A01AB0160E070E00E94FC238C01CE0164
:104860000E9476239801280F391FC901DF91CF914B
:104870001F910F9108950F931F93CF93DF93EC0136
:104880009A01462F50E060E070E00E94FC238C010A
:10489000CE010E9476239801280F391FC901DF91AC
:1048A000CF911F910F910895CF92DF92EF92FF92D7
:1048B0000F931F93CF93DF93EC016A017B012115C6
:1048C000310579F4E881F9810190F081E02D642FC0
:1048D000DF91CF911F910F91FF90EF90DF90CF90DC
:1048E00009942A30310519F477FD0EC02AE0B7018A
:1048F000A601CE01DF91CF911F910F91FF90EF9014
:10490000DF90CF900C94A0236DE20E946F238C0166
:1049100044275527BA014C195D096E097F092AE021
:10492000CE010E94A0239C01200F311FC901DF91FD
:10493000CF911F910F91FF90EF90DF90CF9008954E
:104940000F931F93CF93DF93EC010E9454248C01AB
:10495000CE010E9476239C01200F311FC901DF91F7
:10496000CF911F910F9108959A01AB01662757FDD2
:104970006095762F0C9454240F931F93CF93DF935D
:10498000EC019A01AB01662757FD6095762F0E94D6
:1049900054248C01CE010E9476239801280F391FE0
:1049A000C901DF91CF911F910F9108954F925F92AE
:1049B0006F927F928F929F92AF92BF92CF92DF922F
:1049C000EF92FF920F931F93CF933C014A015B013B
:1049D000C22F20E030E0A901C501B4010E94DF2709
:1049E00087FF0AC06DE2C3010E946F232C01B7FA52
:1049F000B094B7F8B09402C0412C512C10E060E0A4
:104A000070E080E09FE307C020E030E040E251E446
:104A10000E94E3271F5F1C13F7CF262F372F482F45
:104A2000592FC501B4010E947B27962EA72EB82EC0
:104A3000C92E0E945028D62EE72EF82E192F0E943C
:104A40007C289B01AC01692D7A2D8B2D9C2D0E9419
:104A50007A27C62EB72EA82E992E2AE04D2D5E2D30
:104A60006F2D712FC3010E94A0238C01040D151D11
:104A7000CC23B9F160E671E0C3010E945D23080F09
:104A8000191F2FC020E030E040E251E46C2D7B2D57
:104A90008A2D992D0E9432294B015C01792D9B2D85
:104AA0000E944B286B01EE24D7FCE094FE2C2AE0F8
:104AB00030E0B701A601C3010E945424080F191F5A
:104AC000C701B6010E947E289B01AC01682D792D9B
:104AD0008A2D9B2D0E947A27C62EB72EA82E992E9E
:104AE000C150C111CFCFC801CF911F910F91FF903D
:104AF000EF90DF90CF90BF90AF909F908F907F907E
:104B00006F905F904F9008950C94D6240F931F934D
:104B1000CF93DF93EC010E94D6248C01CE010E943A
:104B200076239801280F391FC901DF91CF911F917A
:104B30000F910895FC0184859585FC01E05CFF4F91
:104B400020813181FC01EE5BFF4F80819181281B28
:104B5000390B2F733327C9010895FC01848595858E
:104B6000FC01E05CFF4F40815181FC01EE5BFF4F97
:104B7000208131814217530741F00190F081E02DEF
:104B8000E80FF91F208130E002C02FEF3FEFC9018D
:104B90000895FC0184859585FC01E05CFF4F408110
:104BA0005181FC01EE5BFF4F208131814217530799
:104BB00071F0A081B181A80FB91F2C9180819181E2
:104BC00001968F7399279183808330E002C02FEF85
:104BD0003FEFC9010895FC0186859785FC01E05CE3
:104BE000FF4FDC01AE5BBF4F408151812D913C9165
:104BF000119742175307C1F70895CF93DF93FC0134
:104C000026853785D901A05CBF4F8D919C91119766
:104C100001968F739927E901CE5BDF4F4881598157
:104C200084179507D9F30D90BC91A02DA20FB31F47
:104C30006C93A685B785A05CBF4F11969C938E930D
:104C4000A689B7892C9181E090E0058C02C0880F7D
:104C5000991F0A94E2F7282B2C9381E090E0DF91D2
:104C6000CF91089508951F920F920FB60F921124BD
:104C70002F933F934F938F939F93EF93FF93409185
:104C8000C600809152079091530701968F73992720
:104C900020915407309155078217930759F0E091FE
:104CA0005207F0915307EE5EF84F408390935307FD
:104CB00080935207FF91EF919F918F914F913F9178
:104CC0002F910F900FBE0F901F9018958FEA96E0CE
:104CD0000E949A25892B11F00C94322608951F9278
:104CE0000F920FB60F9211242F933F938F939F93A0
:104CF000EF93FF9320910E0730910F0780911007DB
:104D0000909111072817390731F48091C1008F7DE8
:104D10008093C10014C0E0911007F0911107E25395
:104D2000F94F2081809110079091110701968F73A0
:104D3000992790931107809310072093C600FF9145
:104D4000EF919F918F913F912F910F900FBE0F90F8
:104D50001F901895CF92DF92EF92FF92CF93DF933F
:104D6000EC016A017B01411581EE5807610571056F
:104D7000F9F0EC89FD8981E090E00E8C02C0880F8B
:104D8000991F0A94E2F7808360E079E08DE390E078
:104D9000A70196010E94032A2150310941095109B6
:104DA0005695479537952795211580E1380798F056
:104DB000EC89FD89108260E874E88EE190E0A7013B
:104DC00096010E94032A2150310941095109569543
:104DD000479537952795E889F9893083EA89FB89D2
:104DE0002083EE89FF89408181E090E09C010A8C5C
:104DF00002C0220F331F0A94E2F7422B4083EE8950
:104E0000FF8940819C010B8C02C0220F331F0A9442
:104E1000E2F7422B4083EE89FF8940819C010C8C94
:104E200002C0220F331F0A94E2F7422B4083EE891F
:104E3000FF8920810D8C02C0880F991F0A94E2F728
:104E4000809582238083DF91CF91FF90EF90DF9058
:104E5000CF9008951092B2061092B10688EE93E0BA
:104E6000A0E0B0E08093B3069093B406A093B5069B
:104E7000B093B6068EEC93E09093B0068093AF06A5
:104E800082E197E09093BC068093BB068EEC96E09F
:104E90009093BE068093BD0685EC90E09093C0068B
:104EA0008093BF0684EC90E09093C2068093C10685
:104EB00080EC90E09093C4068093C30681EC90E070
:104EC0009093C6068093C50686EC90E09093C80642
:104ED0008093C70684E08093C90683E08093CA0666
:104EE00087E08093CB0685E08093CC0681E08093B9
:104EF000CD0608955058BB27AA270ED075C166D19C
:104F000030F06BD120F031F49F3F11F41EF45BC1FF
:104F10000EF4E095E7FB51C1E92F77D180F3BA1782
:104F2000620773078407950718F071F49EF58FC127
:104F30000EF4E0950B2EBA2FA02D0B01B9019001B4
:104F40000C01CA01A0011124FF27591B99F0593FF8
:104F500050F4503E68F11A16F040A22F232F342F40
:104F60004427585FF3CF469537952795A795F0408E
:104F70005395C9F77EF41F16BA0B620B730B840BA3
:104F8000BAF09150A1F0FF0FBB1F661F771F881F5B
:104F9000C2F70EC0BA0F621F731F841F48F48795B3
:104FA00077956795B795F7959E3F08F0B3CF9395A2
:104FB000880F08F09927EE0F979587950895D9D017
:104FC00008F481E008950CD00FC107D140F0FED065
:104FD00030F021F45F3F19F0F0C0511139C1F3C036
:104FE00014D198F39923C9F35523B1F3951B550BAD
:104FF000BB27AA2762177307840738F09F5F5F4FAC
:10500000220F331F441FAA1FA9F333D00E2E3AF0EC
:10501000E0E830D091505040E695001CCAF729D006
:10502000FE2F27D0660F771F881FBB1F2617370755
:105030004807AB07B0E809F0BB0B802DBF01FF2785
:1050400093585F4F2AF09E3F510568F0B6C000C1EB
:105050005F3FECF3983EDCF3869577956795B795BF
:10506000F7959F5FC9F7880F911D9695879597F9DA
:105070000895E1E0660F771F881FBB1F6217730753
:105080008407BA0720F0621B730B840BBA0BEE1F68
:1050900088F7E095089504D06894B111D9C00895B7
:1050A000BCD088F09F5790F0B92F9927B751A0F046
:1050B000D1F0660F771F881F991F1AF0BA95C9F7AC
:1050C00012C0B13081F0C3D0B1E00895C0C0672FE5
:1050D000782F8827B85F39F0B93FCCF3869577955C
:1050E0006795B395D9F73EF4909580957095619545
:1050F0007F4F8F4F9F4F0895E89409C097FB3EF470
:1051000090958095709561957F4F8F4F9F4F992314
:10511000A9F0F92F96E9BB279395F6958795779592
:105120006795B795F111F8CFFAF4BB0F11F460FF52
:105130001BC06F5F7F4F8F4F9F4F16C0882311F0AA
:1051400096E911C0772321F09EE8872F762F05C0BE
:10515000662371F096E8862F70E060E02AF09A9559
:10516000660F771F881FDAF7880F9695879597F94E
:105170000895990F0008550FAA0BE0E8FEEF1616E8
:105180001706E807F907C0F012161306E407F5073B
:1051900098F0621B730B840B950B39F40A2661F0AF
:1051A000232B242B252B21F408950A2609F4A14052
:1051B000A6958FEF811D811D089597F99F6780E85F
:1051C00070E060E008959FEF80EC089500240A9459
:1051D0001616170618060906089500240A941216D2
:1051E0001306140605060895092E0394000C11F405
:1051F000882352F0BB0F40F4BF2B11F460FF04C0B2
:105200006F5F7F4F8F4F9F4F089557FD9058440F0A
:10521000551F59F05F3F71F04795880F97FB991F15
:1052200061F09F3F79F087950895121613061406D2
:10523000551FF2CF4695F1DF08C01616170618065F
:10524000991FF1CF86957105610508940895E8943A
:10525000BB2766277727CB0197F908958ADF08F4E3
:105260008FEF08950BD0C0CFB1DF28F0B6DF18F074
:10527000952309F0A2CFA7CF1124EACFC6DFA0F370
:10528000959FD1F3950F50E0551F629FF001729FDB
:10529000BB27F00DB11D639FAA27F00DB11DAA1FFA
:1052A000649F6627B00DA11D661F829F2227B00D47
:1052B000A11D621F739FB00DA11D621F839FA00DD2
:1052C000611D221F749F3327A00D611D231F849F22
:1052D000600D211D822F762F6A2F11249F57504079
:1052E0008AF0E1F088234AF0EE0FFF1FBB1F661F14
:1052F000771F881F91505040A9F79E3F510570F0CD
:105300005CCFA6CF5F3FECF3983EDCF386957795B4
:105310006795B795F795E7959F5FC1F7FE2B880FC7
:10532000911D9695879597F9089511F40EF44BCF3A
:105330003EC073DFD0F39923D9F3CEF39F57550BBB
:1053400087FF43D00024A0E640EA9001805856959C
:10535000979528F4805C660F771F881F20F026172A
:105360003707480730F4621B730B840B202931295F
:105370004A2BA69517940794202531254A2758F7DC
:10538000660F771F881F20F026173707480730F46D
:10539000620B730B840B200D311D411DA09581F70D
:1053A000B901842F9158880F9695879508959F3F4E
:1053B00031F0915020F4879577956795B795880FD0
:1053C000911D9695879597F9089591505040660FD5
:1053D000771F881FD2F70895A29FB001B39FC00125
:1053E000A39F01D0B29F700D811D1124911D0895BE
:1053F0000E94EC29A59F900DB49F900DA49F800D55
:10540000911D11240895A1E21A2EAA1BBB1BFD01B8
:105410000DC0AA1FBB1FEE1FFF1FA217B307E40793
:10542000F50720F0A21BB30BE40BF50B661F771FEB
:10543000881F991F1A9469F76095709580959095CB
:105440009B01AC01BD01CF010895EE0FFF1F059038
:10545000F491E02D0994662777270C94632A911123
:1054600089C1803219F089508550D0F70895FB0129
:10547000DC0104C08D910190801921F4415050400D
:10548000C8F7881B990B0895FB01DC0102C001904D
:105490000D9241505040D8F70895F999FECF92BD32
:1054A00081BDF89A992780B50895262FF999FECFE6
:1054B0001FBA92BD81BD20BD0FB6F894FA9AF99A31
:1054C0000FBE01960895A0E0B0E0E9E6FAE20C9480
:1054D000DB2B8B016115710519F0FB018083918332
:1054E0007C01F701C1907F01EF018C2D90E00E94BB
:1054F0002F2A892BB1F7FDE2CF1204C0C990DD2419
:10550000D39405C02BE2C21201C0C990D12C7E01F8
:1055100041E0E41AF10843E050E066E071E0C701C1
:105520000E94BD2B892BE9F47E0182E0E80EF11C7C
:1055300045E050E069E071E0C7010E94BD2B892B76
:1055400021F47E01E7E0EE0EF11C0115110519F0C2
:10555000F801F182E08210E0D0E0C0E8D110FBC099
:10556000FFC043E050E06EE071E0C7010E94BD2B38
:10557000892B49F40115110509F4EFC02296F801B1
:10558000D183C083EAC060E070E0CB01E12CF12C54
:10559000EC2DE053EA3048F5FD2DF2602D2D2870FA
:1055A000D2FE06C0211127C02FEFE21AF20A23C053
:1055B000222319F041E0E41AF108A5E0B0E09B01D4
:1055C000AC010E94F829660F771F881F991F6E0F84
:1055D000711D811D911D6839E9E97E078E07E9E19A
:1055E0009E0748F0FD2DF66006C0EE3F39F4D3FC6F
:1055F0003DC0FD2DF860C990DF2ECACFE53311F014
:10560000E531A1F5A881AD3219F4F0E1DF2A06C039
:10561000AB3221F0219621E030E004C0A98122962E
:1056200022E030E0A053AA3018F0C21BD30B1EC0FA
:10563000FE0120E030E020384CE034075CF4A901A2
:10564000440F551F440F551F240F351F220F331FC2
:105650002A0F311DA191A053EF01AA3060F3D4FEAF
:1056600003C0319521953109E20EF31ED1FE07C02A
:105670000115110521F02197F801D183C0830E9403
:105680007C282D2D2370233029F0162FD72FC82FDB
:10569000092F07C0DC01CB01B058182FD92FCA2F12
:1056A0000B2F20E030E0A901612F7D2F8C2F902F50
:1056B0000E94DF27882309F454C0F7FE08C0F19444
:1056C000E194F1083DE3C32E31E0D32E04C025E27E
:1056D000C22E21E0D22E4601F8E18F1A910890E205
:1056E000A92EB12C15C0F601459155916591749183
:1056F000242F352F462F572F612F7D2F8C2F902F42
:105700000E943229162FD72FC82F092FEA18FB081D
:10571000EA14FB0444F724E0C21AD108B594A79414
:10572000C814D904A9F7612F7D2F8C2F902F282F13
:10573000220F292F221F2F3F39F020E030E0A9014E
:105740000E94DF2781110DC082E290E090935707FD
:105750008093560706C00FEF04C010E0D0E0C0EC05
:105760000FE7612F7D2F8C2F902FCDB7DEB7ECE0A8
:105770000C94F72B992788270895FB01DC014150F1
:10578000504088F08D9181341CF08B350CF4805E94
:10579000659161341CF06B350CF4605E861B611101
:1057A00071F3990B0895881BFCCF2F923F924F9273
:1057B0005F926F927F928F929F92AF92BF92CF92A1
:1057C000DF92EF92FF920F931F93CF93DF93CDB7AA
:1057D000DEB7CA1BDB0B0FB6F894DEBF0FBECDBF22
:1057E00009942A88398848885F846E847D848C84F3
:1057F0009B84AA84B984C884DF80EE80FD800C81FC
:105800001B81AA81B981CE0FD11D0FB6F894DEBFDE
:0C5810000FBECDBFED010895F894FFCF4E
:10581C000200736420696E697400736420696E6998
:10582C0074206661696C656400646F6E6500636FFB
:10583C006D6D616E64732E747874006F70656E207C
:10584C00666F72207772697465206661696C656435
:10585C000074657374312E747874005772697469AE
:10586C006E6720746F20746573742E7478742E2E8A
:10587C002E00646F6E652E006F70656E20666F7201
:10588C002072656164206661696C6564007465737F
:10589C00742E7478743A006C696E65733A200070DB
:1058AC00776D4C203D200070776D52203D20006CB0
:1058BC006F7720706F776572206D6F64650064651B
:1058CC006661756C7420706F776572206D6F64659E
:1058DC0000736574206D73313A2000736574206D0C
:1058EC0073323A20007365742073706565643A00F6
:1058FC0073657420616363656C3A20006C65667433
:10590C00206C696D697420726561636865640072EE
:10591C0069676874206C696D69742072656163686D
:10592C006564006E6F74206D6F76696E67207468A5
:10593C00657265006D6F76656420007374657073B5
:10594C002E20486F77206D616E79206D6D3F002C95
:10595C0000636F6E666967207570646174656400BE
:10596C006E6F7420656E6F756768206279746573ED
:10597C002C206E65656465642000676F7420007070
:10598C00656E20646F776E0070656E2075700070A8
:10599C00656E3A20646F776E0070656E3A20757094
:1059AC00006E6F742063616C69627261746564006F
:1059BC006F6B00613120616E642062312075706400
:1059CC006174656400783A20006D6D2C2000793A82
:1059DC002000613120286E6F2068616E6765722926
:1059EC003A2000623120286E6F2068616E67657204
:1059FC00293A2000636D647320657865637475744F
:105A0C0065643A2000757365726164696F00737424
:105A1C006F72696E672073756273657175656E74EC
:105A2C0020636F6D6D616E6473006C696E652074BC
:105A3C007365743A200073746570735065724D4DC4
:105A4C003A2000773A2000683A2000746F70206D7D
:105A5C00617267696E3A200073696465206D6172CA
:105A6C0067696E3A200064657461636820696E74BE
:105A7C0065720062616420636F6D6D616E640072AB
:105A8C00756E2E2E007265616420636F6D6D616E94
:105A9C0064733A200066696E697368656420737478
:105AAC006F72696E670073746F72696E6720636FD3
:105ABC006D6D616E643A00737461727465642C2050
:105ACC00726F626F742069643A000000000030113C
