:100000000C94A6010C948F210C94BC210C94CE016D
:100010000C94CE010C94CE010C94CE010C94CE0124
:100020000C94CE010C94CE010C940F2B0C94E3296C
:100030000C94CE010C94CE010C94CE010C94CE0104
:100040000C94CE010C94CE010C94CE010C94CE01F4
:100050000C94CE010C94CE010C94CE010C94E921A9
:100060000C94CE010C94CE010C94CE010C94CE01D4
:100070000C94CE010C94CE010C94CE010C94CE01C4
:100080000C94CE010C94CE010C94CE010C94CE01B4
:100090000C94CE010C94CE010C94CE010C94CE01A4
:1000A0000C94CE010C94CE010C94CE01EE0CF80C05
:1000B000FB0C2E0D340D740D930D950D9F0DA20D9F
:1000C000B00FAB0DB00FB00FBE0DE50DDF0EE20EA1
:1000D000FA0E110FB00F830F8F0F9B0FAD0F7C3CEB
:1000E0003E5E2B3D3F2F5B5D3B2C2A225C000000D7
:1000F000000200080E0000030401000B00000408C9
:10010000020110408040102040804080080204011D
:10011000804020100201108010204040040404049C
:10012000040304050202020204030202020206069C
:100130000606060604040202020400000000230072
:10014000260029002C002F000000000025002800B8
:100150002B002E00310000000000240027002A00A0
:100160002D003000080B000202020100090400000B
:100170000102020000052400100105240101010410
:10018000240206052406000107058103100040092A
:10019000040100020A0000000705020240000007F7
:1001A00005830240000000C18081C11201000202EB
:1001B00000004041233680000101020001120100CD
:1001C00002000000404123368000010102000118B6
:1001D00003410072006400750069006E006F00202A
:1001E000004C004C00430022034100720064007583
:1001F0000069006E006F0020004C0065006F006E0B
:10020000006100720064006F000403090400000034
:1002100000000000002A2B28000000000000000061
:10022000000000000000000000000000002C9EB450
:10023000A0A1A2A434A6A7A5AE362D3738271E1F2D
:1002400020212223242526B333B62EB7B89F8485D8
:10025000868788898A8B8C8D8E8F909192939495C6
:10026000969798999A9B9C9D2F3130A3AD350405A4
:10027000060708090A0B0C0D0E0F101112131415A6
:10028000161718191A1B1C1DAFB1B0B500090402CE
:10029000000103000000092101010001226500079F
:1002A00005840340000105010902A1010901A10023
:1002B000850105091901290315002501950375011B
:1002C000810295017505810305010930093109385D
:1002D0001581257F750895038106C0C005010906B3
:1002E000A1018502050719E029E71500250175011F
:1002F000950881029501750881039506750815001A
:1003000025650507190029658100C0494E46494EFB
:100310004954594E414E000020410000C84200405F
:100320001C4620BCBE4CCA1B0E5AAEC59D74CDCC1B
:10033000CC3D0AD7233C17B7D13877CC2B329595D3
:10034000E6241FB14F0AAF11AF25C42C11241FBEE4
:10035000CFEFDAE0DEBFCDBF13E0A0E0B1E0EAEC22
:10036000F2E602C005900D92A03EB107D9F717E062
:10037000A0EEB3E001C01D92AF31B107E1F713E089
:10038000CCE4D3E004C02297FE010E947E2FC63445
:10039000D107C9F70E94A9240C9463310C94000082
:1003A0002F923F924F925F926F927F928F929F9285
:1003B000AF92BF92CF92DF92EF92FF920F931F9373
:1003C000CF93DF9300D000D0CDB7DEB72B01BC01B7
:1003D000882777FD8095982F0E94D52D8B018C83DF
:1003E0009B83C0906F04D0907004E0907104F090F3
:1003F00072042091860430918704409188045091C2
:100400008904C701B6010E94892E3B0189839A8322
:100410002091790430917A0440917B0450917C04BE
:10042000C701B6010E94892EF980EA80262D372D5A
:100430004F2D5E2D0E94D12C4B015C01B20188270B
:1004400077FD8095982F0E94D52D1B012C019C8152
:100450008B81202F312F492F582FFC01602F712FB6
:100460008F2F9E2F0E94892E6B017C01282D392D04
:100470004A2D5B2D682D792D8A2D9B2D0E94892E6A
:100480009B01AC01C701B6010E94D22C6B017C011B
:10049000222D332D442D552D622D732D842D952D18
:1004A0000E94892E9B01AC01C701B6010E94D12C8C
:1004B0006B017C019C818B81202F312F492F582F7C
:1004C000FC01602F712F8F2F9E2F0E94D22C282D80
:1004D000392D4A2D5B2D0E94892E9B01AC01C7014D
:1004E000B6010E943A2D4B015C019C818B81202F2B
:1004F000312F492F582F682D792D8A2D9B2D0E9441
:10050000892E6B017C0120E030E040E05FE3598000
:100510004A80662D772D852D942D0E94892E9B0172
:10052000AC01C701B6010E94D22C0E94A22D70938B
:10053000590460935804282D392D4A2D5B2D682DC0
:10054000792D8A2D9B2D0E94892E9B01AC0160E0A4
:1005500070E080E89FE30E94D12C0E94F02EFC8185
:10056000EB81202F312F4F2F5E2F0E94892E0E946A
:10057000A22D70935704609356040F900F900F9024
:100580000F90DF91CF911F910F91FF90EF90DF902F
:10059000CF90BF90AF909F908F907F906F905F9023
:1005A0004F903F902F90089560E087E10E94912343
:1005B0001EBC0DB407FEFDCF8EB561E087E10C9443
:1005C00091236CE071E085EB96E00E941D2648E0E7
:1005D00066E18FEF93E00E943721811103C064E14F
:1005E00071E002C063E271E085EB96E00C941D2699
:1005F000F89480913E0490913F04892B11F443E5D7
:1006000001C043E668E271E084EE93E00E942D1D94
:10061000811108C065E371E085EB96E00E941D261C
:10062000789408954AE050E063E474E080EE93E04B
:100630000E947C2184EE93E00E945D1A78940E94CF
:10064000D40263E271E085EB96E00C941D26CF9313
:10065000DF93EC01F89443E66BE471E084EE93E001
:100660000E942D1D811108C065E371E085EB96E0C5
:100670000E941D2678941CC065E571E085EB96E02C
:100680000E94FE254AE050E0BE0180EE93E00E9409
:100690004D2784EE93E00E945D1A6CE671E085EBD5
:1006A00096E00E941D267894DF91CF910C94D4029D
:1006B000DF91CF910895CF92DF92EF92FF92F8945D
:1006C00041E06BE471E084EE93E00E942D1D811106
:1006D00008C062E771E085EB96E00E941D267894E1
:1006E0004AC067E871E085EB96E00E941D26C12CA8
:1006F000D12C760105C08FEFC81AD80AE80AF80A8B
:1007000084EE93E00E946F1818161906A4F3C7012F
:10071000B601882799270E94D32D609345047093D2
:1007200046048093470490934804B701882799278B
:100730000E94D32D6093490470934A0480934B0424
:1007400090934C0461E971E085EB96E00E94FE25F0
:100750002AE030E0B701A60185EB96E00E949A26D8
:1007600084EE93E00E945D1A7894FF90EF90DF9002
:10077000CF900C94D402FF90EF90DF90CF9008952B
:10078000682F85E10C949123CF93DF93EC0180E0F7
:100790000E94C003BE01882777FD8095982F0E9494
:1007A0006F2281E0DF91CF910C94C00382E090E052
:1007B0000E94C40362E370E080E090E00E946F2238
:1007C00082E090E00E94C40364EF71E080E090E07A
:1007D0000C946F2282E090E00E94C40364E670E013
:1007E00080E090E00E946F2282E090E00E94C403CB
:1007F00064EF71E080E090E00C946F2281E00E9451
:10080000C00368EE73E080E090E00E946F220C94D9
:10081000EA03CF93DF93EC01BC018AE00E94F1234D
:1008200069E971E085EB96E00E94FE254AE050E020
:10083000BE0185EB96E0DF91CF910C944D27CF93CD
:10084000DF93EC01BC018BE00E94F12361EA71E0CF
:1008500085EB96E00E94FE254AE050E0BE0185EB64
:1008600096E0DF91CF910C944D27CF93DF93EC016D
:100870000E940904CE01DF91CF910C941F0481E006
:1008800080934D0480918C0490918D040E943504D6
:1008900069EA71E085EB96E00C941D26813011F435
:1008A0000C943F0410924D0480918A0490918B0423
:1008B0000E94350468EB71E085EB96E00C941D26F0
:1008C0008130910511F460E004C08230910541F45B
:1008D00061E088E00E94912360E089E00C9491231C
:1008E0008430910511F460E003C0089731F461E0B1
:1008F00088E00E94912361E0F0CF6BEC71E085EB22
:1009000096E00C941D26CF93DF93EC0190930101A8
:100910008093000163EE71E085EB96E00E94FE2576
:100920004AE050E0BE0185EB96E0DF91CF910C9458
:100930004D2780918A0490918B040E943504809108
:100940009404909195040E94830480919604909160
:1009500097040C9460045C985B985B9A08955C9A89
:100960005B985B9A0895EF92FF920F931F93CF933A
:10097000DF93EC0180914D04882319F080E00E9400
:100980004E0400E010E0EE24FF24EC1AFD0A10C033
:100990001C161D061CF40E94AB0402C00E94AF048A
:1009A00080910001909101010E9495220F5F1F4FDD
:1009B000CE01D7FDC7010817190754F3DF91CF9176
:1009C0001F910F91FF90EF9008955A9A5998599A54
:1009D00008955A985998599A0895EF92FF920F9353
:1009E0001F93CF93DF93EC0180914D04882319F07E
:1009F00080E00E944E0400E010E0EE24FF24EC1A98
:100A0000FD0A10C01C161D061CF40E94E50402C05D
:100A10000E94E90480910001909101010E949522B9
:100A20000F5F1F4FCE01D7FDC7010817190754F3F9
:100A3000DF91CF911F910F91FF90EF900895CF9389
:100A4000DF93C0E0D0E009C08FEF9FEF0E94B304B6
:100A50008FEF9FEF0E94ED04219685E00E94C8234E
:100A6000892B91F36EEE71E085EB96E00E941D26D6
:100A7000CE01DF91CF910895CF93DF93C0E0D0E016
:100A800009C081E090E00E94B3048FEF9FEF0E94C5
:100A9000ED0421968DE00E94C823892B91F361E03B
:100AA00072E085EB96E00E941D26CE01DF91CF918A
:100AB00008952F923F928F929F92AF92BF92CF92C2
:100AC000DF92EF92FF920F931F93CF93DF931B015F
:100AD000BC01882777FD8095982F0E94D52D4B016A
:100AE0005C01C0906F04D0907004E0907104F090AD
:100AF00072046091770470917804882777FD80955F
:100B0000982F0E94D52DA70196010E94892E8B0156
:100B1000D82FC92F762FCE01272F312F492F582FAD
:100B2000C501B4010E94362D87FD53C02091790480
:100B300030917A0440917B0450917C04C701B60146
:100B40000E94892EFE01202F312F4F2F5E2F0E94F1
:100B5000D12C9B01AC01C501B4010E94852E181651
:100B6000C4F1B101882777FD8095982F0E94D52D7B
:100B70004B015C016091750470917604882777FDC4
:100B80008095982F0E94D52DA70196010E94892E4D
:100B90009B01AC01C501B4010E94362D87FD19C02F
:100BA00020917D0430917E0440917F045091800417
:100BB000C701B6010E94892E9B01AC01C1E0C501AD
:100BC000B4010E94852E18160CF0C0E081E08C273D
:100BD00001C080E0DF91CF911F910F91FF90EF90C6
:100BE000DF90CF90BF90AF909F908F903F902F90CD
:100BF00008952F923F924F925F926F927F928F92C1
:100C00009F92AF92BF92CF92DF92EF92FF920F939B
:100C10001F93CF93DF93CDB7DEB72F970FB6F8941E
:100C2000DEBF0FBECDBF69877A878B879C8769013E
:100C30007A0180906F0490907004A0907104B0903D
:100C40007204209186043091870440918804509169
:100C50008904C501B4010E94892E20E030E040E003
:100C60005FE30E94892E162F7F878E87392E762F7D
:100C70006F85982F272F362F492F532D69857A8519
:100C80008B859C850E94D12C562E672E782E092F9D
:100C9000A7019601C701B6010E94892E262E7983ED
:100CA0008D839D87252D362D472D502F652D762D33
:100CB000872D902F0E94892EA9810D817D84222D60
:100CC0003A2F402F572D0E94D22C0E94F02E2B013C
:100CD0003C012091790430917A0440917B04509139
:100CE0007C04C501B4010E94892E29853A854B8573
:100CF0005C850E94D12CAF85FE85212F3A2F4F2F86
:100D0000532D0E94D12C262F372F482F592F0E9468
:100D1000892EA9811D85222D3A2F402F512F0E9407
:100D2000D22C0E94F02E0E94A22D8B0180905204A2
:100D300090905304A0905404B0905504C301B201A4
:100D40000E94A22D2B01662457FC6094762C481437
:100D500059046A047B0424F022242394312C03C018
:100D600022242A94322C481459046A047B0411F476
:100D7000212C312C80914E0490914F04A09150046D
:100D8000B09151044801AA2497FCA094BA2C88166B
:100D90009906AA06BB061CF001E010E002C00FEFA6
:100DA0001FEF88169906AA06BB06B9F500E010E009
:100DB00034C029813A814B815C81820F931FA41F2B
:100DC000B51F8093520490935304A0935404B0939E
:100DD0005504C1010E94B30480914E0490914F04C8
:100DE000A0915004B091510488159905AA05BB053E
:100DF00031F12D813E814F815885820F931FA41FB1
:100E0000B51F80934E0490934F04A0935004B09369
:100E10005104C8010E94ED0412C09101442737FD1E
:100E20004095542F29833A834B835C839801442750
:100E300037FD4095542F2D833E834F8358878091F3
:100E4000520490915304A0915404B0915504841518
:100E50009505A605B70509F0ACCF80914E04909199
:100E60004F04A0915004B091510488159905AA052A
:100E7000BB0509F0B1CF69857A858B859C850E9479
:100E8000A22D7093590460935804C701B6010E94C3
:100E9000A22D70935704609356042F960FB6F894C2
:100EA000DEBF0FBECDBFDF91CF911F910F91FF909D
:100EB000EF90DF90CF90BF90AF909F908F907F90FA
:100EC0006F905F904F903F902F9008952F923F9298
:100ED0004F925F926F927F928F929F92AF92BF924A
:100EE000CF92DF92EF92FF920F931F93CF93DF93F6
:100EF000CDB7DEB7A4970FB6F894DEBF0FBECDBF57
:100F000069A37AA38BA39CA329013A0181E991E00B
:100F1000998B888B1D821E821F821886198E1A8ECD
:100F20001B8E1C8E1D8A1E8A1F8A188E7D816E81E3
:100F30009F818885272F362F492F582F60E070E03A
:100F400080E89FE30E94D12C962E872E382E292EE2
:100F5000B401C101272F362F492F582FD401F10199
:100F60006B2F7A2F8F2F9E2F0E94892E69837D876A
:100F70008E879F877D816E819F818885272F362F61
:100F8000492F582FDB01FC016B2F7A2F8F2F9E2FBB
:100F90000E94D22CD401F1012B2F3A2F4F2F5E2F1C
:100FA0000E94892E6D8F7E8F8F8F98A37D816E8199
:100FB0009F818885272F362F492F582FDB01FC0171
:100FC0006B2F7A2F8F2F9E2F0E94892E962E872E81
:100FD000382E292E29A13AA14BA15CA1B981AD855A
:100FE000FE85EF856B2F7A2F8F2F9E2F0E94892EE3
:100FF00069877A878B879C8729AD3AAD4BAD5CAD0D
:10100000BD8DAE8DFF8DE8A16B2F7A2F8F2F9E2F78
:101010000E94892E9B01AC0169857A858B859C8510
:101020000E94D22C69877A878B879C87A8019701B9
:10103000D401F1016B2F7A2F8F2F9E2F0E94892EC2
:101040009B01AC0169857A858B859C850E94D22C99
:1010500069877A8B8B8B9C8BA3019201B981AD85BB
:10106000FE85EF856B2F7A2F8F2F9E2F0E94892E62
:1010700069837A838B839C8321962CAD3DAD4EADE5
:101080005FAD2197BD8DAE8DFF8DE8A16B2F7A2FBF
:101090008F2F9E2F0E94892E9B01AC0169817A813E
:1010A0008B819C810E94D22C69837A838B839C8361
:1010B000A6019501D401F1016B2F7A2F8F2F9E2F5E
:1010C0000E94892E9B01AC0169817A818B819C8170
:1010D0000E94D22C69837D878E879F8779856A8954
:1010E0009B898C89272F362F492F582FBD89AE8990
:1010F000FF89E88D6B2F7A2F8F2F9E2F0E94D12C86
:10110000962E872E382E292E20E030E0A901D4011A
:10111000F1016B2F7A2F8F2F9E2F0E94852E18168C
:1011200084F420E030E040E85FE3D401F1016B2F6C
:101130007A2F8F2F9E2F0E94852E18160CF44FC0E9
:101140000EC020E030E040E85FEBD401F1016B2FEE
:101150007A2F8F2F9E2F0E94362D87FD40C07981D8
:101160006D859E858F85272F362F492F582FB98D56
:10117000AA8DFB8DEC8D6B2F7A2F8F2F9E2F0E94C7
:10118000D12C962E872E382E292E20E030E0A90172
:10119000D401F1016B2F7A2F8F2F9E2F0E94852E65
:1011A00018167CF420E030E040E85FE3D401F10160
:1011B0006B2F7A2F8F2F9E2F0E94852E18167CF072
:1011C00030C020E030E040E85FEBD401F1016B2F4C
:1011D0007A2F8F2F9E2F0E94362D87FF22C0798174
:1011E0006D859E858F85272F362F492F582FB985DE
:1011F000AA89FB89EC896B2F7A2F8F2F9E2F0E9453
:10120000F9059981998FAD85AA8FBE85BB8F8F8592
:101210008C8F99859D8BAA89AE8BBB89BF8B8C895E
:10122000888F2AE037ED43E25BE3BD81AE81FF8129
:10123000E8856B2F7A2F8F2F9E2F0E94D22C6D83E3
:101240007E838F839887A889B9891197B98BA88BDA
:10125000AB2B09F06BCEA4960FB6F894DEBF0FBE91
:10126000CDBFDF91CF911F910F91FF90EF90DF9055
:10127000CF90BF90AF909F908F907F906F905F9036
:101280004F903F902F9008954F925F926F927F9270
:10129000AF92BF92CF92DF92EF92FF920F931F9384
:1012A000CF93DF9300D000D0CDB7DEB77B018C01A8
:1012B00059016A01CA01B9010E94A22D2B013C010A
:1012C000C801B7010E94A22DDC01CB01B2010E942E
:1012D0005905811118C065E172E085EB96E00F9029
:1012E0000F900F900F90DF91CF911F910F91FF9072
:1012F000EF90DF90CF90BF90AF907F906F905F9016
:101300004F900C941D2660915804709159048827C1
:1013100077FD8095982F0E94D52D2B013C0160917F
:10132000560470915704882777FD8095982F0E9466
:10133000D52D69837A838B839C839B01AC01C60185
:10134000B5010E94D12C20E030E040E05FE30E9434
:10135000892E9B01AC0169817A818B819C810E94DD
:10136000D22C9F938F937F936F93A3019201C80117
:10137000B7010E94D12C20E030E040E05FE30E9402
:10138000892E9B01AC01C301B2010E94D22C9F9314
:101390008F937F936F9329813A814B815C81C30145
:1013A000B2010E9466070FB6F894DEBF0FBECDBF34
:1013B0000F900F900F900F90DF91CF911F910F9191
:1013C000FF90EF90DF90CF90BF90AF907F906F90A5
:1013D0005F904F9008952F923F924F925F926F923D
:1013E0007F928F929F92AF92BF92CF92DF92EF92B5
:1013F000FF920F931F93CF93DF9380E00E944E04E0
:101400000E94EA0380918E0490918F040E94090447
:1014100080919004909191040E941F048091920405
:10142000909193040E9483040E941F050AE814E02F
:10143000F801808191810E94350484E690E00E9449
:10144000B3040E943C051C0123E7622E24E0722EA7
:10145000F30140805180CFE6D4E0C880D980EA8093
:10146000FB806091810470918204640D751D882752
:1014700077FD8095982F0E94D52DA70196010E9497
:10148000892E4B015C01B101882777FD8095982F4B
:101490000E94D52D9B01AC01C501B4010E94D22C44
:1014A00020E030E048EC52E40E94D22C0E94A22DB1
:1014B0004B015C0160935204709353048093540475
:1014C000909355046091830470918404640D751D9C
:1014D000882777FD8095982F0E94D52DA70196012A
:1014E0000E94892E0E94A22D60934E0470934F0497
:1014F0008093500490935104C4010E94D0016091E4
:1015000052047091530480915404909155040E94A8
:10151000D52D288139814A815B810E943A2D6B014A
:101520007C01F30160817181882777FD8095982F78
:101530000E94D52D9B01AC01C701B6010E94D12CA0
:10154000AB01BC0122E030E085EB96E00E94172859
:1015500060914E0470914F04809150049091510419
:101560000E94D52D288139814A815B810E943A2DC4
:101570006B017C01F30160817181882777FD809583
:10158000982F0E94D52D9B01AC01C701B6010E9486
:10159000D12CAB01BC0122E030E085EB96E00E944B
:1015A00017286091580470915904882777FD809519
:1015B000982F0E94D52D288139814A815B810E9414
:1015C0003A2DAB01BC0122E030E085EB96E00E94B1
:1015D00017286091560470915704882777FD8095ED
:1015E000982F0E94D52D288139814A815B810E94E4
:1015F0003A2DAB01BC0122E030E085EB96E00E9481
:101600001728F801808191810E9435042881398151
:101610004A815B816091790470917A0480917B04A6
:1016200090917C040E94892E20E030E040E05FE34E
:101630000E94892E262F372F482F592F0E944409A8
:1016400080919404909195040E94830481E080939A
:101650005E04DF91CF911F910F91FF90EF90DF908B
:10166000CF90BF90AF909F908F907F906F905F9042
:101670004F903F902F900895CF92DF92EF92FF927C
:101680000F931F93CF93DF938C0185EB96E00E941D
:10169000BA241816190614F565E070E080E090E0B1
:1016A0000E946F2285EB96E00E94BA246C017801BB
:1016B000C0E0D0E00FC085EB96E00E94E0248C32C1
:1016C00029F4F801EC0FFD1F10820AC0F701819385
:1016D0007F012196CC15DD0574F3F3CFC0E0D0E097
:1016E000CE01DF91CF911F910F91FF90EF90DF908E
:1016F000CF900895CF93DF93CDB7DEB727970FB67E
:10170000F894DEBF0FBECDBFCE0101960E943C0B08
:10171000892B29F0CE0101960E94822F04C060E03F
:1017200070E080E090E027960FB6F894DEBF0FBE21
:10173000CDBFDF91CF9108950F931F93CF93DF9388
:1017400000D000D0CDB7DEB78C010E94B30466E2B2
:1017500072E085EB96E00E94FE254AE050E0B80179
:1017600085EB96E00E9445276DE272E085EB96E0FE
:101770000E941D2606C064E670E080E090E00E94B2
:101780006F2285EB96E00E94BA24892BA1F30E9478
:101790007A0B9B01AC01B801882777FD8095982FC3
:1017A00029833A834B835C830E94D52D29813A811A
:1017B0004B815C810E943A2DAB01BC0122E030E0FC
:1017C00085EB96E00F900F900F900F90DF91CF91E7
:1017D0001F910F910C941728CF93DF93EC0163EBCB
:1017E00073E085EB96E00E94FE256881772767FD10
:1017F00070954AE050E085EB96E00E94452761E451
:1018000072E085EB96E00E94FE25698185EB96E00B
:101810000E9400266CEE71E085EB96E00E94FE25AA
:101820004A815B816C817D8122E030E085EB96E02E
:101830000E9415286CEE71E085EB96E00E94FE2573
:101840004E815F816885798522E030E085EB96E006
:10185000DF91CF910C9417281092640410926304C6
:1018600011C0FC01E159FB4F608185EB96E00E94BD
:10187000032580916304909164040196909364041D
:10188000809363048091630490916404893291058C
:1018900040F36FEC72E085EB96E00C941D260F93FD
:1018A0001F93CF93DF9360E070E0CFE6D4E04991DF
:1018B0008B010F5F1F4F88E994E00E94D011B8019F
:1018C00009321105A1F7DF91CF911F910F91089572
:1018D000CF93DF9364E670E080E090E00E946F2297
:1018E00085EB96E00E94BA248997B1F4CFE6D4E064
:1018F00005C085EB96E00E94E024899384E0C83916
:10190000D807B9F70E944F0C63E472E085EB96E0CC
:10191000DF91CF910C941D2662E572E085EB96E095
:101920000E94FE254AE050E069E270E085EB96E017
:101930000E94AE266CE672E085EB96E00E94FE25E2
:1019400085EB96E00E94BA244AE050E0BC0185EBAA
:1019500096E00E944D2785EB96E0DF91CF910C94A5
:101960002B258F929F92AF92BF92CF92DF92EF92F0
:10197000FF92CF93DF93EC0180915E0481111DC033
:1019800089818336D1F08636C1F08A36B1F063E9B9
:1019900072E085EB96E00E941D2662EA72E085EB1C
:1019A00096E0DF91CF91FF90EF90DF90CF90BF90C6
:1019B000AF909F908F900C941D268981992787FD69
:1019C0009095A92FB92FFC01E256F109E931F105F3
:1019D00008F0C6C2EA5AFF4F0C947C2F6A817B81C3
:1019E0008C819D810E94A22DCB010E949C0BBEC2C6
:1019F0000E94EB0936C020E030E0A9016A817B81BA
:101A00008C819D810E94362D882319F061E772E058
:101A100002C06AE772E085EB96E00E941D2620E096
:101A200030E0A9016A817B818C819D810E94362DE5
:101A3000882319F00E94D60302C00E94EA0362EADA
:101A400072E085EB96E00E941D266A817B818C8185
:101A50009D810E94A72D60933D0488C281E00E9471
:101A6000D40F62EA72E07EC2C0906F04D09070041E
:101A7000E0907104F09072042A813B814C815D8179
:101A8000C701B6010E94892E0E94A22D60935204C4
:101A90007093530480935404909355042E813F8196
:101AA00048855985C701B6010E94892E0E94A22D42
:101AB00060934E0470934F048093500490935104AC
:101AC00065EA72E085EB96E00E941D2660914E0467
:101AD00070914F0480915204909153040E94D00160
:101AE00081E080935E04BDCFC0906F04D0907004FD
:101AF000E0907104F09072042E813F8148855985F1
:101B0000C701B6010E94892E4B015C012A813B81ED
:101B10004C815D81C701B6010E94892EA501940107
:101B20000E9444099ECF80E09ACF6A817B818C819C
:101B30009D810E94A22DCB010E94600492CF0E9441
:101B40002C0C8FCF62EA72E085EB96E00E941D2696
:101B50000E94680C86CF6A817B818C819D810E9466
:101B6000A22DCB010E94B3046E817F818885998567
:101B70000E94A22DCB010E94ED0473CF6A817B816C
:101B80008C819D810E94A22DCB010E9483046E81D5
:101B90007F81888599850E94A22DCB010E94350402
:101BA0006E817F81888599850E94A22D70938B0418
:101BB00060938A046A817B818C819D810E94A22D21
:101BC00070939504609394044CCF67EB72E085EBBF
:101BD00096E00E94FE256091580470915904882770
:101BE00077FD8095982F0E94D52D20916F0430911C
:101BF000700440917104509172040E943A2DAB011F
:101C0000BC0122E030E085EB96E00E9417286BEBE8
:101C100072E085EB96E00E94FE256091560470917B
:101C20005704882777FD8095982F0E94D52D209105
:101C30006F043091700440917104509172040E94BD
:101C40003A2DAB01BC0122E030E085EB96E00E942A
:101C500017286FEB72E085EB96E00E94FE256091FD
:101C600052047091530480915404909155040E9441
:101C7000D52D20916F0430917004409171045091E2
:101C800072040E943A2D6B017C0160917304709183
:101C90007404882777FD8095982F0E94D52D9B018D
:101CA000AC01C701B6010E94D12CAB01BC0122E0FE
:101CB00030E085EB96E00E94172860ED72E085EB3E
:101CC00096E00E94FE2560914E0470914F04809131
:101CD0005004909151040E94D52D20916F043091B1
:101CE000700440917104509172040E943A2D6B016E
:101CF0007C016091730470917404882777FD80954E
:101D0000982F0E94D52D9B01AC01C701B6010E94FE
:101D1000D12CAB01BC0122E030E085EB96E00E94C3
:101D2000172880913D04882319F061E872E002C011
:101D30006BE872E085EB96E00E941D2661EE72E092
:101D400085EB96E00E94FE2540915A0450915B0479
:101D500060915C0470915D042AE030E085EB96E0D0
:101D60000E943127C0906F04D0907004E0907104FD
:101D7000F09072046091580470915904882777FD9F
:101D80008095982F0E94D52DA70196010E943A2D8B
:101D90006A837B838C839D83609156047091570482
:101DA000882777FD8095982F0E94D52DA701960151
:101DB0000E943A2D6E837F838887998752CE62EF87
:101DC00072E0D0C081E08093420410923F041092F0
:101DD0003E046A817B818C819D810E94A72D709336
:101DE0004104609340046BEF72E085EB96E00E9443
:101DF0001D2637CE6A817B818C819D810E94A72D13
:101E00006093650467E173E085EB96E00E94FE2530
:101E10004AE050E06091650485EB96E00E94CC2694
:101E2000A5C0CA80DB80EC80FD8020E030E0A90105
:101E3000C701B6010E94852E181644F4C0926F04A3
:101E4000D0927004E0927104F092720463E273E045
:101E500085EB96E00E94FE2540916F04509170043E
:101E6000609171047091720422E030E085EB96E09D
:101E70000E94172860E373E085EB96E00E94FE2540
:101E80004091790450917A0460917B0470917C04B4
:101E900022E030E085EB96E00E94172864E373E0CF
:101EA00085EB96E00E94FE2540917D0450917E04D2
:101EB00060917F047091800422E030E085EB96E031
:101EC0000E94172868E373E085EB96E00E94FE25E8
:101ED00060917504709176044AE050E085EB96E0DD
:101EE0000E944D2765E473E085EB96E00E94FE2595
:101EF00060917704709178044AE050E085EB96E0B9
:101F00000E944D27AECD6A817B818C819D810E948C
:101F1000A22DCB010E9427030E945B0327C080E013
:101F20000E947F2163E573E085EB96E00E941D2609
:101F30000E94D4111BC020E030E0A9016A817B819E
:101F40008C819D810E94362D882311F06CE201C0A6
:101F500062EC85E10E94912384CD0E94E10206C0DB
:101F600060E673E085EB96E00E941D2680915A049E
:101F700090915B04A0915C04B0915D040196A11D59
:101F8000B11D80935A0490935B04A0935C04B093BA
:101F90005D04DF91CF91FF90EF90DF90CF90BF90E5
:101FA000AF909F908F900895CF92DF92EF92FF9223
:101FB0001F93CF93DF93CDB7DEB72A970FB6F89470
:101FC000DEBF0FBECDBF182FF89441E068E271E08C
:101FD00084EE93E00E942D1D811120C062E771E024
:101FE00085EB96E00E941D26789457C08FEFC81AA3
:101FF000D80AE80AF80ACE0101960E94EC0B1123D8
:1020000081F06CE673E085EB96E00E941D267894E3
:10201000CE0101960E94B10CF89403C0C12CD12CC2
:1020200076014AE050E0BE016F5F7F4F84EE93E09F
:102030000E945E1718161906CCF2C701B601882750
:1020400099270E94D32D6093450470934604809392
:10205000470490934804B701882799270E94D32DFD
:102060006093490470934A0480934B0490934C040A
:1020700084EE93E00E945D1A78940E94D40262E795
:1020800073E085EB96E00E94FE252AE030E0B70180
:10209000A60185EB96E00E949A262A960FB6F89440
:1020A000DEBF0FBECDBFDF91CF911F91FF90EF90AC
:1020B000DF90CF9008950F931F9386E00E94C8236E
:1020C000892B11F40E94EB0964EF71E08CE694E037
:1020D0000E94F511882351F061E08091660481111E
:1020E00060E06093660487E00E94912385EB96E0B0
:1020F0000E94BA24181619060CF585EB96E00E948A
:10210000E024809344040E947A0B6093450470930A
:10211000460480934704909348040E947A0B60938E
:10212000490470934A0480934B0490934C0481E0DB
:102130008093680485EB96E00E942B2580916804CB
:10214000882309F461C010926804809142048823B6
:1021500009F449C080914404833731F51092420458
:1021600062E873E085EB96E00E941D2680E00E9405
:10217000D40F60913E0470913F048091400490918F
:102180004104681B790B4AE050E085EB96E00E9421
:10219000B42662EA72E085EB96E00E941D2610925A
:1021A00041041092400423C00E94F80263E973E0E6
:1021B00085EB96E00E94FE2560913E0470913F04FD
:1021C000CB01019690933F0480933E044AE050E097
:1021D00085EB96E00E94B42662EA72E085EB96E019
:1021E0000E941D2604C083E494E00E94B10C81E0AB
:1021F000809367040E94332260935F0470936004AD
:1022000080936104909362040E94332200915F04E2
:10221000109160042091610430916204601B710B85
:10222000820B930B613D77408105910540F08091D1
:102230004D04811104C01F910F910C943F041F9114
:102240000F9108950F931F93CF93DF93CFE6D4E0C0
:1022500060E070E08B010F5F1F4F88E994E00E94FF
:10226000CD118993B80109321105A1F7DF91CF9102
:102270001F910F9108950E94221160E071EE85EB8D
:1022800096E00E94AE2564EA73E085EB96E00E943A
:10229000FE254AE050E06091850485EB96E00E94BF
:1022A000CC2661E087E00E94592361E087E00E942C
:1022B000912361E085E10E94592361E088E00E945A
:1022C000592361E089E00E94592361E08AE00E947D
:1022D000592361E08BE00E94592361E084E00E9471
:1022E000592361E080E00E94592361E081E00E946F
:1022F000592361E082E00E94592360E086E00E9459
:10230000592361E086E00E94912361E081E10E940F
:10231000592361E086E10E94592361E087E10E9430
:10232000592361E086E10E94912361E087E10E94E8
:10233000912360E085E00E94592361E085E00E94DE
:10234000912360E08DE00E94592361E08DE00E94BE
:1023500091230E9499040E94FE030C94E1021092C2
:102360006E0410926B0489E18093000410920304C0
:1023700010921B0410922204109225041092E40380
:102380001092E7031092E3031092E2038BEB93E0C9
:102390009093E1038093E0030895CB010C94A42F64
:1023A000CB01642F0C94AC2F8CB58F7B8CBD089522
:1023B0000F931F93CF93DF938C01EB0181E0209764
:1023C00009F480E0F8018283882351F00E943322CF
:1023D0009E0121503109260F371FF80131832083D8
:1023E000DF91CF911F910F910895EF92FF920F937C
:1023F0001F93CF93DF93EC018B018A81882371F0C7
:10240000E880F9800E943322C701861B970B813632
:102410002AEE920748F0F82EF19401C0F12CB80191
:10242000CE010E94D81101C0F12C8F2DDF91CF91E8
:102430001F910F91FF90EF90089580919F0480FF6E
:1024400041C04091A0045091A1046091A2047091F8
:10245000A30424EA34E08091990490919A040E94A4
:10246000D320811102C080E0089580919F0481FDF6
:1024700006C080919F048E7F80939F0423C080912B
:102480009B0490919C04A0919D04B0919E040097A0
:10249000A105B10571F34091A0045091A104609190
:1024A000A2047091A304480F591F6A1F7B1F24EADE
:1024B00034E08091990490919A040E94D320811174
:1024C000D8CFD1CF81E00895CF92DF92EF92FF92E3
:1024D000CF936B017C01C42F8091A0049091A10443
:1024E000A091A204B091A3048C159D05AE05BF0573
:1024F00009F10E941D12811103C020E030E022C0CA
:10250000C2FF0BC010929F04C092A004D092A104FD
:10251000E092A204F092A3040DC024EA34E0B701D3
:10252000A6018091990490919A040E94A61F81119E
:10253000E9CFE3CFC37080919F048C2B80939F04DD
:1025400024EA34E0C901CF91FF90EF90DF90CF9063
:1025500008950C941D128FEF9FEFDC018093A0046F
:102560009093A104A093A204B093A30410929F049B
:1025700008950F931F93FC0142505109610971099D
:10258000A481B0E09A01AB010E944F2F8B019C0106
:1025900086859785A089B189080F191F2A1F3B1FBF
:1025A000B801C9011F910F910895AF92BF92CF92C8
:1025B000DF92EF92FF920F931F93CF93DF935C0113
:1025C0006A017B01E901423051056105710508F49A
:1025D00059C0F50141855285638574854F5F5F4F12
:1025E0006F4F7F4F4C155D056E057F0508F44AC09F
:1025F0008789803129F499278F2D7E2D6D2D0DC06F
:10260000803209F03FC0C701B60147E09695879533
:10261000779567954A95D1F7F5010389148925893E
:102620003689600F711F821F931F42E00E9464125F
:10263000009741F1F5012789203169F4DD24EE246A
:10264000FF24F601EE0FFF1FE80FF91F8081918133
:10265000A0E0B0E011C0E894C7F8DD24EE24FF2428
:10266000F601EE0FFF1FEE0FFF1FE80FF91F80812D
:102670009181A281B381BF7088839983AA83BB8330
:1026800081E001C080E0DF91CF911F910F91FF9019
:10269000EF90DF90CF90BF90AF9008956F927F92B0
:1026A0008F929F92AF92BF92CF92DF92EF92FF9262
:1026B0000F931F93CF93DF9300D0CDB7DEB73C01CC
:1026C0006A017B01423051056105710508F456C06D
:1026D000F30141855285638574854F5F5F4F6F4F6E
:1026E0007F4F4C155D056E057F0508F447C087894F
:1026F000803129F499278F2D7E2D6D2D0DC08032CC
:1027000009F03CC0C701B601E7E09695879577953B
:102710006795EA95D1F7F30183889488A588B688F0
:10272000680D791D8A1D9B1D43E029833A830E9411
:10273000641229813A81009709F1F30147894031F8
:1027400059F4DD24EE24FF24F601EE0FFF1FE80FFD
:10275000F91F1183008310C0E894C7F8DD24EE242C
:10276000FF24F601EE0FFF1FEE0FFF1FE80FF91F0A
:10277000008311832283338381E001C080E00F90C6
:102780000F90DF91CF911F910F91FF90EF90DF900D
:10279000CF90BF90AF909F908F907F906F90089553
:1027A0002F923F924F925F926F927F928F929F9261
:1027B000AF92BF92CF92DF92EF92FF920F931F934F
:1027C000CF93DF93CDB7DEB72F970FB6F894DEBF68
:1027D0000FBECDBF1C014C875D876E877F873B870F
:1027E0002A87DC0119964D905D906D907C901C9726
:1027F000BFEF4B1A5B0A6B0A7B0AF901808091805C
:10280000A280B38081149104A104B10431F0FFEFE0
:102810008F1A9F0AAF0ABF0A10C0DC018D909D90ED
:10282000AD90BC90B1E0BD832C853D854E855F8524
:10283000213031054105510509F01D827501640102
:102840001E821F8218861986F10181859285A385D3
:10285000B4852E813F8148855985281739074A0755
:102860005B0708F052C04C145D046E047F0450F402
:10287000B2E0CB2ED12CE12CF12C12E0812E912C48
:10288000A12CB12C9E012F5F3F4FB701A601C101C2
:102890000E94D5128823C9F149815A816B817C81BC
:1028A000D701C6010196A11DB11D452B462B472B13
:1028B00019F04C015D010DC088199909AA09BB09DD
:1028C0002C853D854E855F8582179307A407B50744
:1028D00089F08E819F81A885B9850196A11DB11DC2
:1028E0008E839F83A887B9879FEFC91AD90AE90AFF
:1028F000F90AAACF0FEF1FEF2FEF3FE0A601B701B4
:10290000C1010E944E13811115C080E041C04424D2
:102910004A94542C32014C0C5D1C6E1C7F1C970198
:102920008601B301A201C1010E944E13882369F3FD
:10293000730162018C149D04AE04BF0440F3AA85A8
:10294000BB854D915D916D917C914115510561055E
:10295000710551F4EA85FB8580829182A282B3825F
:10296000FD81F11109C013C095018401C1010E94CC
:102970004E138111EFCFC9CF2FEF821A920AA20A0C
:10298000B20AD1018D929D92AD92BC92139781E0D3
:102990002F960FB6F894DEBF0FBECDBFDF91CF915B
:1029A0001F910F91FF90EF90DF90CF90BF90AF906D
:1029B0009F908F907F906F905F904F903F902F905F
:1029C0000895AF92BF92CF92DF92EF92FF920F9352
:1029D0001F93CF93DF9300D000D0CDB7DEB75C015B
:1029E0006A017B0142E050E060E070E0FC0140835E
:1029F0005183628373839E012F5F3F4FB701A6010E
:102A0000C5010E94D512811102C080E023C000E000
:102A100010E09801B701A601C5010E944E1388235A
:102A2000A1F3C980DA80EB80FC80F50187898031D1
:102A300041F4F8EFCF16FFEFDF06E104F10448F4AC
:102A4000DACF88EFC8168FEFD806E8068FE0F806D1
:102A500090F281E00F900F900F900F90DF91CF9147
:102A60001F910F91FF90EF90DF90CF90BF90AF90AC
:102A700008956F927F928F929F92AF92BF92CF9262
:102A8000DF92EF92FF921F93CF93DF93EC01142F0D
:102A900070939A04609399041F8A62E0C62ED12C29
:102AA000E12CF12CC882D982EA82FB8210929F0429
:102AB000CC24CA94DC2C7601C092A004D092A1044C
:102AC000E092A204F092A30410929B0410929C0442
:102AD00010929D0410929E04442361F1453008F049
:102AE000D5C040E060E070E0CB010E946412009726
:102AF00009F4CCC0FC0120E1129FE00DF11D11246E
:102B0000E255FE4F80818F7709F0C0C0448555851E
:102B100066857785443651056105710508F4B6C0B0
:102B2000C084D184E284F384C114D104E104F104AB
:102B300021F4ACC0C12CD12C760140E0C701B60114
:102B40000E946412FC01009709F4A0C0838594855B
:102B50008115924009F09AC02089222309F496C079
:102B600086859785892B09F491C08585882309F48A
:102B70008DC02A8B25852C831D8630E041E050E0F6
:102B800006C0812F8F5F8D87183008F07FC01D85AC
:102B9000CA01012E02C0880F991F0A94E2F7281774
:102BA000390779F7268937892115310519F040E071
:102BB00050E004C024A135A146A157A12D833E8336
:102BC0004F83588720939B0430939C0440939D042B
:102BD00050939E048685978546015701880E991E5D
:102BE000A11CB11C8B8A9C8AAD8ABE8A61887288BE
:102BF000798E688EA089B0E00E944F2F680D791DF4
:102C00008A1D9B1D6A8F7B8F8C8F9D8F930145E062
:102C1000220F331F4A95E1F721503E4F232F3327D0
:102C20002695DC01CB01820F931FA11DB11D8E875C
:102C30009F87A88BB98B838894888114910419F09D
:102C4000A12CB12C04C080A091A0A2A0B3A0A70188
:102C50009601281B390B4A0B5B0BDA01C901880D61
:102C6000991DAA1DBB1D04C0B695A795979587957C
:102C70001A95D2F789879A87AB87BC87853F3FE053
:102C80009307A105B10520F48CE08F8B80E012C082
:102C9000853F9F4FA105B10510F480E109C044A50F
:102CA00055A566A577A54A8F5B8F6C8F7D8F80E2D7
:102CB0008F8B81E0DF91CF911F91FF90EF90DF909C
:102CC000CF90BF90AF909F908F907F906F9008951E
:102CD000CF93DF93EC019C01295F3F4F41E050E02F
:102CE00060E070E08D819E810E94D0138823A1F066
:102CF0004F89588D698D7A8D452B462B472B71F462
:102D00004F81588569857A854F8B588F698F7A8F67
:102D100089818068898302C080E001C081E0DF9101
:102D2000CF910895AF92BF92CF92DF92EF92FF9230
:102D30000F931F93CF93DF93EC014B895C896D89CF
:102D40007E89403E5F4F6F41710508F014C00E94BC
:102D50006816882381F04F81588569857A858D8131
:102D60009E810E94B9126B017C0145E00E946412B1
:102D70005C01009719F4A12CB12C35C080E092E0E1
:102D8000F5019C01119221503040E1F711E010C093
:102D9000B701A601410F511D611D711D9501809163
:102DA000990490919A040E94D320882321F31F5FF5
:102DB000ED81FE810481101758F310E020E030E02F
:102DC00089E0000F111F221F331F8A95D1F74B890D
:102DD0005C896D897E89400F511F621F731F4B8B69
:102DE0005C8B6D8B7E8BC501DF91CF911F910F9115
:102DF000FF90EF90DF90CF90BF90AF900895CF936A
:102E0000DF93EC01462F6F85788989899A890E9422
:102E10006412009749F02C81AC0160E2269F400DBE
:102E2000511D11249A0102C020E030E0C901DF9158
:102E3000CF910895CF93DF93FB012BE030E23193E4
:102E40002150E9F7DC0130E0C7E01DC0CA3059F17C
:102E500038E0CAE018C0E21731F1FC010196E491B4
:102E6000E111F9CFC317F8F02132E8F02F37D8F489
:102E7000FB01E30FF11D822F81568A3110F4D22F0E
:102E8000D052D0833F5FCD012D91211109C0FA01AD
:102E90008083918381E0FB019081903261F403C0D3
:102EA0002F3219F4F4CF80E006C0D22F2E3271F207
:102EB0008EED90E0D2CFDF91CF9108952F923F9287
:102EC0004F925F926F927F928F929F92AF92BF923A
:102ED000CF92DF92EF92FF920F931F93CF93DF93E6
:102EE00000D000D0CDB7DEB79C838B831A01FC01E4
:102EF0008381811103C02FEF3FEFD9C0EB81FC81AB
:102F0000818180FFF8CF9DC01601201A310A31015E
:102F10005B018B819C8107969A8389838CC0EB81AE
:102F2000FC810385148525853685D901C8019170FA
:102F3000AA27BB272C0185819681FC01948068011A
:102F4000790159E0F694E794D794C7945A95D1F74C
:102F5000EB81FC814381423051F4FC01628D738D21
:102F6000848D958D6C0D7D1D8E1D9F1D2FC09A9497
:102F70009C2041145104E1F491101AC0EB81FC81B2
:102F8000012B022B032B49F48789908DA18DB28DE3
:102F900087839087A187B2870BC047815085618561
:102FA000728529813A810E94D512882309F4A3CF22
:102FB000EB81FC8147815085618572858581968191
:102FC0000E94B912690D711D811D911D411451049A
:102FD00009F051C06114F2E07F0608F44CC0009182
:102FE000A0041091A1042091A2043091A3046017C1
:102FF00071078207930709F04EC03DC0480E591E65
:10300000A701B201C5010E949B2F03C0E12C42E041
:10301000F42EAE0CBF1CEB81FC8103851485258545
:1030200036850E0D1F1D211D311D03871487258731
:1030300036876E187F086114710409F070CF910112
:1030400036C0EB81FC81C388D488E588F688038587
:103050001485258536852A01612C712C460157017E
:10306000801A910AA20AB30A481459046A047B041C
:1030700008F04ACF4CCF20E032E024193509730123
:103080002615370508F4790140E00E946412009784
:1030900009F0B4CF30CF9501AB01BC018091990408
:1030A00090919A040E94A61F8111B0CF24CFC9012C
:1030B0000F900F900F900F90DF91CF911F910F9174
:1030C000FF90EF90DF90CF90BF90AF909F908F9048
:1030D0007F906F905F904F903F902F900895CF9387
:1030E000DF931F92CDB7DEB741E050E0BE016F5FC6
:1030F0007F4F0E945E17019719F4298130E002C0CA
:103100002FEF3FEFC9010F90DF91CF910895CF923C
:10311000DF92EF92FF92CF93DF93EC018B818230AD
:1031200018F420E030E029C0CB84DC84ED84FE84F8
:10313000E5E0F694E794D794C794EA95D1F78FE049
:10314000C822DD24EE24FF24CE010E946F1897FDD3
:10315000E8CF4B855C856D857E85415E5F4F6F4F07
:103160007F4F4B875C876D877E87960175E0220FC6
:10317000331F7A95E1F72C553B4FC901DF91CF9171
:10318000FF90EF90DF90CF9008958F929F92AF9233
:10319000BF92CF92DF92EF92FF920F931F93CF9344
:1031A000DF93EC014A015B012B81222309F475C0F6
:1031B0008B899C89AD89BE8984179507A607B707B7
:1031C00008F46BC06CC081149104A104B10449F4EB
:1031D0001F82188619861A861B861C861D861E86E7
:1031E0005AC00B851C852D853E85ED81FE81858528
:1031F00090E00996B901A80141505109610971098E
:10320000082E04C076956795579547950A94D2F78E
:10321000CC24CA94DC2C7601C80CD91CEA1CFB1CFB
:1032200004C0F694E794D794C7948A95D2F7C4164D
:10323000D506E606F70620F0012B022B032B49F4F6
:103240004F89588D698D7A8D4F83588769877A8722
:1032500016C0C41AD50AE60AF70A11C04F8158856C
:1032600069857A8598018D819E810E94D51291E0B1
:10327000C91AD108E108F108811104C014C08E01F7
:10328000095F1F4FC114D104E104F10439F78B86A3
:103290009C86AD86BE8681E006C080E004C02230F8
:1032A00009F091CFF4CFDF91CF911F910F91FF9053
:1032B000EF90DF90CF90BF90AF909F908F90089548
:1032C000CF92DF92EF92FF920F931F93CF93DF93F2
:1032D00000D000D0CDB7DEB77C01DC0157964D9110
:1032E0005D916D917C915A9749835A836B837C835E
:1032F000C12CD12C49815A816B817C819E012F5F29
:103300003F4FF701858196810E94D512882389F16C
:10331000D7011596ED91FC9116978481C80ED11CAA
:10332000C114B0E1DB0628F509811A812B813C81AB
:103330008789803131F4083F1F4F2105310530F472
:10334000D9CF083F1F4F2F4F3F40A0F2A60160E0AA
:1033500070E0F9E0440F551F661F771FFA95D1F70B
:10336000D70153964D935D936D937C93569781E06F
:1033700001C080E00F900F900F900F90DF91CF91E0
:103380001F910F91FF90EF90DF90CF900895CF9312
:10339000DF93EC01FB018B81882311F080E03EC0BC
:1033A0007E836D838789803101F522C083E08B8322
:1033B000428D538D648D758D4F8B588F698F7A8FA9
:1033C000CE010E946019882349F381E089831F821E
:1033D000188619861A861B861C861D861E861F86E1
:1033E000188A198A1A8A1C8219C08032B9F6DECF6F
:1033F00082E08B831F8A188E198E1A8E408D518D14
:1034000060E070E0A5E0440F551F661F771FAA9586
:10341000D1F74B8B5C8B6D8B7E8BD7CFDF91CF91B0
:1034200008950F931F93CF93DF93EC018B81882333
:10343000E1F1898187FF33C061E0CE010E94FF1670
:103440008C01009791F1FC018081853E71F18B81A7
:10345000823040F44B895C896D897E89448F558F19
:10346000668F778F4F89588D698D7A8DF801538FCC
:10347000428F758B648BE091A406F091A50630977E
:1034800059F0B8016A5E7F4FC80148960995F80166
:10349000808D918D938B828B89818F778983DF914A
:1034A000CF911F910F910C941D1281E0888380E0D1
:1034B000DF91CF911F910F910895CF93DF93EC018E
:1034C0000E94111A1B82DF91CF9108956F927F9213
:1034D0008F929F92AF92BF92CF92DF92EF92FF9224
:1034E0000F931F93CF93DF9300D000D0CDB7DEB7FB
:1034F0003C016A017B01FC018381813009F083C0BA
:10350000818181FF80C081C0452B462B472B09F468
:1035100078C0F30183849484A584B684B701A6019E
:10352000C3010E94C518811101C06DC0F3018581DE
:103530009681C114D104E104F10479F44789508DD6
:10354000618D728D0E94E114882309F45CC0F3013F
:10355000178A108E118E128E3AC0F3014781508562
:10356000618572859E012F5F3F4F0E94D51288238F
:1035700009F449C049815A816B817C81F3018581BD
:103580009681FC012789203139F4483FFFEF5F071E
:1035900061057105E0F407C0483F2FEF520762074D
:1035A0002FE07207A0F40E94E114882361F1F30177
:1035B00047815085618572850FEF1FEF2FEF3FE048
:1035C000858196810E944E13811101C01CC0F301B8
:1035D000C38AD48AE58AF68A818180688183C3019F
:1035E0000E94111A882379F0B701A6018C149D045A
:1035F000AE04BF0410F4B501A401C3010E94C518B4
:1036000010C081E00EC080E00CC0F30143895489F2
:10361000658976894C155D056E057F0508F074CFC8
:10362000F2CF0F900F900F900F90DF91CF911F91DD
:103630000F91FF90EF90DF90CF90BF90AF909F9051
:103640008F907F906F900895BF92CF92DF92EF920C
:10365000FF920F931F93CF93DF93EC01B42E80E280
:10366000689FF0011124EC55FB4F8385817121F097
:10367000842F827109F05CC00091A0041091A10414
:103680002091A2043091A3040F87188B298B3A8BC9
:103690006C830489158920E030E098011127002708
:1036A000C28CD38CE12CF12C0C291D292E293F2909
:1036B0000F8B188F298F3A8F8385887151F4048D71
:1036C000158D268D378D0B8B1C8B2D8B3E8B81E0C2
:1036D00008C0803169F5CE010E946019882341F14C
:1036E00084E08B838B2D8F7089831F8218861986C7
:1036F0001A861B861C861D861E86B4FE1CC040E0F2
:1037000050E0BA01CE010E94661A811114C010C0A7
:103710004B895C896D897E89CE01DF91CF911F91A4
:103720000F91FF90EF90DF90CF90BF900C94C51851
:103730001B8280E003C0B5FCEBCF81E0DF91CF912D
:103740001F910F91FF90EF90DF90CF90BF90089561
:103750006F927F928F929F92AF92BF92CF92DF92A1
:10376000EF92FF920F931F93CF93DF935C01EB01D6
:103770004A01722E8D819E81F5019683858340E0FA
:1037800050E0BA01CE010E94C518612C33C045E05B
:1037900036952795179507954A95D1F70F70CE0165
:1037A0000E948718DC01009709F494C08C9188234B
:1037B00011F0853EB1F4611010C0C090A004D0900B
:1037C000A104E090A204F090A304F501C786D08A7A
:1037D000E18AF28A0483662463948C9181110AC081
:1037E00074C04BE050E0BD01C4010E948E2F0097D1
:1037F00009F46EC00B851C852D853E85CB88DC8841
:10380000ED88FE880C151D052E053F0508F4BFCF79
:103810005CC071FE5FC0662051F0F501048161E07B
:10382000C5010E94FF16EC01009769F453C08B811B
:10383000823009F44FC0CE010E949216009709F41D
:1038400049C0EC0100E080E2FE0111928A95E9F79F
:103850008BE0F401DE0101900D928A95E1F7E09191
:10386000A406F091A506309739F0BE01625F7F4F44
:10387000CE014096099508C081E298E2998B888B29
:1038800080E098E09F878E87888999899B8B8A8BB7
:10389000998F888F8E859F859F8B8E8B0E941D129E
:1038A0008823C1F0472D602FC501DF91CF911F9173
:1038B0000F91FF90EF90DF90CF90BF90AF909F90CF
:1038C0008F907F906F900C94241B76FCA2CF02C047
:1038D00077FEE8CF80E0DF91CF911F910F91FF90AD
:1038E000EF90DF90CF90BF90AF909F908F907F90A0
:1038F0006F9008955F926F927F928F929F92AF9296
:10390000BF92CF92DF92EF92FF920F931F93CF93CC
:10391000DF93CDB7DEB7C354D1090FB6F894DEBF3D
:103920000FBECDBF5C016B0124965FAF4EAF2497F5
:10393000522E1C8E1F8E19821C826115710511F486
:1039400080E074C0FC0183818111FACF2496EEAD32
:10395000FFAD249780818F3239F0760117C0319600
:103960002496FFAFEEAF24972496EEADFFAD2497DB
:1039700080818F32A1F3F60183818250823060F41E
:10398000ECCFEE24E394F12CEC0EFD1E8E01045ED0
:103990001F4F480138010CC0F60165817681CE01C8
:1039A00001960E94C7198111ECCFCACF780183011B
:1039B000AE014E5B5F4FBE01695C7F4F24968EADBA
:1039C0009FAD24970E941A17811106C0B9CF319676
:1039D0002496FFAFEEAF24972496EEADFFAD24976B
:1039E00080818F32A1F38823C9F021E0AE01495CC8
:1039F0005F4FB701C8010E94A81B882309F4A0CF1C
:103A0000EC14FD0419F0C7010E945D1A0815190590
:103A100069F68E010F5F1F4F7301CACF252DAE01CE
:103A2000495C5F4FB701C5010E94A81BCD5BDF4F0A
:103A30000FB6F894DEBF0FBECDBFDF91CF911F91BF
:103A40000F91FF90EF90DF90CF90BF90AF909F903D
:103A50008F907F906F905F900895FB01242F60916D
:103A6000A6067091A706AF010C947A1C2F923F9284
:103A70004F925F926F927F928F929F92AF92BF927E
:103A8000CF92DF92EF92FF920F931F93CF93DF932A
:103A9000CDB7DEB72A970FB6F894DEBF0FBECDBF05
:103AA0003C01162F072F5E834D83DC0113968C910A
:103AB0001397813009F038C111968C9181FF34C180
:103AC00039C1F30143895489658976898385948551
:103AD000A585B68584179507A607B70729F42D8015
:103AE0003E80412E502EEBC0C3010E94C5188111AB
:103AF000F6CF1AC1D30115968D919C911697FC01B2
:103B0000B480BA94B901A801E9E076956795579514
:103B10004795EA95D1F7B422117022273327B110C7
:103B20004BC00115110509F047C017964D915D91E5
:103B30006D917C911A97411551056105710529F127
:103B40009E012F5F3F4F0E94D512882309F4ECC0DD
:103B5000C980DA80EB80FC80D3011596ED91FC9151
:103B600016978789803141F4B8EFCB16BFEFDB069B
:103B7000E104F104A0F419C0E8EFCE16EFEFDE0681
:103B8000EE06EFE0FE0688F00AC0F301C788D08C8D
:103B9000E18CF28CC114D104E104F10431F4C301CD
:103BA0000E946816811108C0BFC0D3011796CD923C
:103BB000DD92ED92FC921A97F30147815085618561
:103BC0007285858196810E94B9126B0D711D811DD0
:103BD000911D0115110521F42114F2E03F06C0F5F5
:103BE00020E032E0201B310B71012215330508F46F
:103BF000790101151105A1F4D3011B968D909D90BB
:103C0000AD90BC901E9753962D913D914D915C9136
:103C1000569782169306A406B50610F045E001C03B
:103C200041E00E946412009709F47EC09C01200FBD
:103C3000311FA701B201C9010E949B2F0E0D1F1D4C
:103C40000115124059F50E94A912811127C06CC0BC
:103C50000091A0041091A1042091A2043091A3042A
:103C6000061717072807390751F46F837887898764
:103C70009A870E94AB129A85898578856F81920117
:103C8000AB01BC018091990490919A040E94D320C9
:103C9000882309F449C0E12C72E0F72EF301038573
:103CA0001485258536850E0D1F1D211D311D0387A9
:103CB0001487258736874E0C5F1C2E183F08F301AA
:103CC00003851485258536852114310409F012CF2A
:103CD000C388D488E588F688C016D106E206F306C4
:103CE00030F4D301038B148B258B368B0BC0809162
:103CF000A4069091A506892B59F0ED81FE81EF2B4A
:103D000039F0D30111968C911197806811968C939C
:103D1000F301818183FD03C02D813E810EC0C3016B
:103D20000E94111A8111F8CF81E0D3018C932FEFFB
:103D30003FEF03C082FDC5CED2CEC9012A960FB691
:103D4000F894DEBF0FBECDBFDF91CF911F910F91D1
:103D5000FF90EF90DF90CF90BF90AF909F908F90AB
:103D60007F906F905F904F903F902F9008958D308F
:103D700010F4869501C086E0282F30E03595279510
:103D800020652CBD80FD03C091E0863009F490E0F1
:103D90009DBD08958FEF8EBD0DB407FEFDCF8EB58E
:103DA00008958EBD0DB407FEFDCF089561E0FC01BE
:103DB00080810E9491238FEF0C94D11ECF93DF93CB
:103DC000EC018A810E94B71E60E08881DF91CF916B
:103DD0000C949123CF92DF92EF92FF920F931F9357
:103DE000CF93DF93EC018B017A010E9433226B01A8
:103DF00009C00E9433226C197D096D32714010F0A8
:103E000081E108C00E94CA1E8B838F3F91F38E3FD1
:103E100019F08FE0898329C0E114F104E1F081E019
:103E2000E81AF1088FEF8EBDF8012FEF06C00DB430
:103E300007FEFDCF8EB52EBD8193CF01801B910B68
:103E40008E159F05A0F30DB407FEFDCF8EB5F801CA
:103E5000EE0DFF1D80831B820E94CA1E0E94CA1E97
:103E6000CE010E94D61E81E004C0CE010E94D61E63
:103E700080E0DF91CF911F910F91FF90EF90DF9045
:103E8000CF9008950F931F93CF93DF938B010E94E0
:103E90003322EB0107C00E9433226C1B7D0B60179D
:103EA000710730F40E94CA1E8F3FA9F781E001C05C
:103EB00080E0DF91CF911F910F910895FF920F93B2
:103EC0001F93CF93DF9300D000D0CDB7DEB78C0126
:103ED000F62E29833A834B835C830E94DE1E6CE2BC
:103EE00071E0C8010E94421F8F2D80640E94D11E84
:103EF0008C810E94D11E8B810E94D11E8A810E94DA
:103F0000D11E89810E94D11EF11002C085E901C035
:103F100087E80E94D11E8CE0F81202C00E94CA1EDF
:103F2000F12C0E94CA1EF801838387FF05C0FFEFB2
:103F3000FF1611F0F394F5CF0F900F900F900F90A4
:103F4000DF91CF911F910F91FF9008950F931F93D1
:103F5000CF93DF93EC0189018C81833039F0E9E064
:103F6000440F551F661F771FEA95D1F79A01AB01E1
:103F700061E1CE010E945E1F81110AC040E052E063
:103F8000B801CE01DF91CF911F910F910C94EA1EE1
:103F900084E08983CE010E94D61E80E0DF91CF911C
:103FA0001F910F910895AF92BF92CF92DF92EF923F
:103FB000FF920F931F93CF93DF93EC01162F1C8278
:103FC000198248830E9433225B0161E088810E944C
:103FD000592361E088810E94912361E081E10E9480
:103FE000912361E081E10E94592360E08EE00E940C
:103FF000592361E080E10E94592361E08FE00E9433
:1040000059238BE08A830E94B71E0AE08FEF0E943B
:10401000D11E0150D9F709C00E9433226A197B09C9
:10402000613D774010F081E05BC020E030E0A90105
:1040300060E0CE010E945E1F813071F72AEA31E014
:1040400040E050E068E0CE010E945E1F853011F430
:1040500081E009C004E00E94CA1E8B830150D9F799
:104060008A3A19F482E08C8309C00E9433226A19CB
:104070007B09613D774010F382E032C08C81823051
:1040800031F4C12CD12CE12CF0E4FF2E0DC0C12C59
:10409000D12C760109C00E9433226A197B09613D47
:1040A000774010F08AE01CC020E030E0A90167E30F
:1040B000CE010E945E1FA701960169E2CE010E9417
:1040C0005E1F8111E8CF8C818230C9F420E030E09E
:1040D000A9016AE3CE010E945E1F882319F088E0DF
:1040E000898318C00E94CA1E807C803C11F483E042
:1040F0008C830E94CA1E0E94CA1E0E94CA1ECE0144
:104100000E94D61E1F3018F088E1898306C01A83EA
:1041100081E004C0CE010E94D61E80E0DF91CF91E5
:104120001F910F91FF90EF90DF90CF90BF90AF90D5
:1041300008950F931F93CF93DF93EC01862F8A018D
:104140000E94D11EF80180818EBD818122E030E085
:104150000DB407FEFDCF8EBD2115F2E03F0739F00B
:10416000F801E20FF31F80812F5F3F4FF1CF0DB4B5
:1041700007FEFDCF8FEF0E94D11E8FEF0E94D11E50
:104180000E94CA1E8B838F71853039F083E1898349
:10419000CE010E94D61E80E001C081E0DF91CF9168
:1041A0001F910F9108950F931F93CF93DF93EC010D
:1041B00089018C81833039F089E0440F551F661FD7
:1041C000771F8A95D1F79A01AB0168E1CE010E9471
:1041D0005E1F882311F086E029C0A8016EEFCE0192
:1041E0000E9499208823B9F068E572E0CE010E9410
:1041F000421F811102C087E119C020E030E0A9010F
:104200006DE0CE010E945E1F81110FC00E94CA1E88
:1042100081110BC005C0CE010E94D61E80E008C0EF
:10422000CE010E94D61E81E003C086E18983F3CFD0
:10423000DF91CF911F910F910895CF93DF93EC0100
:10424000662329F083969093A7068093A6068EA1F5
:10425000882321F0CE0183960E945D1ABE016B5F18
:104260007F4FCE018396DF91CF910C94C7190F93A6
:104270001F93CF93DF93EC01842F462F682FCE013D
:104280000E94D31F8823C9F08E010B5F1F4F41E0AE
:10429000BE01C8010E943915882341F061E0CE01BA
:1042A000DF91CF911F910F910C941D2140E0BE0131
:1042B000C8010E9439158111F1CF80E0DF91CF91C3
:1042C0001F910F910895CF93DF931F92CDB7DEB763
:1042D000698341E050E0BE016F5F7F4F04960E940A
:1042E000361D21E030E0019711F020E030E0C901F7
:1042F0000F90DF91CF91089504960C94361D823073
:1043000068F4813011F0E89801C0E998E82FF0E0F6
:10431000EE0FFF1FE855F94F1182108208951F928A
:104320000F920FB60F9211242F933F934F935F93E9
:104330006F937F938F939F93AF93BF93EF93FF936D
:104340008091A8069091A906892B29F0E091A806F2
:10435000F091A9060995FF91EF91BF91AF919F91BF
:104360008F917F916F915F914F913F912F910F901E
:104370000FBE0F901F9018951F920F920FB60F92BD
:1043800011242F933F934F935F936F937F938F935A
:104390009F93AF93BF93EF93FF938091AA06909161
:1043A000AB06892B29F0E091AA06F091AB0609959E
:1043B000FF91EF91BF91AF919F918F917F916F91FD
:1043C0005F914F913F912F910F900FBE0F901F90D3
:1043D00018951F920F920FB60F9211242F933F93AF
:1043E0008F939F93AF93BF938091AC069091AD064E
:1043F000A091AE06B091AF063091B406232F2D5F89
:104400002D3720F40196A11DB11D05C0232F2A5779
:104410000296A11DB11D2093B4068093AC06909323
:10442000AD06A093AE06B093AF068091B006909112
:10443000B106A091B206B091B3060196A11DB11DBF
:104440008093B0069093B106A093B206B093B306E2
:10445000BF91AF919F918F913F912F910F900FBE80
:104460000F901F9018950F931F938FB7F89400919A
:10447000AC061091AD062091AE063091AF068FBF0D
:10448000B801C9011F910F9108950F931F939FB712
:10449000F8940091B0061091B1062091B2063091C7
:1044A000B30686B5A89B06C08F3F21F00F5F1F4F54
:1044B0002F4F3F4F9FBF322F212F102F0027080F64
:1044C000111D211D311D42E0000F111F221F331F3E
:1044D0004A95D1F7B801C9011F910F910895CF9264
:1044E000DF92EF92FF92CF93DF936B017C010E94EA
:1044F0004522EB010EC00E9445226C1B7D0B683EDD
:10450000734038F081E0C81AD108E108F108C851B9
:10451000DC4FC114D104E104F10469F7DF91CF91BC
:10452000FF90EF90DF90CF900895019739F0880FBA
:10453000991F880F991F02970197F1F708957894B2
:1045400084B5826084BD84B5816084BD85B5826098
:1045500085BD85B5816085BDEEE6F0E08081816036
:104560008083E1E8F0E01082808182608083808136
:1045700081608083E0E8F0E0808181608083E1EB0E
:10458000F0E0808184608083E0EBF0E080818160F6
:104590008083E1E9F0E080818260808380818160B6
:1045A0008083E0E9F0E0808181608083E1ECF0E0ED
:1045B000808184608083808182608083808181604B
:1045C0008083E3ECF0E0808181608083E0ECF0E0C8
:1045D000808182608083E2ECF0E080818160808372
:1045E000EAE7F0E08081846080838081826080835C
:1045F0008081816080838081806880830895873096
:10460000A1F178F48330E1F030F4813019F1823097
:1046100009F04EC022C08430B9F0863009F048C09D
:1046200020C08A3081F130F4883029F1893009F0D6
:104630003FC025C08C3089F160F18E30C9F533C0A0
:10464000809180008F7703C0809180008F7D809360
:104650008000089584B58F7702C084B58F7D84BDB6
:1046600008958091B0008F7703C08091B0008F7D56
:104670008093B0000895809190008F7707C080915B
:1046800090008F7D03C080919000877F8093900081
:1046900008958091C0008F7703C08091C0008F7D06
:1046A0008093C00008958091C200877F8093C200EC
:1046B0000895CF93DF9390E0FC01E250FF4F4491C7
:1046C000FC01E45EFE4F8491882341F190E0880F65
:1046D000991FFC01EA5AFE4F25913491D901885B5C
:1046E0009E4FFC0185919491C82FD92F9FB7F894C4
:1046F0008C91611106C0409584238C93888184231A
:1047000008C0623041F4242F209582238C93888145
:10471000842B888302C0842B8C939FBFDF91CF9121
:1047200008950F931F93CF93DF931F92CDB7DEB7FA
:10473000282F30E0F901E251FF4F8491F901E25056
:10474000FF4F1491F901E45EFE4F04910023D1F074
:10475000882321F069830E94FF226981E02FF0E025
:10476000EE0FFF1FE85BFE4F85919491DC019FB730
:10477000F8948C91611103C01095812301C0812BA5
:104780008C939FBF0F90DF91CF911F910F91089550
:10479000CF93DF93282F30E0F901E251FF4F84914E
:1047A000F901E250FF4FD491F901E45EFE4FC4914C
:1047B000CC2389F081110E94FF22EC2FF0E0EE0F54
:1047C000FF1FE65CFE4F85919491DC018C918D2357
:1047D00021E030E011F420E030E0C901DF91CF9119
:1047E00008951F93CF93DF93182FEB0161E00E9490
:1047F0005923209711F460E004C0CF3FD10539F46C
:1048000061E0812FDF91CF911F910C949123E12FD3
:10481000F0E0E251FF4FE491E73009F449C078F449
:10482000E33051F130F4E130E9F0E23009F088C0D2
:104830001EC0E43059F1E63009F082C031C0EA30E0
:1048400009F452C030F4E830D9F1E93009F078C009
:1048500041C0EC3009F45FC008F450C0EE3009F0FC
:104860006FC061C084B5806884BDC7BD6EC084B5AB
:10487000806284BDC8BD69C08091800080688093DB
:104880008000D0938900C09388005FC08091800031
:10489000806280938000D0938B00C0938A0055C0C3
:1048A0008091B00080688093B000C093B3004DC089
:1048B0008091B00080628093B000C093B40045C086
:1048C00080919000806880939000D0939900C0936D
:1048D00098003BC080919000806280939000D093BC
:1048E0009B00C0939A0031C08091900088608093B3
:1048F0009000D0939D00C0939C0027C08091C00081
:1049000080688093C0008091C0008F7B8093C0003E
:10491000C093CF001AC08091C00080628093C00015
:10492000C093D00012C08091C20088608093C20002
:104930008091C2008B7F8093C200C093D20005C0DB
:10494000C038D1050CF05CCF56CFDF91CF911F91CD
:1049500008950E949F2287E097E00E946F2B0E949B
:104960003B11C0E0D0E00E945B102097E1F30E9471
:104970000000F9CF209103073091040780910507CB
:1049800090910607281B390B2F733327C90108950F
:104990002091030730910407809105079091060745
:1049A0002817390749F0E0910507F0910607ED5304
:1049B000F94F208130E002C02FEF3FEFC901089589
:1049C0002091030730910407809105079091060715
:1049D00028173907A1F0E0910507F0910607ED537C
:1049E000F94F2081809105079091060701968F73FA
:1049F0009927909306078093050730E002C02FEFB8
:104A00003FEFC90108950F931F93CF93DF931F9238
:104A1000CDB7DEB78C01698380910901882369F0E5
:104A200041E050E0BE016F5F7F4F83E00E94CB28E2
:104A30001816190614F49C0107C081E090E0F801F3
:104A40009383828320E030E0C9010F90DF91CF9102
:104A50001F910F91089583E00C94052B82E00E9432
:104A6000992820910307309104072F5F3F4F2F7340
:104A7000332740910507509106072417350759F051
:104A8000E0910307F0910407ED53F94F80833093D1
:104A90000407209303070895FC0120812E5F2083E3
:104AA00042E450E064E671E080E80C946629FC0181
:104AB00081819081913A59F4813209F04BC047E0ED
:104AC00050E062E071E080E00E94662945C09132CA
:104AD00009F040C0803239F467E070E082E091E094
:104AE0000E94B52939C0823209F034C08281809396
:104AF00009018091020190910301A0910401B091FC
:104B00000501803B9440A105B10531F58091090173
:104B100080FD12C087E797E7909301088093000813
:104B20002BE088E190E00FB6F894A89580936000A0
:104B30000FBE2093600010C088E10FB6F8948093F8
:104B40006000109260000FBEA895109201081092AC
:104B5000000802C080E0089581E008950895109251
:104B6000B8061092B70688EE93E0A0E0B0E080931C
:104B7000B9069093BA06A093BB06B093BC0683EC2B
:104B800093E09093B6068093B5060895CF92DF9296
:104B9000EF92FF920F931F93CF93DF936C01EB0182
:104BA0007A01E60EF71E00E010E00BC06991D60115
:104BB000ED91FC910190F081E02DC6010995080F5F
:104BC000191FCE15DF0591F7C801DF91CF911F9115
:104BD0000F91FF90EF90DF90CF900895DB010D9043
:104BE0000020E9F7AD0141505109461B570BDC018C
:104BF000ED91FC910280F381E02D09940C94EE2557
:104C0000DC01ED91FC910190F081E02D09940F936E
:104C10001F93CF93DF93EC016DE00E9400268C017F
:104C20006AE0CE010E9400269C01200F311FC901BD
:104C3000DF91CF911F910F9108950F931F93CF9301
:104C4000DF93EC010E94EE258C01CE010E94072625
:104C50009801280F391FC901DF91CF911F910F9142
:104C600008955F926F927F928F929F92AF92BF92C0
:104C7000CF92DF92EF92FF920F931F93CF93DF9328
:104C8000CDB7DEB7A1970FB6F894DEBF0FBECDBF8C
:104C90003C016A017B01522E19A281E0821710F0BB
:104CA0008AE0582E8E010F5D1F4F852C912CA12C70
:104CB000B12CC701B601A50194010E945A2F8C2D79
:104CC000529E80191124015011098A3014F4805D1C
:104CD00001C0895CF801808369017A01C114D104A3
:104CE000E104F10431F7B801C3010E94EE25A19659
:104CF0000FB6F894DEBF0FBECDBFDF91CF911F91ED
:104D00000F91FF90EF90DF90CF90BF90AF909F906A
:104D10008F907F906F905F9008952115310541F439
:104D2000DC01ED91FC910190F081E02D642F09945C
:104D30000C9431260F931F93CF93DF93EC010E94C5
:104D40008D268C01CE010E9407269C01200F311F69
:104D5000C901DF91CF911F910F9108959A01AB0185
:104D600060E070E00C948D260F931F93CF93DF9338
:104D7000EC019A01AB0160E070E00E948D268C018D
:104D8000CE010E9407269801280F391FC901DF9123
:104D9000CF911F910F9108950F931F93CF93DF939E
:104DA000EC019A01462F50E060E070E00E948D26F1
:104DB0008C01CE010E9407269801280F391FC901D6
:104DC000DF91CF911F910F910895CF92DF92EF92D3
:104DD000FF920F931F93CF93DF93EC016A017B0146
:104DE0002115310579F4E881F9810190F081E02DF8
:104DF000642FDF91CF911F910F91FF90EF90DF9083
:104E0000CF9009942A30310519F477FD0EC02AE0BD
:104E1000B701A601CE01DF91CF911F910F91FF90B5
:104E2000EF90DF90CF900C9431266DE20E94002627
:104E30008C0144275527BA014C195D096E097F0979
:104E40002AE0CE010E9431269C01200F311FC901AA
:104E5000DF91CF911F910F91FF90EF90DF90CF9056
:104E600008950F931F93CF93DF93EC010E94E526E3
:104E70008C01CE010E9407269C01200F311FC90121
:104E8000DF91CF911F910F9108959A01AB01662791
:104E900057FD6095762F0C94E5260F931F93CF93C3
:104EA000DF93EC019A01AB01662757FD6095762FE1
:104EB0000E94E5268C01CE010E9407269801280F4A
:104EC000391FC901DF91CF911F910F9108954F9222
:104ED0005F926F927F928F929F92AF92BF92CF928A
:104EE000DF92EF92FF920F931F93CF933C014A0101
:104EF0005B01C22F20E030E0A901C501B4010E948E
:104F0000362D87FF0AC06DE2C3010E9400262C01E6
:104F1000B7FAB094B7F8B09402C0412C512C10E00D
:104F200060E070E080E09FE307C020E030E040E216
:104F300051E40E943A2D1F5F1C13F7CF262F372F05
:104F4000482F592FC501B4010E94D22C962EA72EAE
:104F5000B82EC92E0E94A72DD62EE72EF82E192F77
:104F60000E94D32D9B01AC01692D7A2D8B2D9C2D98
:104F70000E94D12CC62EB72EA82E992E2AE04D2D98
:104F80005E2D6F2D712FC3010E9431268C01040DFF
:104F9000151DCC23B9F16AE671E0C3010E94EE252C
:104FA000080F191F2FC020E030E040E251E46C2DC3
:104FB0007B2D8A2D992D0E94892E4B015C01792D24
:104FC0009B2D0E94A22D6B01EE24D7FCE094FE2CB9
:104FD0002AE030E0B701A601C3010E94E526080FD0
:104FE000191FC701B6010E94D52D9B01AC01682D88
:104FF000792D8A2D9B2D0E94D12CC62EB72EA82E3E
:10500000992EC150C111CFCFC801CF911F910F91DF
:10501000FF90EF90DF90CF90BF90AF909F908F90D8
:105020007F906F905F904F9008950C9467270F9337
:105030001F93CF93DF93EC010E9467278C01CE0171
:105040000E9407269801280F391FC901DF91CF91CF
:105050001F910F91089505C02091F100FC0121934B
:10506000CF016150C8F7289884E680930E07089511
:105070002FB7FC012083F89467706093E9000895CE
:10508000CF93DF931F92CDB7DEB7682FCE01019685
:105090000E9438288091F20099819FBF0F90DF9184
:1050A000CF910895FF920F931F93CF93DF9300D07A
:1050B000CDB7DEB7F62E8A0190910D079923A9F09E
:1050C00057FF16C012C0289880930E079091F100E8
:1050D0009193FE12F8CF4115510521F08091F20015
:1050E0008823D1F089818FBF1BC04FEF5FEF18C0BD
:1050F000682FCE0101967A830E9438288091F200B1
:1051000090E0A8017A81801791070CF4AC01EF2D93
:10511000F72FF40E84E6DDCF8BE68093E800E2CF34
:10512000CA010F900F90DF91CF911F910F91FF90C7
:105130000895CF93DF931F92CDB7DEB741E050E0E3
:10514000BE016F5F7F4F0E945228019719F4298199
:1051500030E002C02FEF3FEFC9010F90DF91CF91F8
:105160000895CF93DF931F92CDB7DEB7682FCE019E
:1051700001960E9438288091E80085FF05C0909133
:10518000F20080E4891B01C080E099819FBF0F90ED
:10519000DF91CF9108956F927F928F929F92AF92FD
:1051A000BF92CF92DF92EF92FF920F931F93CF9314
:1051B000DF931F92CDB7DEB7C82EA42E952E809117
:1051C0000D0781114CC02FEF3FEF64C08C2D0E9462
:1051D000B128D82E811109C0BA94A9F361E070E01A
:1051E00080E090E00E946F2247C0282F30E0021735
:1051F00013070CF4D02E0D1911096C2DCE01019658
:105200000E943828772041F002C01092F100DA9411
:105210008FEFD812FACF17C08D2DC7FC02C0F7014F
:105220000EC0970106C0F9012F5F3F4FE491E09354
:10523000F1008150C0F705C091919093F100815029
:10524000D8F7ED0CF11C8091E80085FF20C0011516
:10525000110511F461101BC089818FBF0DC07B0146
:10526000042F152F8AEFB82E90E2792E7C202AE3A6
:10527000822E30E4632E6C200115110509F0A6CFB3
:105280005D9884E680930F072A2D392D03C0809204
:10529000E800E2CFC9010F90DF91CF911F910F91EC
:1052A000FF90EF90DF90CF90BF90AF909F908F9046
:1052B0007F906F9008951092E90010920C07109261
:1052C0000B0790930A07809309070895FF920F93A5
:1052D0001F93CF93DF939A01DB0160E070E0EEEF64
:1052E000FE2E35C0ED01219687FF04C0FD01DE01D1
:1052F000E49102C0EC91DE0100910B0710910C07C4
:10530000C0910907D0910A070C171D07ACF49091C2
:10531000E8009570E1F39091E80092FD1DC0E093E4
:10532000F100E0910B07F0910C073196EF73FF2726
:10533000EF2B11F4F092E800E0910B07F0910C07CD
:105340003196F0930C07E0930B076F5F7F4F621766
:10535000730741F69A0102C02FEF3FEFC901DF91B9
:10536000CF911F910F91FF9008951F93CF93DF93DB
:105370001F92CDB7DEB7162F2091E80022FFFCCF99
:10538000612F79830E942B288BEF8093E800812F77
:105390007981972F0F90DF91CF911F910895CF932F
:1053A000DF931F92CDB7DEB71982CE0101960E941E
:1053B0004C25CE0101960E94AC2B898190E00F9084
:1053C000DF91CF9108951F920F920FB60F92112483
:1053D000EF92FF920F931F932F933F934F935F93FF
:1053E0006F937F938F939F93AF93BF93EF93FF93AD
:1053F000CF93DF93CDB7DEB76297DEBFCDBF1092FC
:10540000E9008091E80083FFE3C068E0CE010A96DE
:105410000E942B2882EF8093E8009A8597FF05C0B1
:105420008091E80080FFFCCF03C08EEF8093E800FE
:10543000892F807609F0B1C08B85811103C010924D
:10544000F100BFC0813009F4BCC0833009F4B9C099
:10545000853049F48091E80080FFFCCF8C8580681E
:105460008093E300AEC0863009F06FC02D85E888D8
:10547000F988223071F580E090E02A8B0E945B2948
:105480000E94CF2999E08E010F5F1F4FF801392F3D
:1054900011923A95E9F799832A892A8391E09E83AC
:1054A00090E898879AEF998720910B0730910C0725
:1054B000275F3F4F3C832B838D83C7010E945B296D
:1054C00049E050E0B80180E00E9466290E94CF299F
:1054D00078C0C7012A8B0E945B292A89223241F4B5
:1054E00082E290E00E94B72B892B09F06AC06DC060
:1054F000213071F488899989089719F481E08093A3
:10550000080780910807882389F06BEA71E016C0CC
:10551000233009F05AC08C85882359F0823061F01D
:10552000813009F052C06FEC71E008C06DEB71E0A2
:1055300005C069E072E002C067EE71E0FB014491D2
:1055400050E080E80E9466293CC0873009F43DC0E5
:10555000883021F481E08093F10033C0893089F5EF
:10556000937099F5E7EAF1E081E021E096E380931A
:10557000E9002093EB0034913093EC009093ED0020
:105580008F5F3196853099F78EE78093EA0010920D
:10559000EA008C8580930D0714C0888999890E9440
:1055A0005B298E85811105C0CE010A960E94572580
:1055B00006C0823051F4CE010A960E94DF2B882368
:1055C00021F08EEF8093E80003C081E28093EB002E
:1055D00062960FB6F894DEBF0FBECDBFDF91CF91BC
:1055E000FF91EF91BF91AF919F918F917F916F91BB
:1055F0005F914F913F912F911F910F91FF90EF90ED
:105600000F900FBE0F901F9018958093E900809126
:10561000F200882319F08AE38093E80008951F922E
:105620000F920FB60F9211242F933F934F935F93D6
:105630006F937F938F939F93AF93BF93EF93FF935A
:105640008091E1001092E10083FF0FC01092E90009
:1056500091E09093EB001092EC0092E39093ED00B8
:1056600010920D0798E09093F00082FF27C083E02E
:105670000E94052B04C085EB96E00E942E2582E057
:105680000E9440288111F7CF80910F07882339F0BD
:1056900080910F07815080930F07882361F08091DC
:1056A0000E07882359F080910E07815080930E07D2
:1056B000882319F003C05D9AF2CF289AFF91EF91E9
:1056C000BF91AF919F918F917F916F915F914F911A
:1056D0003F912F910F900FBE0F901F901895109231
:1056E0000D0781E08093D70080EA8093D80082E1A3
:1056F00089BD09B400FEFDCF61E070E080E090E07C
:105700000E946F2280E98093D8008CE08093E200B1
:105710001092E000559A209A0895FF920F931F93DC
:10572000CF93DF93EC01F62EE881F9810480F581B7
:10573000E02D09958C01E881F9810680F781E02D43
:105740006F2DCE01099598013327C901DF91CF91C3
:105750001F910F91FF900895FC0120812F5F2083FE
:1057600049E150E06DE872E080E80C94662945E676
:1057700050E066EA72E080E80C946629EF92FF92AE
:105780000F931F93CF93DF931F92CDB7DEB789831B
:105790008B017A0141E050E0BE016F5F7F4F84E0F2
:1057A0000E94CB28A701B80184E40E94CB280F9067
:1057B000DF91CF911F910F91FF90EF900895FC0121
:1057C00091818081813A31F481E0913091F0933080
:1057D00091F010C0813271F49B3021F4828180936A
:1057E0000B0105C09A3031F4828180930A0181E077
:1057F0000895089580E0089548E050E082E00C9418
:10580000BE2BFC0116821782108611861286138623
:105810001482BC016C5F7F4F0C94FC2BE62F683820
:1058200010F0E85824C0F0E067FF12C0E058F1091A
:1058300021E030E001C0220FEA95EAF72095DC0173
:1058400014963C911497322314963C93E0E00FC0D9
:10585000E35FFD4FE491EE2329F1E7FF08C0DC018F
:1058600014962C9114972D7F14962C93EF7720E0AB
:1058700030E0EE2351F0DC01A20FB31F16964C91DD
:1058800016974E1302C016961C922F5F3F4F26307C
:10589000310579F7BC016C5F7F4F0E94FC2B21E042
:1058A00030E002C020E030E0C9010895CF93DF93DB
:1058B000DC01E62F683810F0E85824C0F0E067FFFC
:1058C00011C0E058F10981E090E001C0880FEA952D
:1058D000EAF714969C911497982B14969C9314971E
:1058E000E0E010C0E35FFD4FE491E11101C040C072
:1058F000E7FF08C014968C911497826014968C93DD
:105900001497EF7716968C9116978E1741F117968C
:105910008C9117978E1719F118968C9118978E17EE
:10592000F1F019968C9119978E17C9F01A968C91EF
:105930001A978E17A1F01B968C911B978E1779F0F2
:1059400080E090E0ED01C80FD91F2E81211102C027
:10595000EE8305C0019686309105A1F709C0BD010F
:105960006C5F7F4FCD010E94FC2B21E030E008C02E
:1059700081E090E013969C938E93129720E030E0A4
:10598000C901DF91CF91089510921C07109213075F
:105990001092120785ED93E0909311078093100702
:1059A00008955058BB27AA270ED075C166D130F094
:1059B0006BD120F031F49F3F11F41EF45BC10EF463
:1059C000E095E7FB51C1E92F77D180F3BA17620761
:1059D00073078407950718F071F49EF58FC10EF4D4
:1059E000E0950B2EBA2FA02D0B01B90190010C01EF
:1059F000CA01A0011124FF27591B99F0593F50F407
:105A0000503E68F11A16F040A22F232F342F44275E
:105A1000585FF3CF469537952795A795F040539556
:105A2000C9F77EF41F16BA0B620B730B840BBAF026
:105A30009150A1F0FF0FBB1F661F771F881FC2F791
:105A40000EC0BA0F621F731F841F48F487957795A5
:105A50006795B795F7959E3F08F0B3CF9395880F5C
:105A600008F09927EE0F979587950895D9D008F4F7
:105A700081E008950CD00FC107D140F0FED030F086
:105A800021F45F3F19F0F0C0511139C1F3C014D1B6
:105A900098F39923C9F35523B1F3951B550BBB27F5
:105AA000AA2762177307840738F09F5F5F4F220FA2
:105AB000331F441FAA1FA9F333D00E2E3AF0E0E89B
:105AC00030D091505040E695001CCAF729D0FE2FE7
:105AD00027D0660F771F881FBB1F26173707480779
