:100000000C94B5010C94C1230C94EE230C941B2486
:100010000C9448240C94DD010C94DD010C94DD015A
:100020000C94DD010C94DD010C94902C0C94172D94
:100030000C94DD010C94DD010C94DD010C94DD01C8
:100040000C94DD010C94DD010C94DD010C94DD01B8
:100050000C94DD010C94DD010C94DD010C947524ED
:100060000C94DD010C94DD010C94DD010C94DD0198
:100070000C94DD010C94DD010C94DD010C94DD0188
:100080000C94DD010C94DD010C94DD010C94DD0178
:100090000C94DD010C94DD010C94DD010C94DD0168
:1000A0000C94DD010C94DD010C94DD010D0E180E95
:1000B000230E260E5B0E630EB10ED20ED40EE90E89
:1000C000EC0E3D11F50E3D113D110A0F290F671081
:1000D0006C1084109B103D110E111B1127113A1149
:1000E0007C3C3E5E2B3D3F2F5B5D3B2C2A225C001F
:1000F00000000000240027002A002D00300000002E
:100100000000250028002B002E0031000000000018
:100110002300260029002C002F00040404040403FB
:100120000405020202020403020202020606060697
:100130000606040402020204040802011040804082
:1001400010204080408008020401804020100201FD
:100150001080102040400000000200080E00000344
:100160000401000B0000000000000000000000007F
:1001700000000000070605040100080A0B0C0D0929
:10018000080B000202020100090400000102020043
:1001900000052400100105240101010424020605C4
:1001A0002406000107058103100040090401000234
:1001B0000A00000007050202400000070583024014
:1001C000000004030904220341007200640075006A
:1001D00069006E006F0020004C0065006F006E002B
:1001E0006100720064006F00180341007200640037
:1001F000750069006E006F0020004C004C00430049
:10020000120100020000004041233680000101027B
:10021000000112010002020000404123368000016B
:100220000102000100C18081C105010902A101098B
:1002300001A1008501050919012903150025019572
:1002400003750181029501750581030501093009D6
:100250003109381581257F750895038106C0C005D1
:10026000010906A1018502050719E029E715002506
:100270000175019508810295017508810395067540
:1002800008150025650507190029658100C00904C6
:1002900002000103000000092101010001226500A4
:1002A0000705840340000100000000000000002A50
:1002B0002B280000000000000000000000000000EB
:1002C000000000000000002C9EB4A0A1A2A434A64F
:1002D000A7A5AE362D3738271E1F2021222324251F
:1002E00026B333B62EB7B89F8485868788898A8BD4
:1002F0008C8D8E8F909192939495969798999A9BC6
:100300009C9D2F3130A3AD350405060708090A0B63
:100310000C0D0E0F101112131415161718191A1BA5
:100320001C1DAFB1B0B500494E46494E4954594E17
:10033000414ECDCCCC3D0AD7233C17B7D13877CC32
:100340002B329595E6241FB14F0A00002041000092
:10035000C84200401C4620BCBE4CCA1B0E5AAEC54B
:100360009D740B047727CC2B9A2E11241FBECFEF40
:10037000DAE0DEBFCDBF14E0A0E0B1E0E4E6F5E6F0
:1003800002C005900D92A230B107D9F717E0A2E0A4
:10039000B4E001C01D92A134B107E1F713E0CAE651
:1003A000D3E004C02297FE010E946A32C236D10710
:1003B000C9F70E9419270C94B0320C9400006627EC
:1003C00077270C94F901FB01DC0104C08D910190A9
:1003D000801921F441505040C8F7881B990B0895AB
:1003E000FB01DC0102C001900D9241505040D8F752
:1003F0000895A0E0B0E0EFEFF1E00C947F32EC0163
:100400005B016115710519F0FB0191838083F990FF
:100410008F2D90E00E946E32892BC9F7FDE2FF1606
:1004200021F4F990EE24E39405C02BE2F21609F4CE
:10043000F990EE248E0101501040C80167E273E08C
:1004400043E050E00E945903892B01F58E010E5FB5
:100450001F4FC8016AE273E045E050E00E94590373
:10046000892B19F48E01095F1F4FA114B10419F0F3
:10047000F50111830083E0FC04C070E090E080E8A7
:1004800014C070E090E080E86FEF08C1C8016FE22F
:1004900073E043E050E00E945903892B69F4A114F2
:1004A000B10429F470E090E080EC6FE7F7C0229689
:1004B000F501D183C083F6CF8824992440E050E031
:1004C00060E070E0EF2DE053EA30A0F5F2E0EF2AB3
:1004D0008E2D90E09C0128703070E2FE06C0232B28
:1004E00079F50894811C911C2BC0232B19F00894DA
:1004F00081089108DB01CA0112E0880F991FAA1F29
:10050000BB1F1A95D1F7480F591F6A1F7B1F440F55
:10051000551F661F771F4E0F511D611D711D4839F4
:1005200029E9520729E9620729E1720748F084E0C6
:10053000E82A06C0EE3F31F4E3FC39C098E0E92A2E
:10054000F990C0CFE53311F0E53189F529912D32CD
:1005500019F4E0E1EE2A05C02B3219F081E090E0B9
:1005600003C0299182E090E0E22FE053EA3018F0D6
:10057000C81BD90B1CC020E030E0FCE020383F074E
:100580005CF4C901880F991F880F991F280F391F24
:10059000220F331F2E0F311DE991E053EA3068F32B
:1005A000E4FE03C0309521953F4F820E931ECE2C62
:1005B000DD24E1FE07C0A114B10421F02197F5016B
:1005C000D183C083CB01BA010E94A5307B018C018D
:1005D000F3E0CF22DD2423E0C216D10421F417FB7F
:1005E000109517F9109557016801C801B70120E06F
:1005F00030E040E050E00E940830882309F44AC00F
:1006000097FE0DC026E4E22E23E0F22E9094819412
:1006100091089394C0E2D0E000E010E012C09EE5A3
:10062000E92E93E0F92EF6CFF7012591359145910A
:100630005491C601B5010E945B315B016C018C1ABB
:100640009D0A8C169D0684F7D595C7950F5F1F4FA1
:100650000630110529F08CEF9FEFE80EF91EF1CF5F
:10066000C501D6017C018D018C2D880F8D2D881F31
:100670008F3F51F0C601B50120E030E040E050E08E
:100680000E940830882331F482E290E09093400782
:1006900080933F077E2D9F2D802F612F272F392F8D
:1006A000482F562FB901CA01CDB7DEB7ECE00C9444
:1006B0009B32FB01DC014150504088F08D91813428
:1006C0001CF08B350CF4805E659161341CF06B3549
:1006D0000CF4605E861B611171F3990B0895881B01
:1006E000FCCF6F927F928F929F92AF92BF92CF92E8
:1006F000DF92EF92FF920F931F93CF93DF93EB0163
:10070000AA2797FDA095BA2FBC01CD010E94A73062
:100710003B014C01A0900404B0900504C090060475
:10072000D090070460910C0470910D04882777FD28
:100730008095982F0E94A730A60195010E945B31F9
:100740007B018C01C401B301A80197010E9408300C
:1007500087FD50C0C601B50120910E0430910F04F1
:1007600040911004509111040E945B31A80197013F
:100770000E94A32F9B01AC01C401B3010E94573119
:100780001816C4F1BE01882777FD8095982F0E9426
:10079000A7303B014C0160910A0470910B0488273B
:1007A00077FD8095982F0E94A730A60195010E94A1
:1007B0005B319B01AC01C401B3010E94083087FD8D
:1007C00019C010E0C601B501209112043091130444
:1007D00040911404509115040E945B319B01AC01BF
:1007E000C401B3010E94573118160CF411E081E0E6
:1007F000182701C010E0812FDF91CF911F910F9139
:10080000FF90EF90DF90CF90BF90AF909F908F9030
:100810007F906F90089510922D041092300489E11A
:1008200080935A0410925D041092750410927C0417
:1008300010927F0410929B0410929E0410929A04CE
:10084000109299048DED93E090939804809397040F
:1008500008950F931F93CF93DF93C2E0D4E060E03D
:1008600070E08B010F5F1F4F86EB94E00E942C130A
:100870008993B80109321105A1F7DF91CF911F913A
:100880000F9108950F931F93CF93DF93C2E0D4E0AD
:1008900060E070E08B010F5F1F4F499186EB94E0A1
:1008A0000E943313B80109321105A1F7DF91CF91EE
:1008B0001F910F910895EF92FF920F931F93CF9383
:1008C000DF938C018BE197E00E942D271816190603
:1008D0001CF020E030E021C065E070E080E090E0B6
:1008E0000E94CB248BE197E00E942D277C01C0E081
:1008F000D0E00BC08BE197E00E9454278C3241F08E
:10090000F801EC0FFD1F80832196CE15DF0594F3CF
:100910009E010C0F1D1FF8011082C901DF91CF91BC
:100920001F910F91FF90EF900895EF92FF920F9318
:100930001F937C010BE117E0C80160E071E00E94A9
:10094000092AC801B7014AE050E00E94EA291F9134
:100950000F91FF90EF900895EF92FF920F931F93E6
:100960007C019093CE038093CD030BE117E0C80187
:100970006CE071E00E94092AC801B7014AE050E02A
:100980000E94EA291F910F91FF90EF900895CF9355
:10099000DF9364E670E080E090E00E94CB248BE17E
:1009A00097E00E942D278997A9F4C2E0D4E005C002
:1009B0008BE197E00E945427899384E0CB32D807DB
:1009C000B9F70E9442048BE197E067E171E00E9471
:1009D000062B23C08BE197E066E271E00E94092AB2
:1009E0008BE197E069E270E04AE050E00E9437292D
:1009F0008BE197E060E471E00E94092A8BE197E0C7
:100A00000E942D27BC018BE197E04AE050E00E9454
:100A1000EA298BE197E00E94B627DF91CF910895F4
:100A2000109236041092350410C0EE5FFB4F8BE13C
:100A300097E060810E948E27809135049091360462
:100A400001969093360480933504E0913504F0913B
:100A50003604E932F10548F38BE197E065E471E093
:100A60000E94062B0895CF92DF92EF92FF920F9390
:100A70001F937C010BE117E0C80166E471E00E945E
:100A8000092AF7016081772767FD7095C8014AE060
:100A900050E00E94D729C8016AE471E00E94092A47
:100AA000C801F70161810E946C288CE4C82E81E0A6
:100AB000D82EC801B6010E94092AF701428153814C
:100AC00064817581C80122E030E00E94F02AC801EB
:100AD000B6010E94092AF701468157816085718518
:100AE000C80122E030E00E94F32A1F910F91FF908D
:100AF000EF90DF90CF9008950F931F93DF93CF93E4
:100B0000CDB7DEB727970FB6F894DEBF0FBECDBFC7
:100B10008E010F5F1F4FC8010E945B04892B29F4CF
:100B200060E070E080E090E003C0C8010E94DF0157
:100B300027960FB6F894DEBF0FBECDBFCF91DF91E1
:100B40001F910F9108952F923F924F925F926F9253
:100B50007F928F929F92AF92BF92CF92DF92EF924D
:100B6000FF920F931F93DF93CF93CDB7DEB72897F4
:100B70000FB6F894DEBF0FBECDBF5B01AA2797FD6D
:100B8000A095BA2FBC01CD010E94A73069837A835A
:100B90008B839C83E0900404F0900504009106048C
:100BA00010910704A80197010E940C303B014C01F1
:100BB000C801B70120911B0430911C0440911D0411
:100BC00050911E040E945B316D837E838F839887D2
:100BD000C801B70120910E0430910F044091100418
:100BE000509111040E945B312D813E814F815885C7
:100BF0000E94A32F1B012C01CC24B7FCC094DC2C39
:100C0000C601B5010E94A730A80197010E940C30CF
:100C10005B016C01C401B301A40193010E945B312B
:100C20007B018C01C201B101A20191010E945B31E3
:100C30009B01AC01C801B7010E94A42F7B018C016C
:100C4000C601B501A60195010E945B319B01AC0173
:100C5000C801B7010E94A32F7B018C01C401B3011D
:100C6000A40193010E94A42FA20191010E945B3173
:100C70009B01AC01C801B7010E940C307B018C01C3
:100C800029813A814B815C810E945B315B016C015F
:100C90006D817E818F81988520E030E040E05FE3C8
:100CA0000E945B319B01AC01C601B5010E94A42FDB
:100CB0000E9474307093410460934004C801B701EE
:100CC000A80197010E945B319B01AC0160E070E0DC
:100CD00080E89FE30E94A32F0E94C23129813A81BC
:100CE0004B815C810E945B310E947430709343049D
:100CF0006093420428960FB6F894DEBF0FBECDBFB6
:100D0000CF91DF911F910F91FF90EF90DF90CF90E7
:100D1000BF90AF909F908F907F906F905F904F901B
:100D20003F902F900895CF92DF92EF92FF920F9312
:100D30001F93F82ED92EE62EC72E88E06F2D0E9425
:100D4000112689E06E2D0E9411260BE117E0C801E3
:100D50006EE471E00E94092AC8016F2D7D2D4AE0E2
:100D600050E00E94EA29C80168E571E00E94092A62
:100D7000C8016E2D7C2D4AE050E00E94EA291F91A7
:100D80000F91FF90EF90DF90CF900895682F85E14D
:100D90000E9411260895EF92FF920F931F937C01FA
:100DA00080E00E94C6060027F7FC0095102FC801BE
:100DB000B7010E94CB2481E00E94C6061F910F91CB
:100DC000FF90EF90089582E090E00E94CB0662E3EE
:100DD00070E080E090E00E94CB2482E090E00E94EE
:100DE000CB0668EE73E080E090E00E94CB2408958B
:100DF00082E090E00E94CB0664E670E080E090E044
:100E00000E94CB2482E090E00E94CB0668EE73E063
:100E100080E090E00E94CB24089581E00E94C60605
:100E2000089587E160E00E9411261EBC0DB407FE04
:100E3000FDCF8EB587E161E00E9411260895EF9203
:100E4000FF920F931F937C018BE0B7010E947426E1
:100E50000BE117E0C80162E671E00E94092AC801AF
:100E6000B7014AE050E00E94EA291F910F91FF90DC
:100E7000EF900895EF92FF920F931F937C018AE009
:100E8000B7010E9474260BE117E0C8016AE671E021
:100E90000E94092AC801B7014AE050E00E94EA29ED
:100EA0001F910F91FF90EF9008950F931F938C0166
:100EB0000E943A07C8010E941F071F910F910895D1
:100EC000813069F480934804809121049091220438
:100ED0000E9455078BE197E062E771E00CC0109229
:100EE000480480911F04909120040E9455078BE1D3
:100EF00097E061E871E00E94062B0895EF92FF925F
:100F00000F931F93CF93DF93EC01809148048823C4
:100F100019F080E00E94600700E010E0EE24FF245A
:100F2000EC1AFD0A10C01C161D0614F45A9A01C0D2
:100F30005A985998599A8091CD039091CE030E9466
:100F400024250F5F1F4FCE01D7FDC70108171907D2
:100F500054F3DF91CF911F910F91FF90EF9008957F
:100F6000EF92FF920F931F93CF93DF93EC01809149
:100F70004804882319F080E00E94600700E010E038
:100F8000EE24FF24EC1AFD0A10C01C161D0614F4F2
:100F90005C9801C05C9A5B985B9A8091CD039091BC
:100FA000CE030E9424250F5F1F4FCE01D7FDC7013E
:100FB0000817190754F3DF91CF911F910F91FF90FC
:100FC000EF9008952F923F924F925F926F927F928F
:100FD0008F929F92AF92BF92CF92DF92EF92FF9249
:100FE0000F931F93DF93CF93CDB7DEB72A970FB63A
:100FF000F894DEBF0FBECDBF6B837C838D839E8351
:101000002F83388749875A876090040470900504BD
:101010008090060490900704C401B30120911B0442
:1010200030911C0440911D0450911E040E945B31BC
:1010300020E030E040E05FEB0E945B311B012C01BF
:101040006B817C818D819E81A20191010E94A42FE0
:101050009B01AC010E945B317B018C016F81788523
:1010600089859A859B01AC010E945B315B016C0113
:10107000C801B701A60195010E94A42F0E94C231A8
:101080000E9474307A836983C401B30120910E04F5
:1010900030910F0440911004509111040E945B3173
:1010A0002B813C814D815E810E94A32FA201910181
:1010B0000E94A42F9B01AC010E945B319B01AC01FB
:1010C000CA01A60195010E94A42F0E94C2310E946C
:1010D00074307B01809144049091450429813A81C8
:1010E000281739071CF40FEF1FEF02C001E010E0D2
:1010F000E981FA81E817F90711F400E010E0809126
:10110000460490914704E816F90624F4CC24CA94C6
:10111000DC2C03C021E0C22ED12CE816F906E1F444
:10112000CC24DD2419C0800F911F90934504809337
:101130004404C8010E94B00780914604909147047E
:101140008E159F0549F08C0D9D1D9093470480934B
:101150004604C6010E947E07809144049091450494
:1011600029813A8182179307F1F680914604909184
:1011700047048E159F0501F76B817C818D819E81CF
:101180000E94743070934104609340046F817885AD
:1011900089859A850E947430709343046093420459
:1011A0002A960FB6F894DEBF0FBECDBFCF91DF9168
:1011B0001F910F91FF90EF90DF90CF90BF90AF9075
:1011C0009F908F907F906F905F904F903F902F9067
:1011D00008952F923F924F925F926F927F928F92DB
:1011E0009F92AF92BF92CF92DF92EF92FF920F93B6
:1011F0001F93DF93CF93CDB7DEB76E970FB6F894FA
:10120000DEBF0FBECDBF6F87788B898B9A8B2B8B00
:101210003C8B4D8B5E8BEF8AF88E098F1A8FAB8ECD
:10122000BC8ECD8EDE8E80E090E0A0E0B0E08B87BB
:101230009C87AD87BE878F839887A987BA878B8362
:101240009C83AD83BE831A82198260E070E080E8DF
:101250009FE32B813C814D815E810E94A32F7B0106
:101260008C01A80197010E945B315B016C016B81CD
:101270007C818D819E819B01AC010E94A42FA801DD
:1012800097010E945B311B012C016B817C818D8158
:101290009E819B01AC010E945B317B018C01C601E8
:1012A000B5012F85388949895A890E945B313B01F4
:1012B0004C01C201B1012BA93CA94DA95EA90E9414
:1012C0005B319B01AC01C401B3010E94A42F3B011F
:1012D0004C01C801B7012F89388D498D5A8D0E9464
:1012E0005B319B01AC01C401B3010E94A42F3B01FF
:1012F0004C01C601B5012B893C894D895E890E944C
:101300005B315B016C01C201B1012FA938AD49AD60
:101310005AAD0E945B319B01AC01C601B5010E9430
:10132000A42F5B016C01C801B7012B8D3C8D4D8D45
:101330005E8D0E945B319B01AC01C601B5010E942C
:10134000A42F5B016C016B857C858D859E85A40136
:1013500093010E94A32F7B018C0120E030E040E04C
:1013600050E00E94573118165CF4C801B70120E024
:1013700030E040E85FE30E945731181694F10AC04C
:10138000C801B70120E030E040E85FEB0E94083080
:1013900087FD27C06F81788589859A85A60195018B
:1013A0000E94A32F7B018C0120E030E040E050E060
:1013B0000E94573118165CF4C801B70120E030E0F4
:1013C00040E85FE30E94573118165CF018C0C8016E
:1013D000B70120E030E040E85FEB0E94083088234E
:1013E00074F4C401B301A60195010E94E2076B8663
:1013F0007C868D869E86AF82B886C986DA866B81AA
:101400007C818D819E812AE037ED43E25BE30E947F
:10141000A42F6B837C838D839E83A981BA811196CF
:10142000BA83A983A159B14009F00FCF6E960FB6C8
:10143000F894DEBF0FBECDBFCF91DF911F910F910A
:10144000FF90EF90DF90CF90BF90AF909F908F90E4
:101450007F906F905F904F903F902F9008954F92A4
:101460005F926F927F928F929F92AF92BF92CF9234
:10147000DF92EF92FF920F931F93DF93CF9300D0F1
:1014800000D0CDB7DEB72B013C0129833A834B83D3
:101490005C830E9474307B018C0169817A818B812D
:1014A0009C810E9474309B01AC01C701B9010E946C
:1014B0007103882339F48BE197E064E971E00E94BD
:1014C000062B69C06091400470914104882777FD24
:1014D0008095982F0E94A7305B016C0160914204B7
:1014E00070914304882777FD8095982F0E94A7303C
:1014F0007B018C018DB79EB708970FB6F8949EBFFD
:101500000FBE8DBF8DB69EB60894811C911CC30181
:10151000B201A60195010E94A32F20E030E040E037
:101520005FE30E945B319B01AC01C601B5010E94E3
:10153000A42FF401608371838283938369817A810C
:101540008B819C81A80197010E94A32F20E030E0AD
:1015500040E05FE30E945B319B01AC01C801B70131
:101560000E94A42FF4016483758386839783C60148
:10157000B501A801970183017201A980BA80CB80CF
:10158000DC800E94E9088DB79EB708960FB6F894E4
:101590009EBF0FBE8DBF0F900F900F900F90CF91F9
:1015A000DF911F910F91FF90EF90DF90CF90BF9050
:1015B000AF909F908F907F906F905F904F90089525
:1015C000CF93DF93C0E0D0E009C08FEF9FEF0E9480
:1015D000B0078FEF9FEF0E947E0721968DE00E945B
:1015E0004426892B91F38BE197E065EA71E00E9434
:1015F000062BCE01DF91CF910895CF93DF93C0E00A
:10160000D0E009C081E090E00E94B0078FEF9FEF2B
:101610000E947E07219685E00E944426892B91F343
:101620008BE197E068EB71E00E94062BCE01DF9121
:10163000CF910895EF92FF920F931F93CF93DF9373
:10164000EC010E94B0078BE197E06CEC71E00E9426
:10165000092A8BE197E0BE014AE050E00E94D729B9
:101660008BE197E063ED71E00E94062B06C064E613
:1016700070E080E090E00E94CB248BE197E00E9434
:101680002D27892BA1F30E947C057B018C01BE01D3
:10169000882777FD8095982F0E94A730A801970191
:1016A0000E940C30AB01BC018BE197E022E030E0FE
:1016B0000E94F32ADF91CF911F910F91FF90EF903D
:1016C000089580911F04909120040E9455078091F5
:1016D000290490912A040E94AC0480E797E10E94BB
:1016E000950480E090E060E070E00E949306089529
:1016F0002F923F924F925F926F927F928F929F9222
:10170000AF92BF92CF92DF92EF92FF920F931F930F
:10171000DF93CF9300D000D0CDB7DEB780E00E943A
:1017200060070E94F80680E090E060E070E00E94B0
:10173000930653E2452E54E0552E80912304909158
:1017400024040E943A0780912504909126040E9467
:101750001F0780912704909128040E94AC040E94E6
:10176000E00AAFE1B4E08D919C910E94550784E6B8
:1017700090E00E94B0070E94FD0A7C0145EE242EF5
:101780004FEF342E240C351CF101A080B18081EE86
:101790009FEF480E591ED2018D919D910D90BC91E5
:1017A000A02D89839A83AB83BC83609116047091CA
:1017B00017046A0D7B1D882777FD8095982F0E945E
:1017C000A73029813A814B815C810E945B313B01CA
:1017D0004C010027F7FC0095102FC801B7010E94AB
:1017E000A7309B01AC01C401B3010E94A42F20E0EB
:1017F00030E048EC52E40E94A42F0E9474307B0138
:101800008C01709345046093440480911804909176
:101810001904A80EB91ECC24B7FCC094DC2CC60158
:10182000B5010E94A73029813A814B815C810E94D9
:101830005B310E9474309B01AC017093470460934C
:101840004604C701B9010E94A3053BE1C32E37E05E
:10185000D32E6091440470914504882777FD8095CC
:10186000982F0E94A730F20120813181428153815B
:101870000E940C307B018C01D1016D917C918827F5
:1018800077FD8095982F0E94A7309B01AC01C8017D
:10189000B7010E94A32FAB01BC01C60122E030E0DA
:1018A0000E94F32A6091460470914704882777FDCF
:1018B0008095982F0E94A730F201208131814281CA
:1018C00053810E940C307B018C01D1016D917C9180
:1018D000882777FD8095982F0E94A7309B01AC0147
:1018E000C801B7010E94A32FAB01BC01C60122E0D1
:1018F00030E00E94F32A60914004709141048827EF
:1019000077FD8095982F0E94A730F20120813181C8
:10191000428153810E940C30AB01BC01C60122E020
:1019200030E00E94F32A60914204709143048827BA
:1019300077FD8095982F0E94A730D2012D913D917F
:101940004D915C910E940C30AB01BC01C60122E0BC
:1019500030E00E94F32AEFE1F4E0808191810E945F
:10196000550760910E0470910F04809110049091BE
:101970001104D2012D913D914D915C910E945B31FA
:1019800020E030E040E05FE30E945B319B01AC016E
:10199000CA010E942F0A8091290490912A040E9472
:1019A000AC0481E080933B040F900F900F900F9058
:1019B000CF91DF911F910F91FF90EF90DF90CF902B
:1019C000BF90AF909F908F907F906F905F904F905F
:1019D0003F902F900895EF92FF920F931F93F894EA
:1019E0008BE994E067EE71E041E00E949320882348
:1019F00041F48BE197E061EF71E00E94062B78944F
:101A000046C08BE197E066E072E00E94062BEE2470
:101A1000FF24870105C00894E11CF11C011D111D64
:101A20008BE994E00E94841C18161906A4F3C801DF
:101A3000B701807090700E94A53060934B04709342
:101A40004C0480934D0490934E04B8018827992745
:101A50000E94A53060934F0470935004809351040A
:101A6000909352048BE197E060E172E00E94092AB2
:101A70008BE197E0B801A7012AE030E00E9423291A
:101A80008BE994E00E94671B78940E9411071F91D4
:101A90000F91FF90EF900895CF93DF93EC01F894AE
:101AA0008BE994E067EE71E043E60E94932088237F
:101AB00041F48BE197E068E172E00E94062B789494
:101AC0001AC08BE197E06EE272E00E94092A87E972
:101AD00094E0BE014AE050E00E94EA298BE994E0DC
:101AE0000E94671B8BE197E065E472E00E94062B81
:101AF00078940E941107DF91CF910895F894809116
:101B0000560490915704892B89F48BE994E06BE497
:101B100072E043E50E9493208823C9F48BE197E0AB
:101B200068E172E00E94062B789408958BE994E0B6
:101B30006BE472E043E60E949320882341F48BE13A
:101B400097E068E172E00E94062B7894089587E997
:101B500094E069E474E04AE050E00E94A2238BE93B
:101B600094E00E94671B78940E9411078BE197E034
:101B700068E572E00E94062B08958BE197E06DE521
:101B800072E00E94062B89E594E066E148E00E943D
:101B90005E23882329F48BE197E065E672E004C0B8
:101BA0008BE197E068E572E00E94062B0895AF9202
:101BB000BF92CF92DF92EF92FF920F931F93CF933A
:101BC000DF93EC0180913B04882391F48981833673
:101BD00079F0863669F08BE197E064E772E00E9465
:101BE000062B8BE197E063E872E00E94062B5EC350
:101BF0008981992787FD9095A92FB92FFC01E1567E
:101C0000F040EA31F10508F038C3EA5AFF4FEE0F11
:101C1000FF1F0590F491E02D09946A817B818C81EE
:101C20009D810E947430DC01CB010E9495042BC37E
:101C30006A817B818C819D810E947430DC01CB01A3
:101C40000E941A0B20C30E94780B38C06A817B81E6
:101C50008C819D8120E030E040E050E00E9408301F
:101C6000882319F466E872E002C06DE872E08BE147
:101C700097E00E94062B6A817B818C819D8120E008
:101C800030E040E050E00E940830882319F00E94C4
:101C9000E30602C00E94F8068BE197E063E872E079
:101CA0000E94062B6A817B818C819D810E94793004
:101CB00060935804E8C281E00E9461118BE197E0D3
:101CC00063E872E0DEC26A817B818C819D810E9423
:101CD000743070934504609344046E817F818885DD
:101CE00099850E94743070934704609346048BE199
:101CF00097E066E972E00E94062BE0900404F09001
:101D00000504009106041091070460914404709149
:101D10004504882777FD8095982F0E94A730A80159
:101D200097010E945B310E9474305B016C016091ED
:101D3000460470914704882777FD8095982F0E946C
:101D4000A730A80197010E945B310E9474309B016B
:101D5000AC01C501B9010E94A30581E080933B0459
:101D6000ADCFE0900404F0900504009106041091BA
:101D70000704C801B7012A813B814C815D810E9423
:101D80005B315B016C01C801B7012E813F81488541
:101D900059850E945B319B01AC01C601B5010E94CF
:101DA0002F0A8CCF80E088CF6A817B818C819D81D6
:101DB0000E9474307B018C016E817F8188859985BA
:101DC0000E9474309B01AC01C701B9010E949306C7
:101DD00075CF0E94100572CF8BE197E063E872E047
:101DE0000E94062B0E94C70469CF6A817B818C8187
:101DF0009D810E947430DC01CB010E94B0076E818E
:101E00007F81888599850E947430DC01CB010E9416
:101E10007E0754CF6A817B818C819D810E947430C2
:101E2000DC01CB010E94AC046E817F81888599859D
:101E30000E947430DC01CB010E9455076E817F81C6
:101E4000888599850E9474307093200460931F04E4
:101E500035CF8BE197E068EA72E00E94092A609131
:101E6000400470914104882777FD8095982F0E9447
:101E7000A73020910404309105044091060450914C
:101E800007040E940C30AB01BC018BE197E022E01B
:101E900030E00E94F02A8BE197E06CEA72E00E9449
:101EA000092A60914004709141048BE197E04AE077
:101EB00050E00E94EA298BE197E061EB72E00E941A
:101EC000092A6091420470914304882777FD809528
:101ED000982F0E94A730209104043091050440916E
:101EE0000604509107040E940C30AB01BC018BE149
:101EF00097E022E030E00E94F02A8BE197E06CEA64
:101F000072E00E94092A60914204709143048BE1BF
:101F100097E04AE050E00E94EA298BE197E065EB08
:101F200072E00E94092A6091440470914504882758
:101F300077FD8095982F0E94A7302091040430915E
:101F4000050440910604509107040E940C307B0167
:101F50008C016091080470910904882777FD8095B1
:101F6000982F0E94A7309B01AC01C801B7010E94C5
:101F7000A32FAB01BC018BE197E022E030E00E948F
:101F8000F02A8BE197E06CEA72E00E94092A6091E6
:101F90004404709145048BE197E04AE050E00E94D0
:101FA000EA298BE197E066EC72E00E94092A6091D1
:101FB000460470914704882777FD8095982F0E94EA
:101FC000A7302091040430910504409106045091FB
:101FD00007040E940C307B018C0160910804709111
:101FE0000904882777FD8095982F0E94A7309B01D0
:101FF000AC01C801B7010E94A32FAB01BC018BE16A
:1020000097E022E030E00E94F02A8BE197E06CEA52
:1020100072E00E94092A60914604709147048BE1A6
:1020200097E04AE050E00E94EA2980915804882312
:1020300019F467ED72E002C06FED72E08BE197E09A
:102040000E94062B8BE197E069EE72E00E94092A5C
:1020500040913C0450913D0460913E0470913F04D6
:102060008BE197E02AE030E00E94C32960914004B0
:1020700070914104882777FD8095982F0E94A730A2
:102080002091040430910504409106045091070406
:102090000E940C306A837B838C839D836091420411
:1020A00070914304882777FD8095982F0E94A73070
:1020B00020910404309105044091060450910704D6
:1020C0000E940C306E837F8388879987F7CD8BE1E0
:1020D00097E06AEF72E0D5C081E0809353041092DC
:1020E0005704109256046A817B818C819D810E94E5
:1020F000793070935504609354048BE197E063E06A
:1021000073E00E94062BDACD6A817B818C819D81F0
:102110000E947930609334048BE197E06FE173E0C3
:102120000E94092A8BE197E0609134044AE050E074
:102130000E946529A8C0EA80FB800C811D81C8012E
:10214000B70120E030E040E050E00E94573118161F
:1021500044F4E0920404F092050400930604109302
:1021600007048BE197E06BE273E00E94092A40913B
:1021700004045091050460910604709107048BE1FA
:1021800097E022E030E00E94F32A8BE197E068E3D9
:1021900073E00E94092A40910E0450910F0460914F
:1021A0001004709111048BE197E022E030E00E946E
:1021B000F32A8BE197E06CE373E00E94092A4091D7
:1021C00012045091130460911404709115048BE172
:1021D00097E022E030E00E94F32A8BE197E060E490
:1021E00073E00E94092A60910A0470910B048BE14C
:1021F00097E04AE050E00E94EA298BE197E06DE425
:1022000073E00E94092A60910C0470910D048BE127
:1022100097E04AE050E00E94EA2950CD6A817B8134
:102220008C819D810E947430DC01CB010E944C0D99
:102230000E94EB0C28C080E00E94A6238BE197E06F
:102240006BE573E00E94062B0E943F131CC06A815D
:102250007B818C819D8120E030E040E050E00E9455
:102260000830882311F462EC01C06CE285E10E9421
:10227000112624CD0E94BD0D06C08BE197E068E6D3
:1022800073E00E94062B80913C0490913D04A09144
:102290003E04B0913F040196A11DB11D80933C0402
:1022A00090933D04A0933E04B0933F04DF91CF91FF
:1022B0001F910F91FF90EF90DF90CF90BF90AF9064
:1022C0000895BF92CF92DF92EF92FF920F931F93E8
:1022D000DF93CF93CDB7DEB72A970FB6F894DEBF62
:1022E0000FBECDBFB82EF8948BE994E06BE472E09A
:1022F00041E00E949320882341F0EE24FF248701CF
:102300006E010894C11CD11C1DC08BE197E061EFE8
:1023100071E00E94062B78944FC0C6010E943305DD
:10232000BB2059F08BE197E064E773E00E94062B35
:102330007894C6010E94D70DF8940894E11CF11C12
:10234000011D111D8BE994E0B6014AE050E00E94A6
:10235000711B181619060CF3C801B7018070907034
:102360000E94A53060934B0470934C0480934D04FD
:1023700090934E04B801882799270E94A530609356
:102380004F047093500480935104909352048BE94E
:1023900094E00E94671B78940E9411078BE197E0FC
:1023A0006AE773E00E94092A8BE197E0B801A70170
:1023B0002AE030E00E9423292A960FB6F894DEBF67
:1023C0000FBECDBFCF91DF911F910F91FF90EF9086
:1023D000DF90CF90BF90089586E00E944426892B1D
:1023E00011F40E94780B8BE294E064EF71E00E949C
:1023F0005F13882359F060E080913304882309F447
:1024000061E06093330487E00E9411268BE197E03E
:102410000E942D27181619060CF58BE197E00E94F3
:10242000542780934A040E947C0560934B04709368
:102430004C0480934D0490934E040E947C0560935D
:102440004F0470935004809351049093520481E0A0
:10245000809331048BE197E00E94B627809131048C
:10246000882309F463C010923104809153048823B7
:1024700009F44BC080914A04833731F5109253041C
:102480008BE197E06AE873E00E94062B80E00E94EF
:102490006111609156047091570480915404909199
:1024A0005504681B790B8BE197E04AE050E00E94ED
:1024B00048298BE197E063E872E00E94062B1092B6
:1024C00055041092540425C00E947E0D8BE197E0C4
:1024D0006BE973E00E94092A6091560470915704D9
:1024E0006F5F7F4F70935704609356046150704044
:1024F0008BE197E04AE050E00E9448298BE197E0A9
:1025000063E872E00E94062B04C089E494E00E9414
:10251000D70D81E0809332040E94BD24609337047C
:10252000709338048093390490933A040E94BD2438
:1025300020913704309138044091390450913A0485
:10254000621B730B840B950B615D7740804090405C
:1025500038F080914804882319F481E00E946007D4
:1025600008950F931F930E9429040BE117E0C801FF
:1025700060E071EE0E942C27C8016CEA73E00E94B3
:10258000092AC80160911A044AE050E00E946529B6
:1025900087E061E00E94842587E061E00E941126C7
:1025A00085E161E00E94842580E00E94C60688E003
:1025B00061E00E94842589E061E00E9484258AE030
:1025C00061E00E9484258BE061E00E94842584E024
:1025D00061E00E94842580E061E00E94842581E022
:1025E00061E00E94842582E061E00E94842586E00B
:1025F00060E00E94842586E061E00E94112681E16E
:1026000061E00E94842586E161E00E94842587E1E3
:1026100061E00E94842586E161E00E94112687E145
:1026200061E00E9411268DE060E00E9484258DE02B
:1026300061E00E94112685E060E00E94842585E02B
:1026400061E00E9411260E94610B0E940D070E940A
:10265000BD0D1F910F910895F999FECF72BD61BD17
:10266000F89A80B50895F999FECF1FBA72BD61BD81
:1026700040BD0FB6F894FA9AF99A0FBE08958CB53A
:102680008F7B8CBD08950F931F93CF93DF938C01A5
:10269000EB0180E06115710509F081E0F8018283AA
:1026A000882341F00E94BD242197C60FD71FF8014F
:1026B000D183C083DF91CF911F910F910895EF9245
:1026C000FF920F931F93CF93DF93EC017B018A81DD
:1026D000882311F400E00FC0088119810E94BD24F5
:1026E000C801861B970B2AEE8136920710F400E092
:1026F00006C0082F0195CE01B7010E944313802F19
:10270000DF91CF911F910F91FF90EF9008958FEF80
:102710009FEFAFEFBFEF8093B7069093B806A093FB
:10272000B906B093BA061092BB0608950F931F9393
:102730008C01CB01BA016250704080409040F8019A
:10274000248130E040E050E00E9427329B01AC0140
:10275000F80186859785A089B189280F391F4A1FFE
:102760005B1FB901CA011F910F9108958091BB06AB
:1027700080FF3EC04091B7065091B8066091B906FF
:102780007091BA068091C0069091C10627EB34E0A3
:102790000E947A21882371F18091BB0681FF23C0BA
:1027A0004091BC065091BD066091BE067091BF0677
:1027B0004115510561057105B1F08091B706909101
:1027C000B806A091B906B091BA06480F591F6A1F02
:1027D0007B1F8091C0069091C10627EB34E00E94D8
:1027E0007A21882339F08091BB068E7F8093BB06C7
:1027F00081E0089580E008950E94B6130895DF9265
:10280000EF92FF920F931F937B018C01D42E809146
:10281000B7069091B806A091B906B091BA068E1588
:102820009F05A007B107E1F00E94B613882311F1BC
:10283000D2FC0CC08091C0069091C106B801A701DE
:1028400027EB34E00E9436228823A1F01092BB06C9
:10285000E092B706F092B8060093B9061093BA0654
:1028600083E0D8228091BB068D298093BB0627EB9D
:1028700034E002C020E030E0C9011F910F91FF90C9
:10288000EF90DF9008956F927F928F929F92AF9218
:10289000BF92CF92DF92EF92FF920F931F93CF934D
:1028A000DF935C01142F7093C1066093C006DC01B6
:1028B00057961C9282E090E0A0E0B0E0F5018083A2
:1028C0009183A283B3831092BB068FEF9FEFAFEF8C
:1028D000BFEF8093B7069093B806A093B906B09364
:1028E000BA061092BC061092BD061092BE06109257
:1028F000BF06442321F466247724430144C04530B5
:1029000008F022C160E070E080E090E040E00E94CA
:10291000FF13EC01009709F417C1412F50E041501B
:102920005040FA0174E0EE0FFF1F7A95E1F7E80FCF
:10293000F91FE254FE4F8081EE5BF14090E08F770B
:102940009070892B09F000C1E653FE4F8081918180
:10295000A281B38184369105A105B10508F4F4C0C4
:1029600064E0440F551F6A95E1F7C40FD51FCA53A1
:10297000DE4F688079808A809B80611471048104B5
:10298000910409F4E1C0C401B30140E00E94FF13C7
:10299000EC01009709F4D8C08B859C85805092404B
:1029A00009F0D2C06889662309F4CEC0EE85FF85A0
:1029B000309709F4C9C08D85882309F4C5C0D501B5
:1029C00052966C93529714968C9314971D961C9262
:1029D00001E010E008C04F5FD5011D964C934150B7
:1029E000483008F0B1C0D5011D964C911D97149642
:1029F0008C9190E09801042E02C0220F331F0A949C
:102A0000E2F78217930739F78E899F89009721F0A3
:102A10009C0140E050E004C02CA13DA14EA15FA16B
:102A2000D50115962D933D934D935C93189752962F
:102A30008C91882341F02093BC063093BD064093CF
:102A4000BE065093BF066F01EE24FF24C60CD71CB0
:102A5000E81CF91CF501C38AD48AE58AF68A09893B
:102A60001A89118F008F70E080E090E02581368117
:102A7000478150850E9427326C0D7D1D8E1D9F1D44
:102A8000D5015A966D937D938D939C935D9735E018
:102A9000000F111F3A95E1F701501E4F012F11272A
:102AA0000695980140E050E0260F371F481F591F38
:102AB000F50126873787408B518B8B899C8900973E
:102AC00021F07C0100E010E004C0E8A0F9A00AA118
:102AD0001BA1C401B301621B730B840B950B6E0D1C
:102AE0007F1D801F911FD5011D960C901D9704C05E
:102AF00096958795779567950A94D2F7F501618742
:102B0000728783879487653FFFE07F07F0E08F0738
:102B1000F0E09F0720F48CE057968C9315C0655F1A
:102B20007F4F8040904018F480E1F5010AC08CA5E9
:102B30009DA5AEA5BFA5F501828F938FA48FB58FFC
:102B400080E2878B81E001C080E0DF91CF911F910F
:102B50000F91FF90EF90DF90CF90BF90AF909F903C
:102B60008F907F906F90089542600E94FF130895A8
:102B70008F929F92AF92BF92CF92DF92EF92FF928D
:102B80000F931F93CF93DF93EC016A017B01480100
:102B90005901423051056105710508F44BC0898522
:102BA0009A85AB85BC850196A11DB11D841795073B
:102BB000A607B70708F43EC08F89803129F4252F76
:102BC000362F472F55270BC08032A1F59A01AB0154
:102BD00017E056954795379527951A95D1F78B8924
:102BE0009C89AD89BE89280F391F4A1F5B1FCA0106
:102BF000B90141E00E94B4159C010097D9F08F897A
:102C0000803149F4F601F070EE0FFF1FE20FF31F61
:102C1000918280820DC0F601EF77F070EE0FFF1FFA
:102C2000EE0FFF1FE20FF31F80829182A282B38218
:102C300081E001C080E0DF91CF911F910F91FF9063
:102C4000EF90DF90CF90BF90AF909F908F900895BE
:102C5000CF92DF92EF92FF920F931F93CF93DF9368
:102C6000EC017A018B016901423051056105710562
:102C700008F453C089859A85AB85BC850196A11D52
:102C8000B11D84179507A607B70708F446C08F89BA
:102C9000803129F45527412F302F2F2D0BC0803242
:102CA000E1F59A01AB0167E0569547953795279571
:102CB0006A95D1F78B899C89AD89BE89280F391F08
:102CC0004A1F5B1FCA01B90140E00E94B4159C0174
:102CD000009719F18F89803159F4F701F070EE0FE8
:102CE000FF1FE20FF31F80819181A0E0B0E00EC0D2
:102CF000F701EF77F070EE0FFF1FEE0FFF1FE20FEF
:102D0000F31F80819181A281B381BF70F60180831E
:102D10009183A283B38381E001C080E0DF91CF91F2
:102D20001F910F91FF90EF90DF90CF900895AF9299
:102D3000BF92CF92DF92EF92FF920F931F93DF9398
:102D4000CF9300D000D0CDB7DEB76C017A018B01F4
:102D500082E090E0A0E0B0E0F60180839183A2835E
:102D6000B3835E010894A11CB11CC601B801A70180
:102D700095010E942816882341F1C601B801A701D8
:102D800000E010E020E030E00E94B8158823E9F070
:102D9000E980FA800B811C81F6018789803151F42A
:102DA000F8EFEF16FFEFFF06F0E00F07F0E01F0768
:102DB000E0F209C088EFE8168FEFF8068FEF0807FA
:102DC0008FE0180790F281E001C080E00F900F9033
:102DD0000F900F90CF91DF911F910F91FF90EF9087
:102DE000DF90CF90BF90AF9008952F923F924F9277
:102DF0005F926F927F928F929F92AF92BF92CF928B
:102E0000DF92EF92FF920F931F93DF93CF93CDB793
:102E1000DEB72F970FB6F894DEBF0FBECDBF1C01F3
:102E20004A875B876C877D873F872E87DC011996F1
:102E30008D919D910D90BC91A02D0196A11DB11D6C
:102E40008E839F83A887B987F90100811181228130
:102E50003381011511052105310549F0480159015A
:102E60000894811C911CA11CB11C1D8210C0D101B1
:102E70008D909D90AD90BC901D828A859B85AC8580
:102E8000BD850197A105B10511F491E09D83750100
:102E900064014424552432018E010F5F1F4FF1015C
:102EA00081859285A385B485481659066A067B06F6
:102EB00008F090C08E819F81A885B9858C159D05ED
:102EC000AE05BF0550F4F2E08F2E912CA12CB12C51
:102ED000E2E0CE2ED12CE12CF12CC101B701A601EC
:102EE00098010E942816882309F474C089819A8168
:102EF000AB81BC81A70196012F5F3F4F4F4F5F4FC2
:102F00000097A105B10519F049015A010DC0281912
:102F100039094A095B098A859B85AC85BD852817D7
:102F200039074A075B0759F00894411C511C611C82
:102F3000711C0894C11CD11CE11CF11CB0CFC10153
:102F4000A601B7010FEF1FEF2FEF3FE00E94B8156A
:102F5000882399F43FC0260137010894410851089D
:102F600061087108C101B301A201970186010E94A5
:102F7000B815882379F1730162018C149D04AE04A5
:102F8000BF0448F3AE85BF854D915D916D917C91F5
:102F9000411551056105710539F0C10195018401A3
:102FA0000E94B8158823B1F0EE85FF85808291825A
:102FB000A282B382FD81FF2359F00894811C911CE9
:102FC000A11CB11CD1018D929D92AD92BC92139720
:102FD00081E001C080E02F960FB6F894DEBF0FBEEF
:102FE000CDBFCF91DF911F910F91FF90EF90DF90B8
:102FF000CF90BF90AF909F908F907F906F905F9099
:103000004F903F902F9008950F931F93CF93DF938E
:10301000DC01EB018A0180E090E020E2FE01E80F94
:10302000F91F208301968B309105C1F757E040E0EE
:1030300024C0622F2E3219F080EE90E007C05A3083
:1030400051F15AE048E018C0321729F1FC0101960D
:1030500034913323C9F75417F0F02132E0F02F37C1
:10306000D0F4822F81568A3110F4622F6052FE0113
:10307000E40FF11D60834F5F11962C91222311F014
:103080002F32B9F6F801B183A08390E088818032B5
:1030900019F091E001C090E0892FDF91CF911F914D
:1030A0000F910895CF92DF92EF92FF920F931F93AB
:1030B000DF93CF9300D000D0CDB7DEB77C01FC0109
:1030C0008789908DA18DB28D89839A83AB83BC83D0
:1030D00000E010E06E010894C11CD11C49815A81A6
:1030E0006B817C81D70115968D919C9116979601E5
:1030F0000E942816882379F1D7011596ED91FC914D
:1031000016978481080F111DB0E100301B0718F5D8
:1031100029813A814B815C818789803131F4285F34
:103120003F4F40405040D0F205C0285F3F4F4F4FC7
:103130005F40A0F2C801A0E0B0E029E0880F991F2D
:10314000AA1FBB1F2A95D1F7F701838B948BA58B00
:10315000B68B81E001C080E00F900F900F900F9030
:10316000CF91DF911F910F91FF90EF90DF90CF9063
:103170000895CF93DF93EC01FB018B818823D1F578
:103180007E836D8387898031C9F582E08B831F8AB6
:10319000188E198E1A8E808D918DA0E0B0E035E0EA
:1031A000880F991FAA1FBB1F3A95D1F78B8B9C8B59
:1031B000AD8BBE8B0FC083E08B83828D938DA48DEE
:1031C000B58D8F8B988FA98FBA8FCE010E94521820
:1031D000882381F081E089831F82188619861A86E8
:1031E0001B861C861D861E861F86188A198A1A8AC7
:1031F0001C8201C080E0DF91CF9108958032D1F729
:10320000DACF6F927F928F929F92AF92BF92CF92BE
:10321000DF92EF92FF920F931F93CF93DF93EC0116
:103220007A018B012B81222309F480C08B899C8930
:10323000AD89BE8984179507A607B70708F476C03D
:1032400085C0E114F1040105110551F41F821886AF
:1032500019861A861B861C861D861E8681E067C01D
:103260002B853C854D855E85ED81FE81858590E0D1
:103270000996215030404040504039014A01082E03
:1032800004C096948794779467940A94D2F72F5F3A
:103290003F4F4F4F5F4F0894E108F10801091109B2
:1032A0005701680104C0D694C794B794A7948A952F
:1032B000D2F70894E11CF11C011D111DA614B704DE
:1032C000C804D90428F0211531054105510549F4F8
:1032D0008F89988DA98DBA8D8F839887A987BA8792
:1032E00016C0A618B708C808D90811C04F8158855C
:1032F00069857A858D819E8194010E9428160894A3
:10330000A108B108C108D108882331F40FC047E0F3
:10331000842E912C8C0E9D1EA114B104C104D104E5
:1033200029F7EB86FC860D871E8798CF80E0DF911A
:10333000CF911F910F91FF90EF90DF90CF90BF90B2
:10334000AF909F908F907F906F900895223009F0FA
:1033500078CFE7CFCF93DF93EC01462F6F85788945
:1033600089899A890E94FF13AC01009719F420E023
:1033700030E00AC08C81282F30E065E0220F331F37
:103380006A95E1F7240F351FC901DF91CF910895A8
:103390000F931F93CF93DF938C01FC0183818823CC
:1033A000E1F1818187FF36C0C80161E00E94AA195E
:1033B000EC01009791F18881853E79F1F8018381D4
:1033C000823040F483899489A589B6898C8F9D8F3A
:1033D000AE8FBF8FF8018789908DA18DB28D9B8FA5
:1033E0008A8FCD01AA27BB279D8B8C8BE091C406C9
:1033F000F091C506309751F0BE016A5E7F4FCE0155
:1034000048960995888D998D9B8B8A8BF8018181CF
:103410008F7781830E94B61304C081E0F801808316
:1034200080E0DF91CF911F910F9108956F927F926D
:103430008F929F92AF92BF92CF92DF92EF92FF92C4
:103440000F931F93DF93CF9300D000D0CDB7DEB79B
:103450007C015A016B01DC0113968C91139781302A
:1034600009F091C011968C9181FF8DC0A0C000978A
:10347000A105B10511F481E087C0F701638474846C
:1034800085849684C701B601A5010E94011988238D
:1034900009F479C0D70115968D919C911697A114C6
:1034A000B104C104D10489F457964D915D916D9199
:1034B0007C915A970E949716882309F464C0F701FB
:1034C000178A108E118E128E44C0D70117964D9117
:1034D0005D916D917C911A979E012F5F3F4F0E94E5
:1034E0002816882309F44FC0D7011596ED91FC9159
:1034F000169749815A816B817C818789803149F493
:10350000483FBFEF5B07B0E06B07B0E07B0748F0D8
:1035100020C0483F8FEF58078FEF68078FE078078C
:10352000C0F4CF010E949716882369F1D70117963E
:103530004D915D916D917C911A9715968D919C910D
:1035400016970FEF1FEF2FEF3FE00E94B81588236B
:10355000D1F0F701A38AB48AC58AD68A81818068AE
:103560008183C7010E94C819882369F0B601A501AB
:103570006A147B048C049D0410F4B401A301C701F8
:103580000E94011901C080E00F900F900F900F90E2
:10359000CF91DF911F910F91FF90EF90DF90CF902F
:1035A000BF90AF909F908F907F906F900895F7019C
:1035B00083899489A589B68984179507A607B707D3
:1035C00008F055CFE0CF1F93CF93DF93EC01142F7A
:1035D000262F30E0F90185E0EE0FFF1F8A95E1F715
:1035E000E954FB4F8385817121F0842F827109F0AA
:1035F00064C08091B7069091B806A091B906B091C9
:10360000BA068F87988BA98BBA8B6C83F901B5E0CA
:10361000EE0FFF1FBA95E1F7E954FB4F2489358976
:1036200040E050E0A901332722272F8B388F498FA4
:103630005A8F828D938DA0E0B0E0282B392B4A2B36
:103640005B2B2F8B388F498F5A8F838590E0887141
:103650009070009751F4848D958DA68DB78D8B8BCE
:103660009C8BAD8BBE8B81E008C0409731F5CE01BD
:103670000E945218882309F184E08B83812F8F7078
:1036800089831F82188619861A861B861C861D86CA
:103690001E8614FF18C0CE0140E050E060E070E0EC
:1036A0000E94161A882379F408C04B895C896D89B9
:1036B0007E89CE010E94011902C01B8280E0DF9149
:1036C000CF911F91089515FDF0CF81E0F8CF0F93B2
:1036D0001F938C010E94C819F80113821F910F914A
:1036E00008952F923F924F925F926F927F928F92A6
:1036F0009F92AF92BF92CF92DF92EF92FF920F9381
:103700001F93DF93CF9300D0CDB7DEB74C011A01E2
:10371000DC0113968C911397882309F4B4C0119699
:103720008C9180FFB0C0C7C015012E183F082B0137
:10373000F4013796FA83E98331019FC0D4011B96C7
:103740002D913D914D915C911E979FEFA92E91E097
:10375000B92EA222B3221596ED91FC91169779010C
:103760008A0189E016950795F794E7948A95D1F731
:10377000948113968C91823049F4428D538D648DDF
:10378000758D4E0D5F1D601F711F35C0D92EDA94E7
:10379000DE20A114B10401F5DD20F1F4211531057D
:1037A0004105510551F4F4018789908DA18DB28DA9
:1037B00087839087A187B2870FC0D40117964D9158
:1037C0005D916D917C911A97CF0129813A810E9478
:1037D0002816882309F457C0F40147815085618574
:1037E0007285858196810E949613AB01BC014D0DB7
:1037F000511D611D711DA114B10499F4F0E06F1603
:10380000F2E07F0670F08091B7069091B806A09123
:10381000B906B091BA06481759076A077B0709F03D
:1038200067C0CB01BA0140E00E94FF13009759F135
:1038300040E052E04A195B0983014615570508F438
:103840008A019C012A0D3B1DC201B901A8010E94F9
:10385000F001400E511E980140E050E0F4018385D4
:103860009485A585B685820F931FA41FB51F8387F6
:103870009487A587B687601A710A6114710409F0EC
:103880005DCFA10102C04FEF5FEFCA010F900F9013
:10389000CF91DF911F910F91FF90EF90DF90CF902C
:1038A000BF90AF909F908F907F906F905F904F9060
:1038B0003F902F900895D4015396AD90BD90CD9038
:1038C000DC9056971B96ED90FD900D911C911E97E4
:1038D0009A0140E050E0D601C5018E199F09A00B66
:1038E000B10B281739074A075B0708F01DCF1FCF18
:1038F0008091C0069091C10692010E9436228823D1
:1039000011F200E012E0A5CFDF93CF930F92CDB775
:10391000DEB7BE016F5F7F4F41E050E00E94711B38
:10392000019719F02FEF3FEF03C08981282F30E076
:10393000C9010F90CF91DF910895EF92FF920F93FD
:103940001F93CF93DF93EC018B81823038F1EB84AE
:10395000FC840D851E85CE010E94841C97FD1EC02F
:103960008B859C85AD85BE854F96A11DB11D8B872E
:103970009C87AD87BE8755E016950795F794E79429
:103980005A95D1F72E2D30E02F70307045E0220F80
:10399000331F4A95E1F729543B4F02C020E030E045
:1039A000C901DF91CF911F910F91FF90EF90089582
:1039B000CF93DF93EC019C01295F3F4F8D819E8166
:1039C00041E050E060E070E00E94F5168823A1F02D
:1039D0008F89988DA98DBA8D0097A105B10559F4ED
:1039E0008F819885A985BA858F8B988FA98FBA8F7B
:1039F00089818068898381E0DF91CF9108952F923A
:103A00003F924F925F926F927F929F92AF92BF923E
:103A1000CF92DF92EF92FF920F931F93DF93CF939A
:103A200000D000D0CDB7DEB76C01162F072F1A01DA
:103A3000DC0113968C911397813009F046C11196E1
:103A40008C9181FF42C15DC1F6014389548965892A
:103A5000768983859485A585B68584179507A607FD
:103A6000B70731F0C6010E940119882309F42DC15E
:103A7000812F902F9C0129013101EDC0D6011596AF
:103A8000ED91FC911697DA01C90169E0B695A79509
:103A9000979587956A95D1F794809A9498225FEFCD
:103AA000A52E51E0B52EA222B322992009F052C0D2
:103AB000A114B10409F04EC0D60117964D915D9145
:103AC0006D917C911A97411551056105710571F150
:103AD000CF019E012F5F3F4F0E942816882309F4D3
:103AE000F4C029813A814B815C81D6011596ED9114
:103AF000FC9116978789803149F4283FBFEF3B0737
:103B0000B0E04B07B0E05B0748F019C0283FEFEF8B
:103B10003E07EFEF4E07EFE05E0788F4D6011796F9
:103B20002D933D934D935C931A9714C0F6018789AA
:103B3000908DA18DB28D0097A105B10531F4C6011C
:103B40000E94D81C882331F4C0C0F6018783908777
:103B5000A187B287D60117964D915D916D917C91A9
:103B60001A9715968D919C9116970E9496137B013A
:103B70008C01E90CF11C011D111DA114B104A9F463
:103B8000B0E06B16B2E07B06A8F5F601238534851C
:103B90004585568583899489A589B689281739076B
:103BA0004A075B0710F045E001C041E0C801B701DA
:103BB0000E94FF13009709F488C040E052E04A19C0
:103BC0005B0983014615570508F48A019C012A0DFB
:103BD0003B1DC901B201A8010E94F001A00EB11E57
:103BE000F0E0AF16F2E0BF0611F50E94FC13882347
:103BF000F1F46BC08091B7069091B806A091B90618
:103C0000B091BA068E159F05A007B10711F40E9466
:103C100087138091C0069091C106B801A701920157
:103C20000E947A21882309F450C000E012E0980134
:103C300040E050E0F60183859485A585B685820F26
:103C4000931FA41FB51F83879487A587B687400E4F
:103C5000511E601A710AD6011B962D913D914D910E
:103C60005C911E976114710409F008CF53968D91F1
:103C70009D910D90BC91A02D82179307A407B507C5
:103C800048F4F601238B348B458B568B81818068F9
:103C9000818310C08091C4069091C506892B51F094
:103CA0002114310439F0D60111968C911197806856
:103CB00011968C93F601818183FF05C0C6010E9495
:103CC000C819882311F0A10105C081E0D6018C93A9
:103CD0004FEF5FEFCA010F900F900F900F90CF91B1
:103CE000DF911F910F91FF90EF90DF90CF90BF90E9
:103CF000AF909F907F906F905F904F903F902F90EC
:103D0000089582FDA1CEB4CE9F92AF92BF92CF9282
:103D1000DF92EF92FF920F931F93CF93DF938C016B
:103D2000FC0183899489A589B689805E9F4FAF4144
:103D3000B04008F05CC0C8010E94D81C882309F478
:103D400056C0D80117964D915D916D917C911A974F
:103D500015968D919C9116970E9496135B016C01AC
:103D600045E00E94FF13EC01009709F442C080E097
:103D700092E0FE019C01119221503040E1F79C2E0F
:103D8000ED2EFF24F39411C0B601A5014F0D511D76
:103D9000611D711D8091C0069091C106292D3E2D97
:103DA0000E947A21882319F1F394D8011596ED9198
:103DB000FC9116972481F21638F330E040E050E091
:103DC00079E0220F331F441F551F7A95D1F7539680
:103DD0008D919D910D90BC91A02D820F931FA41FDA
:103DE000B51FF801838B948BA58BB68B02C0C0E006
:103DF000D0E0CE01DF91CF911F910F91FF90EF9016
:103E0000DF90CF90BF90AF909F9008958F929F9238
:103E1000AF92BF92CF92DF92EF92FF920F931F93D8
:103E2000CF93DF936C01EB01942E852EA22E8D8112
:103E30009E81F60196838583CB0140E050E060E0EF
:103E400070E00E940119BB2434C0CE010E949D1C69
:103E5000FC01009709F48EC0A5E016950795F7942C
:103E6000E794AA95D1F71E2D1F702081222311F00F
:103E7000253EA9F4BB2081F48091B7069091B80645
:103E8000A091B906B091BA06F6018787908BA18BF5
:103E9000B28B1483BB24B394222359F418C0892D08
:103EA000982DBF014BE050E00E94E301009709F418
:103EB0006FC0EB84FC840D851E858B899C89AD8940
:103EC000BE89E816F9060A071B0708F4BECFA6FE4E
:103ED00051C0A1FE4FC0BB2051F0F6011481C601B4
:103EE00061E00E94AA19EC01009761F443C08B8144
:103EF000823009F43FC0CE010E94841E0097D1F1A8
:103F0000EC0110E080E2FE0111928A95E9F7DE01F2
:103F1000292D382DC901FC018BE001900D928150B3
:103F2000E1F7E091C406F091C506309739F0BE0183
:103F3000625F7F4FCE014096099508C081E298E20A
:103F4000998B888B80E098E09F878E8788899989F4
:103F50009B8B8A8B998F888F8E859F859F8B8E8B6D
:103F60000E94B613882331F0C601612F4A2D0E94AA
:103F7000E31A01C080E0DF91CF911F910F91FF9074
:103F8000EF90DF90CF90BF90AF909F908F9008956B
:103F9000A7FEEACFEFCF2F923F924F925F926F92A0
:103FA0007F928F929F92AF92BF92CF92DF92EF92C9
:103FB000FF920F931F93DF93CF93CDB7DEB7C65415
:103FC000D0400FB6F894DEBF0FBECDBF3C016B01F1
:103FD000DE01AE5BBF4F11965C934E9325962FAFDB
:103FE00025976115710509F483C01F861AA6FC0187
:103FF0008381882309F07CC01C861FA2FA0180817E
:104000008F32F1F086019CE0E92EF12CEC0EFD1EC2
:1040100082E4A82EB12CAC0EBD1E4E010894811C6A
:10402000911C2796FFAEEEAE2797B7E22B2E312CD0
:104030002C0E3D1E270124C01196B183A08301C020
:10404000FD01A081B1818C918F32B1F3D60113961D
:104050008C91139782508230A8F28E01095D1F4F18
:1040600015966D917C911697C8010E94B918882306
:1040700051F63EC0342D252D8701832F922F7C01D0
:10408000F50180819181B401A5010E940418882363
:1040900029F42EC03196D501ED93FC93D501ED9115
:1040A000FC9180818F32B1F38823C9F0C701B80138
:1040B000A40121E00E94061F8823D1F00C151D05E4
:1040C00019F0C8010E94671B2796EEADFFAD279738
:1040D000EE16FF0679F6C101322D292FCDCFC3018F
:1040E000B801A40125962FAD25970E94061F01C097
:1040F00080E0CA5BDF4F0FB6F894DEBF0FBECDBFC6
:10410000CF91DF911F910F91FF90EF90DF90CF90B3
:10411000BF90AF909F908F907F906F905F904F90E7
:104120003F902F900895FB01242F6091C20670915B
:10413000C306AF010E94CB1F0895FF920F931F93F8
:10414000CF93DF938B010E94BD24EB01FF24FA94EF
:1041500009C00E94BD246C1B7D0B6017710710F015
:1041600080E008C0FEBC0DB407FEFDCF8EB58F3FCA
:1041700081F781E0DF91CF911F910F91FF9008951A
:10418000FC0122812D3010F046E002C0422F4695FE
:10419000242F30E0C9019595879580658CBD40FF3F
:1041A00002C080E004C080E0463009F081E08DBDAF
:1041B000808160E00E9411260895FF920F931F9363
:1041C000DF93CF9300D000D0CDB7DEB78C01F62EB1
:1041D00029833A834B835C830E94C020C8016CE230
:1041E00071E00E949D208F2D80648EBD0DB407FE6E
:1041F000FDCFFE0131969E012350304083818EBD5C
:104200000DB407FEFDCF3197E217F307B9F7FF2092
:1042100011F087E801C085E98EBD0DB407FEFDCF22
:104220008CE0F81631F48FEF8EBD0DB407FEFDCF94
:104230008EB590E02FEF2EBD0DB407FEFDCF8EB5ED
:1042400087FF02C09150B9F7F80183830F900F9058
:104250000F900F90CF91DF911F910F91FF900895D4
:10426000FC01808161E00E9411268FEF8EBD0DB4AC
:1042700007FEFDCF0895CF93DF93EC01DA016EBD09
:104280000DB407FEFDCF8C918EBD1196EC91119768
:1042900082E090E00DB407FEFDCFEEBD22E080305D
:1042A000920731F0FD01E80FF91FE0810196F2CF8E
:1042B0000DB407FEFDCF8FEF8EBD0DB407FEFDCF11
:1042C0008FEF8EBD0DB407FEFDCF8FEF8EBD0DB409
:1042D00007FEFDCF8EB58B838F71853011F481E0A1
:1042E00006C083E18983CE010E94302180E0DF9106
:1042F000CF910895CF92DF92EF92FF920F931F9389
:10430000CF93DF93EC017A018B0169018C818330BB
:1043100039F059E0EE0CFF1C001F111F5A95D1F720
:10432000CE0168E1A80197010E94DD20882311F0E9
:1043300086E023C0CE016EEFA6010E943B218823B8
:10434000E9F0CE0168E572E00E949D20882311F417
:1043500087E113C0CE016DE020E030E040E050E0A6
:104360000E94DD20882341F48FEF8EBD0DB407FE3F
:10437000FDCF8EB5882379F086E18983CE010E9436
:10438000302180E0DF91CF911F910F91FF90EF904E
:10439000DF90CF900895CE010E94302181E0F2CFCE
:1043A000BF92CF92DF92EF92FF920F931F93CF9322
:1043B000DF93EC016B017A010E94BD248B01BB24C9
:1043C000BA9409C00E94BD24601B710B6D527140EC
:1043D00010F081E10BC0BEBC0DB407FEFDCF8EB561
:1043E0008B838F3F79F38E3F39F08FE08983CE0145
:1043F0000E94302180E030C0D7011197EF28D9F01A
:104400008FEF8EBD20E030E09FEF0BC00DB407FEB4
:10441000FDCF8EB59EBDF601E20FF31F80832F5FA7
:104420003F4F2A173B0790F30DB407FEFDCF8EB523
:10443000AC0DBD1D8C931B828FEF8EBD0DB407FE9E
:10444000FDCF8EB58FEF8EBD0DB407FEFDCF8EB5BF
:10445000CE010E94302181E0DF91CF911F910F9119
:10446000FF90EF90DF90CF90BF900895CF92DF92B2
:10447000EF92FF920F931F93CF93DF93EC017A019A
:104480008B0169018C81833039F0B9E0EE0CFF1C9F
:10449000001F111FBA95D1F7CE0161E1A801970164
:1044A0000E94DD20882339F084E08983CE010E94B8
:1044B000302180E006C0CE01B60140E052E00E940B
:1044C000D021DF91CF911F910F91FF90EF90DF905E
:1044D000CF900895BF92CF92DF92EF92FF920F9309
:1044E0001F93CF93DF93EC01B62E1C821982488371
:1044F0000E94BD246B01888161E00E94842588812F
:1045000061E00E94112681E161E00E94112681E1B3
:1045100061E00E9484258EE060E00E94842580E1B5
:1045200061E00E9484258FE061E00E9484258BE099
:104530008A8382E58CBD1DBC80E09FEF9EBD0DB4DB
:1045400007FEFDCF8F5F8A30C9F709C00E94BD24E6
:104550006C197D09615D774010F081E063C0CE0188
:1045600060E020E030E040E050E00E94DD2081305B
:1045700069F71FEFCE0168E02AEA31E040E050E041
:104580000E94DD20853011F481E00DC080E01EBD69
:104590000DB407FEFDCF9EB58F5F8430C1F79B83BE
:1045A0009A3A31F482E08C838C81823051F40DC0D0
:1045B0000E94BD246C197D09615D7740D8F282E0CC
:1045C00031C0EE24FF2487010FC0E12CF12C012D16
:1045D00080E4182F09C00E94BD246C197D09615D1B
:1045E000774010F08AE01EC0CE0167E320E030E0A3
:1045F00040E050E00E94DD20CE0169E2A801970171
:104600000E94DD20882339F78C81823029F5CE0184
:104610006AE320E030E040E050E00E94DD208823A3
:1046200031F088E08983CE010E94302121C08FEFD4
:104630008EBD0DB407FEFDCF8EB5807C803C11F49D
:1046400083E08C8380E09FEF9EBD0DB407FEFDCF1D
:104650002EB58F5F8330C1F7CE010E9430218EE0EE
:104660008B1518F488E1898303C0BA8281E001C008
:1046700080E0DF91CF911F910F91FF90EF90DF903D
:10468000CF90BF900895CF93DF93EC01662331F074
:10469000A396D093C306C093C206A3978EA1882386
:1046A00021F0CE0183960E94671BCE01839625964A
:1046B000BE010E94B918DF91CF9108950F931F9307
:1046C000CF93DF93EC01262F642F422F0E946A22A2
:1046D0008823C9F08E010B5F1F4FC801BE0141E066
:1046E0000E944314882339F4C801BE0140E00E94AF
:1046F0004314882341F0CE0161E00E9443238823C4
:1047000019F081E001C080E0DF91CF911F910F91FE
:104710000895DF93CF930F92CDB7DEB769830496E8
:10472000BE016F5F7F4F41E050E00E94FF1C20E020
:1047300030E0019711F421E030E0C9010F90CF91F2
:10474000DF91089504960E94FF1C08958430C0F400
:10475000813049F0813028F0823039F0833041F4E3
:1047600006C0E89805C0E99803C0EA9801C0EB9834
:10477000E82FF0E0EE0FFF1FEA53F94F118210828D
:1047800008951F920F920FB60F9211242F933F930B
:104790004F935F936F937F938F939F93AF93BF9349
:1047A000EF93FF938091C6069091C706892B29F05D
:1047B000E091C606F091C7060995FF91EF91BF9170
:1047C000AF919F918F917F916F915F914F913F91A9
:1047D0002F910F900FBE0F901F9018951F920F9260
:1047E0000FB60F9211242F933F934F935F936F93C4
:1047F0007F938F939F93AF93BF93EF93FF9380919A
:10480000C8069091C906892B29F0E091C806F0915D
:10481000C9060995FF91EF91BF91AF919F918F913B
:104820007F916F915F914F913F912F910F900FBEAC
:104830000F901F9018951F920F920FB60F92112490
:104840002F933F934F935F936F937F938F939F9398
:10485000AF93BF93EF93FF938091CA069091CB06DD
:10486000892B29F0E091CA06F091CB060995FF91BA
:10487000EF91BF91AF919F918F917F916F915F91D8
:104880004F913F912F910F900FBE0F901F90189551
:104890001F920F920FB60F9211242F933F934F93B5
:1048A0005F936F937F938F939F93AF93BF93EF9398
:1048B000FF938091CC069091CD06892B29F0E09151
:1048C000CC06F091CD060995FF91EF91BF91AF9184
:1048D0009F918F917F916F915F914F913F912F9118
:1048E0000F900FBE0F901F9018951F920F920FB64A
:1048F0000F9211242F933F938F939F93AF93BF9366
:104900008091D2069091D306A091D406B091D5069D
:104910003091D6060196A11DB11D232F2D5F2D3795
:1049200020F02D570196A11DB11D2093D60680932E
:10493000D2069093D306A093D406B093D506809167
:10494000CE069091CF06A091D006B091D1060196E7
:10495000A11DB11D8093CE069093CF06A093D006E3
:10496000B093D106BF91AF919F918F913F912F91BD
:104970000F900FBE0F901F9018958FB7F89420914D
:10498000D2063091D3064091D4065091D5068FBF00
:10499000B901CA0108959B01AC017FB7F8948091D9
:1049A000CE069091CF06A091D006B091D10666B503
:1049B000A89B05C06F3F19F00196A11DB11D7FBFD7
:1049C000BA2FA92F982F8827860F911DA11DB11DE1
:1049D00062E0880F991FAA1FBB1F6A95D1F7BC011F
:1049E0002DC0FFB7F8948091CE069091CF06A0918C
:1049F000D006B091D106E6B5A89B05C0EF3F19F0EF
:104A00000196A11DB11DFFBFBA2FA92F982F88278E
:104A10008E0F911DA11DB11DE2E0880F991FAA1FE5
:104A2000BB1FEA95D1F7861B970B885E9340C8F2AF
:104A3000215030404040504068517C4F2115310595
:104A40004105510571F60895019739F0880F991FB6
:104A5000880F991F02970197F1F70895789484B50C
:104A6000826084BD84B5816084BD85B5826085BD6A
:104A700085B5816085BDEEE6F0E080818160808350
:104A8000E1E8F0E010828081826080838081816033
:104A90008083E0E8F0E0808181608083E1E9F0E0FC
:104AA000808182608083808181608083E0E9F0E0A2
:104AB000808181608083E1ECF0E08081846080838C
:104AC000808182608083808181608083E3ECF0E07C
:104AD000808181608083E0ECF0E08081826080836F
:104AE000E2ECF0E0808181608083EAE7F0E08081A1
:104AF0008460808380818260808380818160808304
:104B00008081806880830895CF93DF93482F50E0A1
:104B1000CA01885C9E4FFC013491465E5E4FFA01EB
:104B20008491882369F190E0880F991FFC01E0517E
:104B3000FF4FA591B491FC01E250FF4FC591D49174
:104B4000662351F42FB7F8948C91932F9095892375
:104B50008C93888189230BC0623061F42FB7F8945D
:104B60008C91932F909589238C938881832B8883B4
:104B70002FBF06C09FB7F8948C91832B8C939FBF57
:104B8000DF91CF910895883071F1893068F48230D7
:104B900031F1833020F4813009F042C01DC08330F0
:104BA00089F08430E9F512C08B3059F18C3028F44B
:104BB0008930E9F08A30A1F51EC08C3031F18E3099
:104BC00079F529C0809180008F7703C080918000A3
:104BD0008F7D80938000089584B58F7702C084B55F
:104BE0008F7D84BD0895809190008F7707C080915C
:104BF00090008F7D03C080919000877F809390000C
:104C000008958091C0008F7703C08091C0008F7D90
:104C10008093C00008958091C200877F8093C20076
:104C20000895FF920F931F93F62E482F50E0CA016C
:104C30008A5A9E4FFC012491CA01885C9E4FFC0158
:104C40001491465E5E4FFA0104910023C9F02223BD
:104C500019F0822F0E94C325E02FF0E0EE0FFF1F16
:104C6000E250FF4FA591B4919FB7F894FF2021F433
:104C70008C911095812302C08C91812B8C939FBFC6
:104C80001F910F91FF9008950F931F93482F50E0AD
:104C9000CA018A5A9E4FFC012491CA01885C9E4F2A
:104CA000FC010491465E5E4FFA011491112319F440
:104CB00020E030E015C0222319F0822F0E94C32586
:104CC000812F90E0880F991F845F9E4FFC01A59172
:104CD000B4918C9120E030E0802311F021E030E0AD
:104CE000C9011F910F9108951F93CF93DF93182F40
:104CF000EB0161E00E948425209709F48FC0CF3F2B
:104D0000D10509F48EC0E12FF0E0EA5AFE4F8491FC
:104D1000883009F440C0893070F4823019F1833052
:104D200020F4813009F077C018C0833001F184305D
:104D300009F071C026C08B3009F44BC08C3030F4C0
:104D4000893099F18A3009F066C039C08C3009F495
:104D50004DC08E3009F05FC051C084B5806884BDFD
:104D6000C7BD63C084B5806284BDC8BD5EC080918C
:104D70008000806880938000D0938900C093880071
:104D800054C080918000806280938000D0938B001B
:104D9000C0938A004AC08091900080688093900000
:104DA000D0939900C093980040C080919000806299
:104DB00080939000D0939B00C0939A0036C080915E
:104DC0009000886080939000D0939D00C0939C00D9
:104DD0002CC08091C00080688093C0008091C0008A
:104DE0008F7B8093C000C093CF001FC08091C00014
:104DF00080628093C000C093D00017C08091C20031
:104E000088608093C2008091C2008B7F8093C20033
:104E1000C093D2000AC0C038D1051CF4812F60E0D5
:104E200002C0812F61E00E941126DF91CF911F9176
:104E30000895CF93DF930E942E2581E397E00E948F
:104E4000CD2B0E94B112C0E0D0E00E94EC1120975F
:104E5000E1F30E940000F9CF0895209117073091E7
:104E600018078091190790911A07281B390B2F7387
:104E70003070C9010895209117073091180780916B
:104E8000190790911A072817390719F42FEF3FEFE8
:104E900009C0E0911907F0911A07E952F94F808192
:104EA000282F30E0C9010895209117073091180785
:104EB0008091190790911A072817390719F42FEFD5
:104EC0003FEF13C0E0911907F0911A07E952F94F2B
:104ED00020818091190790911A0701968F73907025
:104EE00090931A078093190730E0C9010895109232
:104EF0001E0710921D0788EE93E0A0E0B0E08093BB
:104F00001F0790932007A0932107B093220785EEF7
:104F100093E090931C0780931B0708950F931F93B2
:104F2000DF93CF930F92CDB7DEB78C016983809169
:104F3000D603882369F083E0BE016F5F7F4F41E0B5
:104F400050E00E94EB2B1816190614F49C0107C0C0
:104F500081E090E0F8019383828320E030E0C90192
:104F60000F90CF91DF911F910F91089583E00E94E0
:104F7000C22B0895CF93DF9312C082E00E944D2B85
:104F80002FEF8F3F9207C9F0E0911707F0911807B4
:104F9000E952F94F8083D0931807C0931707C09147
:104FA0001707D09118072196CF73D07080911907F9
:104FB00090911A07C817D90701F7DF91CF9108958B
:104FC000FC0180818E5F808380E860E871E042E4CC
:104FD00050E00E94662B0895FC0181819081913AF6
:104FE00059F4813209F04CC080E06FEC73E047E087
:104FF00050E00E94662B42C0913209F041C08032DD
:1050000039F48FEC93E067E070E00E94AA2B36C081
:10501000823209F035C082818093D6038091CF031C
:105020009091D003A091D103B091D203805B9440C2
:10503000A040B04019F58091D60380FD12C087E7EB
:1050400097E790930108809300082BE088E190E0B7
:105050000FB6F894A895809360000FBE209360006F
:105060000DC088E10FB6F894809360001092600044
:105070000FBEA895109201081092000881E00895D3
:1050800080E00895CF92DF92EF92FF920F931F93EB
:10509000CF93DF937C016B018A01C0E0D0E00FC0A9
:1050A000D6016D916D01D701ED91FC910190F081D8
:1050B000E02DC7010995C80FD91F015010400115F7
:1050C000110571F7CE01DF91CF911F910F91FF90E4
:1050D000EF90DF90CF900895DC01ED91FC9101906D
:1050E000F081E02D09950895EF92FF920F931F93A1
:1050F0008C01DC01ED91FC910190F081E02D6DE0DF
:1051000009957C01D801ED91FC910190F081E02D91
:10511000C8016AE009959C012E0D3F1DC9011F9130
:105120000F91FF90EF900895CF93DF93EC016115FD
:10513000710519F420E030E00FC0DB010D90002074
:10514000E9F71197A61BB70BE881F9810280F3817B
:10515000E02DAD0109959C01C901DF91CF91089522
:105160004F925F927F928F929F92AF92BF92CF9217
:10517000DF92EF92FF920F931F93DF93CF93CDB700
:10518000DEB7A1970FB6F894DEBF0FBECDBF2C01DE
:10519000742ECB01223008F42AE019A231E2C32E8A
:1051A000D12CCC0EDD1E822E9924AA24BB24672D7F
:1051B000752FA50194010E94463279018A01C80128
:1051C000B701A50194010E942732472D461B089480
:1051D000C108D1084A3014F4405D01C0495CF601B1
:1051E0004083E114F1040105110521F07E2C5F2DAF
:1051F000C801DDCFC201B6010E949428A1960FB666
:10520000F894DEBF0FBECDBFCF91DF911F910F91FC
:10521000FF90EF90DF90CF90BF90AF909F908F90D6
:105220007F905F904F900895DC012115310541F486
:10523000ED91FC910190F081E02D642F0995089586
:105240000E94B0280895EF92FF920F931F937C0164
:105250000E9414298C01C7010E9474289C01200F10
:10526000311FC9011F910F91FF90EF900895EF92A8
:10527000FF920F931F939A017B0100E010E0B801A9
:10528000A7010E9414291F910F91FF90EF9008959C
:10529000CF92DF92EF92FF920F931F936C017B01ED
:1052A0009A0100E010E0B801A7010E9414298C01C6
:1052B000C6010E947428080F191FC8011F910F9181
:1052C000FF90EF90DF90CF900895CF92DF92EF9212
:1052D000FF920F931F936C01E62E9A01FF2400E0CA
:1052E00010E0B801A7010E9414298C01C6010E9498
:1052F0007428080F191FC8011F910F91FF90EF909C
:10530000DF90CF900895CF92DF92EF92FF920F93AC
:105310001F93CF93DF93EC016A017B0121153105C7
:1053200041F4E881F9810190F081E02D642F099525
:105330001FC02A303105D1F477FF17C0E881F98109
:105340000190F081E02D6DE209958C0144275527ED
:10535000BA014C195D096E097F09CE012AE00E944D
:10536000B0289801280F391F04C02AE00E94B028F5
:105370009C01C901DF91CF911F910F91FF90EF9098
:10538000DF90CF900895EF92FF920F931F937C01CF
:105390000E9483298C01C7010E9474289C01200F60
:1053A000311FC9011F910F91FF90EF900895EF9267
:1053B000FF920F931F937B019A010027F7FC009542
:1053C000102FB801A7010E9483291F910F91FF9010
:1053D000EF900895CF92DF92EF92FF920F931F9379
:1053E0006C017B019A010027F7FC0095102FB80192
:1053F000A7010E9483298C01C6010E947428080F0E
:10540000191FC8011F910F91FF90EF90DF90CF906F
:1054100008950E94942808957F928F929F92AF9250
:10542000BF92CF92DF92EF92FF920F931F93CF9391
:10543000DF934C017A018B01722ECB01BA01A801D6
:1054400097010E940C32882321F0C4016FEB73E0B6
:1054500021C0C0E0D0E057016801E894D7F8C60148
:10546000B5012FEF3FEF4FE75FE70E940C32882333
:1054700051F4C601B5012FEF3FEF4FE75FE70E9400
:105480000830181614F0C1E0D0E0219739F0C401BB
:1054900063EC73E00E949428EC0193C0C801B7014B
:1054A0002FEF3FEF4FE75FE40E945731181654F09B
:1054B000C801B7012FEF3FEF4FE75FEC0E940830C4
:1054C000882324F4C40167EC73E0E4CFC801B7017A
:1054D00020E030E040E050E00E94083087FD03C04B
:1054E000C0E0D0E00EC0D401ED91FC910190F081BC
:1054F000E02DC4016DE20995EC0117FB109517F939
:10550000109520E030E040E05FE3DD240BC0CA01ED
:10551000B90120E030E040E251E40E940C309B01F0
:10552000AC01D394D71498F3C801B7010E94A42FFB
:105530005B016C010E9479307B018C01C401B801D0
:10554000A7012AE030E00E941429C80FD91F772054
:1055500039F0C4016BEC73E00E949428C80FD91F86
:10556000C801B7010E94A5309B01AC01C601B5017D
:105570000E94A32F24C020E030E040E251E40E94CA
:105580005B317B018C010E9474305B016C01CC2487
:10559000B7FCC094DC2CC401B601A5012AE030E0C0
:1055A0000E948329C80FD91FC601B5010E94A730E8
:1055B0009B01AC01C801B7010E94A32F7A94772008
:1055C000D1F6CE01DF91CF911F910F91FF90EF9017
:1055D000DF90CF90BF90AF909F908F907F90089575
:1055E0000E940C2A0895EF92FF920F931F937C0163
:1055F0000E940C2A8C01C7010E947428080F191FF1
:10560000C8011F910F91FF90EF900895EF92FF92C4
:105610000F931F937C010E9494288C01C7010E9464
:105620007428080F191FC8011F910F91FF90EF9068
:105630000895282F80912B078823C1F057FF1AC0A7
:1056400015C0289890932A078091F1008193E21762
:10565000F307B9F74115510539F08091F20088231D
:1056600019F48BE68093E800AFBF02C04FEF5FEF05
:10567000CA010895AFB7F89427702093E90080918C
:10568000F200282F30E0241735070CF4A901FB01A4
:105690009B01240F311D94E6DACFDF93CF930F9255
:1056A000CDB7DEB7BE016F5F7F4F41E050E00E9493
:1056B000192B019719F02FEF3FEF03C08981282F95
:1056C00030E0C9010F90CF91DF910895FF920F93C1
:1056D0001F93F82E142F052F40912E0750912F075E
:1056E000212F302FC901DC01FB016EEF29C0F7FE2D
:1056F00002C0949101C0908120912C0730912D0718
:1057000024173507ACF48091E8008570E1F38091AF
:10571000E80082FF03C02FEF3FEF17C09093F10026
:10572000C90101968F739070892B11F46093E80082
:105730002F5F3F4F30932D0720932C071197319601
:105740001097A9F6812F902F9C01C9011F910F91ED
:10575000FF9008959C018091E80082FFFCCFF90141
:10576000260F311D03C08091F1008193E217F307EA
:10577000D1F7289884E680932A078BEF8093E8007E
:10578000CB0108958093E9008091F200882319F0FD
:105790008AE38093E8000895089510922B0781E032
:1057A0008093D70080EA8093D80082E189BD09B454
:1057B00000FEFDCF61E070E080E090E00E94CB242D
:1057C00080E98093D8008CE08093E2001092E000A2
:1057D000559A209A08955F926F927F928F929F922E
:1057E000AF92BF92CF92DF92EF92FF920F931F93EF
:1057F000CF93DF93E82E842E752E80912B0788237C
:1058000071F18B01242F352FC901EC017AEFF72EAE
:1058100067E0962E9E2050E4552E8E2D90E040E2BB
:10582000A42EB12CA822B9223AE3632E20E4C22E82
:10583000D12CC822D92258C09FB7F8949092E90081
:105840008091E80085FD02C020E004C08091F20054
:10585000252D281B9FBF222361F4FA9419F42FEF02
:105860003FEF4DC061E070E080E090E00E94CB240B
:105870003BC0822F90E0C817D9070CF42C2FC21B15
:10588000D1094FB7F8949092E900A114B10421F422
:1058900006C01092F10021502223D9F719C0E7FC6D
:1058A00003C0F801922F10C0C801322F06C0FC01BE
:1058B0000196E491E093F10031503323C1F706C023
:1058C00081918093F10091509923D1F7020F111D1E
:1058D0008091E80085FF05C0209729F4C114D10408
:1058E00011F06092E8004FBF209709F0A5CF5D98B6
:1058F00084E680932907282D372DC9019C01C90111
:10590000DF91CF911F910F91FF90EF90DF90CF909B
:10591000BF90AF909F908F907F906F905F90089511
:105920001F920F920FB60F9211242F933F934F9314
:105930005F936F937F938F939F93AF93BF93EF93F7
:10594000FF938091E1001092E100982F83FF0FC038
:105950001092E90081E08093EB001092EC0082E36A
:105960008093ED0010922B0788E08093F00092FF67
:1059700034C083E08093E9008091F200882319F01D
:105980008AE38093E8008FB7F89492E09093E9005F
:105990009091F2008FBF992321F08BE197E00E9454
:1059A000BA2780912907882351F0809129078150D7
:1059B0008093290780912907882309F45D9A8091B3
:1059C0002A07882351F080912A07815080932A0763
:1059D00080912A07882309F4289AFF91EF91BF91BB
:1059E000AF919F918F917F916F915F914F913F9177
:1059F0002F910F900FBE0F901F9018950F931F932C
:105A0000DF93CF930F92CDB7DEB719828E010F5F70
:105A10001F4FC8010E94E027C8010E94972F89816B
:105A200090E00F90CF91DF911F910F9108951F92F9
:105A30000F920FB60F921124EF92FF921F932F93A4
:105A40003F934F935F936F937F938F939F93AF9306
:105A5000BF93EF93FF93DF93CF93CDB7DEB76197FB
:105A6000DEBFCDBF1092E9008091E80083FF0FC137
:105A7000FE0131969E01275F3F4F03C08091F100E8
:105A80008193E217F307D1F7289884E680932A07D9
:105A900082EF8093E800998197FF05C08091E8002C
:105AA00080FFFCCF03C08EEF8093E800292F30E009
:105AB000C90180769070892B09F0C2C08A81882341
:105AC00029F41092F1001092F100D6C0813009F44F
:105AD000D3C0833009F4D0C0853049F48091E80008
