:100000000C94B5010C946B230C9498230C94C52389
:100010000C94F2230C94DD010C94DD010C94DD01B1
:100020000C94DD010C94DD010C943A2C0C94C12C41
:100030000C94DD010C94DD010C94DD010C94DD01C8
:100040000C94DD010C94DD010C94DD010C94DD01B8
:100050000C94DD010C94DD010C94DD010C941F2443
:100060000C94DD010C94DD010C94DD010C94DD0198
:100070000C94DD010C94DD010C94DD010C94DD0188
:100080000C94DD010C94DD010C94DD010C94DD0178
:100090000C94DD010C94DD010C94DD010C94DD0168
:1000A0000C94DD010C94DD010C94DD010D0E180E95
:1000B000230E260E5B0E630E9B0EBC0EBE0ED30EE1
:1000C000D60EE710DF0EE710E710F40E130F111035
:1000D00016102E104510E710B810C510D110E410FE
:1000E0007C3C3E5E2B3D3F2F5B5D3B2C2A225C001F
:1000F00000000000240027002A002D00300000002E
:100100000000250028002B002E0031000000000018
:100110002300260029002C002F00040404040403FB
:100120000405020202020403020202020606060697
:100130000606040402020204040802011040804082
:1001400010204080408008020401804020100201FD
:100150001080102040400000000200080E00000344
:100160000401000B0000000000000000000000007F
:1001700000000000070605040100080A0B0C0D0929
:10018000080B000202020100090400000102020043
:1001900000052400100105240101010424020605C4
:1001A0002406000107058103100040090401000234
:1001B0000A00000007050202400000070583024014
:1001C000000004030904220341007200640075006A
:1001D00069006E006F0020004C0065006F006E002B
:1001E0006100720064006F00180341007200640037
:1001F000750069006E006F0020004C004C00430049
:10020000120100020000004041233680000101027B
:10021000000112010002020000404123368000016B
:100220000102000100C18081C105010902A101098B
:1002300001A1008501050919012903150025019572
:1002400003750181029501750581030501093009D6
:100250003109381581257F750895038106C0C005D1
:10026000010906A1018502050719E029E715002506
:100270000175019508810295017508810395067540
:1002800008150025650507190029658100C00904C6
:1002900002000103000000092101010001226500A4
:1002A0000705840340000100000000000000002A50
:1002B0002B280000000000000000000000000000EB
:1002C000000000000000002C9EB4A0A1A2A434A64F
:1002D000A7A5AE362D3738271E1F2021222324251F
:1002E00026B333B62EB7B89F8485868788898A8BD4
:1002F0008C8D8E8F909192939495969798999A9BC6
:100300009C9D2F3130A3AD350405060708090A0B63
:100310000C0D0E0F101112131415161718191A1BA5
:100320001C1DAFB1B0B500494E46494E4954594E17
:10033000414ECDCCCC3D0AD7233C17B7D13877CC32
:100340002B329595E6241FB14F0A00002041000092
:10035000C84200401C4620BCBE4CCA1B0E5AAEC54B
:100360009D740B042127762B442E11241FBECFEF42
:10037000DAE0DEBFCDBF13E0A0E0B1E0E8EBF4E6E9
:1003800002C005900D92AC3FB107D9F717E0ACEF72
:10039000B3E001C01D92AB33B107E1F713E0CAE649
:1003A000D3E004C02297FE010E941432C236D10766
:1003B000C9F70E94C3260C945A320C940000662799
:1003C00077270C94F901FB01DC0104C08D910190A9
:1003D000801921F441505040C8F7881B990B0895AB
:1003E000FB01DC0102C001900D9241505040D8F752
:1003F0000895A0E0B0E0EFEFF1E00C942932EC01B9
:100400005B016115710519F0FB0191838083F990FF
:100410008F2D90E00E941832892BC9F7FDE2FF165C
:1004200021F4F990EE24E39405C02BE2F21609F4CE
:10043000F990EE248E0101501040C80167E273E08C
:1004400043E050E00E945903892B01F58E010E5FB5
:100450001F4FC8016AE273E045E050E00E94590373
:10046000892B19F48E01095F1F4FA114B10419F0F3
:10047000F50111830083E0FC04C070E090E080E8A7
:1004800014C070E090E080E86FEF08C1C8016FE22F
:1004900073E043E050E00E945903892B69F4A114F2
:1004A000B10429F470E090E080EC6FE7F7C0229689
:1004B000F501D183C083F6CF8824992440E050E031
:1004C00060E070E0EF2DE053EA30A0F5F2E0EF2AB3
:1004D0008E2D90E09C0128703070E2FE06C0232B28
:1004E00079F50894811C911C2BC0232B19F00894DA
:1004F00081089108DB01CA0112E0880F991FAA1F29
:10050000BB1F1A95D1F7480F591F6A1F7B1F440F55
:10051000551F661F771F4E0F511D611D711D4839F4
:1005200029E9520729E9620729E1720748F084E0C6
:10053000E82A06C0EE3F31F4E3FC39C098E0E92A2E
:10054000F990C0CFE53311F0E53189F529912D32CD
:1005500019F4E0E1EE2A05C02B3219F081E090E0B9
:1005600003C0299182E090E0E22FE053EA3018F0D6
:10057000C81BD90B1CC020E030E0FCE020383F074E
:100580005CF4C901880F991F880F991F280F391F24
:10059000220F331F2E0F311DE991E053EA3068F32B
:1005A000E4FE03C0309521953F4F820E931ECE2C62
:1005B000DD24E1FE07C0A114B10421F02197F5016B
:1005C000D183C083CB01BA010E944F307B018C01E3
:1005D000F3E0CF22DD2423E0C216D10421F417FB7F
:1005E000109517F9109557016801C801B70120E06F
:1005F00030E040E050E00E94B22F882309F44AC066
:1006000097FE0DC026E4E22E23E0F22E9094819412
:1006100091089394C0E2D0E000E010E012C09EE5A3
:10062000E92E93E0F92EF6CFF7012591359145910A
:100630005491C601B5010E9405315B016C018C1A11
:100640009D0A8C169D0684F7D595C7950F5F1F4FA1
:100650000630110529F08CEF9FEFE80EF91EF1CF5F
:10066000C501D6017C018D018C2D880F8D2D881F31
:100670008F3F51F0C601B50120E030E040E050E08E
:100680000E94B22F882331F482E290E090933A07DF
:10069000809339077E2D9F2D802F612F272F392F93
:1006A000482F562FB901CA01CDB7DEB7ECE00C9444
:1006B0004532FB01DC014150504088F08D9181347E
:1006C0001CF08B350CF4805E659161341CF06B3549
:1006D0000CF4605E861B611171F3990B0895881B01
:1006E000FCCF6F927F928F929F92AF92BF92CF92E8
:1006F000DF92EF92FF920F931F93CF93DF93EB0163
:10070000AA2797FDA095BA2FBC01CD010E945130B8
:100710003B014C01A090FE03B090FF03C090000489
:10072000D09001046091060470910704882777FD3A
:100730008095982F0E945130A60195010E940531A5
:100740007B018C01C401B301A80197010E94B22F63
:1007500087FD50C0C601B5012091080430910904FD
:1007600040910A0450910B040E940531A8019701A1
:100770000E944D2F9B01AC01C401B3010E940131C5
:100780001816C4F1BE01882777FD8095982F0E9426
:1007900051303B014C01609104047091050488279D
:1007A00077FD8095982F0E945130A60195010E94F7
:1007B00005319B01AC01C401B3010E94B22F87FD3A
:1007C00019C010E0C601B50120910C0430910D0450
:1007D00040910E0450910F040E9405319B01AC0121
:1007E000C401B3010E94013118160CF411E081E03C
:1007F000182701C010E0812FDF91CF911F910F9139
:10080000FF90EF90DF90CF90BF90AF909F908F9030
:100810007F906F9008951092270410922A0489E126
:10082000809354041092570410926F04109276042F
:1008300010927904109295041092980410929404E6
:100840001092930488ED93E0909392048093910426
:1008500008950F931F93CF93DF93CCEFD3E060E025
:1008600070E08B010F5F1F4F80EB94E00E94D61267
:100870008993B80109321105A1F7DF91CF911F913A
:100880000F9108950F931F93CF93DF93CCEFD3E095
:1008900060E070E08B010F5F1F4F499180EB94E0A7
:1008A0000E94DD12B80109321105A1F7DF91CF9145
:1008B0001F910F910895EF92FF920F931F93CF9383
:1008C000DF938C0185E197E00E94D7261816190660
:1008D0001CF020E030E021C065E070E080E090E0B6
:1008E0000E94752485E197E00E94D7267C01C0E034
:1008F000D0E00BC085E197E00E94FE268C3241F0EB
:10090000F801EC0FFD1F80832196CE15DF0594F3CF
:100910009E010C0F1D1FF8011082C901DF91CF91BC
:100920001F910F91FF90EF900895EF92FF920F9318
:100930001F937C0105E117E0C80160E071E00E94AF
:10094000B329C801B7014AE050E00E9494291F91E1
:100950000F91FF90EF900895EF92FF920F931F93E6
:100960007C019093C9038093C80305E117E0C80197
:100970006CE071E00E94B329C801B7014AE050E081
:100980000E9494291F910F91FF90EF900895CF93AB
:10099000DF9364E670E080E090E00E94752485E1DA
:1009A00097E00E94D7268997A9F4CCEFD3E005C041
:1009B00085E197E00E94FE26899384E0C532D8073E
:1009C000B9F70E94420485E197E067E171E00E9477
:1009D000B02A23C085E197E066E271E00E94B32966
:1009E00085E197E069E270E04AE050E00E94E1288A
:1009F00085E197E060E471E00E94B32985E197E02A
:100A00000E94D726BC0185E197E04AE050E00E94B1
:100A1000942985E197E00E946027DF91CF910895A6
:100A20001092300410922F0410C0E450FC4F85E166
:100A300097E060810E94382780912F0490913004C4
:100A400001969093300480932F04E0912F04F0914D
:100A50003004E932F10548F385E197E065E471E09F
:100A60000E94B02A0895CF92DF92EF92FF920F93E7
:100A70001F937C0105E117E0C80166E471E00E9464
:100A8000B329F7016081772767FD7095C8014AE0B7
:100A900050E00E948129C8016AE471E00E94B329F4
:100AA000C801F70161810E9416288CE4C82E81E0FC
:100AB000D82EC801B6010E94B329F70142815381A3
:100AC00064817581C80122E030E00E949A2AC80141
:100AD000B6010E94B329F70146815781608571856F
:100AE000C80122E030E00E949D2A1F910F91FF90E3
:100AF000EF90DF90CF9008950F931F93DF93CF93E4
:100B0000CDB7DEB727970FB6F894DEBF0FBECDBFC7
:100B10008E010F5F1F4FC8010E945B04892B29F4CF
:100B200060E070E080E090E003C0C8010E94DF0157
:100B300027960FB6F894DEBF0FBECDBFCF91DF91E1
:100B40001F910F9108952F923F924F925F926F9253
:100B50007F928F929F92AF92BF92CF92DF92EF924D
:100B6000FF920F931F93DF93CF93CDB7DEB72897F4
:100B70000FB6F894DEBF0FBECDBF5B01AA2797FD6D
:100B8000A095BA2FBC01CD010E94513069837A83B0
:100B90008B839C83E090FE03F090FF0300910004A0
:100BA00010910104A80197010E94B62F3B014C014E
:100BB000C801B70120911504309116044091170423
:100BC000509118040E9405316D837E838F8398872E
:100BD000C801B701209108043091090440910A042A
:100BE00050910B040E9405312D813E814F81588523
:100BF0000E944D2F1B012C01CC24B7FCC094DC2C8F
:100C0000C601B5010E945130A80197010E94B62F7C
:100C10005B016C01C401B301A40193010E94053181
:100C20007B018C01C201B101A20191010E94053139
:100C30009B01AC01C801B7010E944E2F7B018C01C2
:100C4000C601B501A60195010E9405319B01AC01C9
:100C5000C801B7010E944D2F7B018C01C401B30173
:100C6000A40193010E944E2FA20191010E9405311F
:100C70009B01AC01C801B7010E94B62F7B018C011A
:100C800029813A814B815C810E9405315B016C01B5
:100C90006D817E818F81988520E030E040E05FE3C8
:100CA0000E9405319B01AC01C601B5010E944E2F87
:100CB0000E941E3070933B0460933A04C801B70150
:100CC000A80197010E9405319B01AC0160E070E032
:100CD00080E89FE30E944D2F0E946C3129813A8168
:100CE0004B815C810E9405310E941E3070933D044F
:100CF00060933C0428960FB6F894DEBF0FBECDBFBC
:100D0000CF91DF911F910F91FF90EF90DF90CF90E7
:100D1000BF90AF909F908F907F906F905F904F901B
:100D20003F902F900895CF92DF92EF92FF920F9312
:100D30001F93F82ED92EE62EC72E88E06F2D0E9425
:100D4000BB2589E06E2D0E94BB2505E117E0C80197
:100D50006EE471E00E94B329C8016F2D7D2D4AE039
:100D600050E00E949429C80168E571E00E94B3290F
:100D7000C8016E2D7C2D4AE050E00E9494291F91FD
:100D80000F91FF90EF90DF90CF900895682F85E14D
:100D90000E94BB250895EF92FF920F931F937C0151
:100DA00080E00E94C6060027F7FC0095102FC801BE
:100DB000B7010E94752481E00E94C6061F910F9121
:100DC000FF90EF90089582E090E00E94CB0662E3EE
:100DD00070E080E090E00E94752482E090E00E9444
:100DE000CB0668EE73E080E090E00E9475240895E1
:100DF00082E090E00E94CB0664E670E080E090E044
:100E00000E94752482E090E00E94CB0668EE73E0B9
:100E100080E090E00E947524089581E00E94C6065B
:100E2000089587E160E00E94BB251EBC0DB407FE5B
:100E3000FDCF8EB587E161E00E94BB250895EF925A
:100E4000FF920F931F937C018BE0B7010E941E2637
:100E500005E117E0C80162E671E00E94B329C8010C
:100E6000B7014AE050E00E9494291F910F91FF9032
:100E7000EF900895EF92FF920F931F937C018AE009
:100E8000B7010E941E2605E117E0C8016AE671E07D
:100E90000E94B329C801B7014AE050E00E9494299A
:100EA0001F910F91FF90EF9008950F931F938C0166
:100EB0000E943A07C8010E941F071F910F910895D1
:100EC000813069F48093420480911B0490911C044A
:100ED0000E94550785E197E062E771E00CC010922F
:100EE00042048091190490911A040E94550785E1EB
:100EF00097E061E871E00E94B02A0895EF92FF92B6
:100F00000F931F93CF93DF93EC01809142048823CA
:100F100019F080E00E94600700E010E0EE24FF245A
:100F2000EC1AFD0A10C01C161D0614F45A9A01C0D2
:100F30005A985998599A8091C8039091C9030E9470
:100F4000CE240F5F1F4FCE01D7FDC7010817190729
:100F500054F3DF91CF911F910F91FF90EF9008957F
:100F6000EF92FF920F931F93CF93DF93EC01809149
:100F70004204882319F080E00E94600700E010E03E
:100F8000EE24FF24EC1AFD0A10C01C161D0614F4F2
:100F90005C9801C05C9A5B985B9A8091C8039091C1
:100FA000C9030E94CE240F5F1F4FCE01D7FDC7019A
:100FB0000817190754F3DF91CF911F910F91FF90FC
:100FC000EF9008952F923F924F925F926F927F928F
:100FD0008F929F92AF92BF92CF92DF92EF92FF9249
:100FE0000F931F93DF93CF93CDB7DEB72A970FB63A
:100FF000F894DEBF0FBECDBF6B837C838D839E8351
:101000002F83388749875A876090FE037090FF03CB
:101010008090000490900104C401B3012091150454
:101020003091160440911704509118040E94053124
:1010300020E030E040E05FEB0E9405311B012C0115
:101040006B817C818D819E81A20191010E944E2F36
:101050009B01AC010E9405317B018C016F81788579
:1010600089859A859B01AC010E9405315B016C0169
:10107000C801B701A60195010E944E2F0E946C3154
:101080000E941E307A836983C401B3012091080451
:101090003091090440910A0450910B040E940531DB
:1010A0002B813C814D815E810E944D2FA2019101D7
:1010B0000E944E2F9B01AC010E9405319B01AC01A7
:1010C000CA01A60195010E944E2F0E946C310E9418
:1010D0001E307B0180913E0490913F0429813A812A
:1010E000281739071CF40FEF1FEF02C001E010E0D2
:1010F000E981FA81E817F90711F400E010E0809126
:10110000400490914104E816F90624F4CC24CA94D2
:10111000DC2C03C021E0C22ED12CE816F906E1F444
:10112000CC24DD2419C0800F911F90933F0480933D
:101130003E04C8010E94B007809140049091410490
:101140008E159F0549F08C0D9D1D90934104809351
:101150004004C6010E947E0780913E0490913F04A6
:1011600029813A8182179307F1F68091400490918A
:1011700041048E159F0501F76B817C818D819E81D5
:101180000E941E3070933B0460933A046F8178850F
:1011900089859A850E941E3070933D0460933C04BB
:1011A0002A960FB6F894DEBF0FBECDBFCF91DF9168
:1011B0001F910F91FF90EF90DF90CF90BF90AF9075
:1011C0009F908F907F906F905F904F903F902F9067
:1011D00008952F923F924F925F926F927F928F92DB
:1011E0009F92AF92BF92CF92DF92EF92FF920F93B6
:1011F0001F93DF93CF93CDB7DEB76E970FB6F894FA
:10120000DEBF0FBECDBF6F87788B898B9A8B2B8B00
:101210003C8B4D8B5E8BEF8AF88E098F1A8FAB8ECD
:10122000BC8ECD8EDE8E80E090E0A0E0B0E08B87BB
:101230009C87AD87BE878F839887A987BA878B8362
:101240009C83AD83BE831A82198260E070E080E8DF
:101250009FE32B813C814D815E810E944D2F7B015C
:101260008C01A80197010E9405315B016C016B8123
:101270007C818D819E819B01AC010E944E2FA80133
:1012800097010E9405311B012C016B817C818D81AE
:101290009E819B01AC010E9405317B018C01C6013E
:1012A000B5012F85388949895A890E9405313B014A
:1012B0004C01C201B1012BA93CA94DA95EA90E9414
:1012C00005319B01AC01C401B3010E944E2F3B01CB
:1012D0004C01C801B7012F89388D498D5A8D0E9464
:1012E00005319B01AC01C401B3010E944E2F3B01AB
:1012F0004C01C601B5012B893C894D895E890E944C
:1013000005315B016C01C201B1012FA938AD49ADB6
:101310005AAD0E9405319B01AC01C601B5010E9486
:101320004E2F5B016C01C801B7012B8D3C8D4D8D9B
:101330005E8D0E9405319B01AC01C601B5010E9482
:101340004E2F5B016C016B857C858D859E85A4018C
:1013500093010E944D2F7B018C0120E030E040E0A2
:1013600050E00E94013118165CF4C801B70120E07A
:1013700030E040E85FE30E940131181694F10AC0A2
:10138000C801B70120E030E040E85FEB0E94B22FD7
:1013900087FD27C06F81788589859A85A60195018B
:1013A0000E944D2F7B018C0120E030E040E050E0B6
:1013B0000E94013118165CF4C801B70120E030E04A
:1013C00040E85FE30E94013118165CF018C0C801C4
:1013D000B70120E030E040E85FEB0E94B22F8823A5
:1013E00074F4C401B301A60195010E94E2076B8663
:1013F0007C868D869E86AF82B886C986DA866B81AA
:101400007C818D819E812AE037ED43E25BE30E947F
:101410004E2F6B837C838D839E83A981BA81119625
:10142000BA83A983A159B14009F00FCF6E960FB6C8
:10143000F894DEBF0FBECDBFCF91DF911F910F910A
:10144000FF90EF90DF90CF90BF90AF909F908F90E4
:101450007F906F905F904F903F902F9008954F92A4
:101460005F926F927F928F929F92AF92BF92CF9234
:10147000DF92EF92FF920F931F93DF93CF9300D0F1
:1014800000D0CDB7DEB72B013C0129833A834B83D3
:101490005C830E941E307B018C0169817A818B8183
:1014A0009C810E941E309B01AC01C701B9010E94C2
:1014B0007103882339F485E197E064E971E00E94C3
:1014C000B02A69C060913A0470913B04882777FD87
:1014D0008095982F0E9451305B016C0160913C0413
:1014E00070913D04882777FD8095982F0E94513098
:1014F0007B018C018DB79EB708970FB6F8949EBFFD
:101500000FBE8DBF8DB69EB60894811C911CC30181
:10151000B201A60195010E944D2F20E030E040E08D
:101520005FE30E9405319B01AC01C601B5010E9439
:101530004E2FF401608371838283938369817A8162
:101540008B819C81A80197010E944D2F20E030E003
:1015500040E05FE30E9405319B01AC01C801B70187
:101560000E944E2FF4016483758386839783C6019E
:10157000B501A801970183017201A980BA80CB80CF
:10158000DC800E94E9088DB79EB708960FB6F894E4
:101590009EBF0FBE8DBF0F900F900F900F90CF91F9
:1015A000DF911F910F91FF90EF90DF90CF90BF9050
:1015B000AF909F908F907F906F905F904F90089525
:1015C000CF93DF93C0E0D0E009C08FEF9FEF0E9480
:1015D000B0078FEF9FEF0E947E0721968DE00E945B
:1015E000EE25892B91F385E197E065EA71E00E9491
:1015F000B02ACE01DF91CF910895CF93DF93C0E061
:10160000D0E009C081E090E00E94B0078FEF9FEF2B
:101610000E947E07219685E00E94EE25892B91F39A
:1016200085E197E068EB71E00E94B02ACE01DF917E
:10163000CF910895EF92FF920F931F93CF93DF9373
:10164000EC010E94B00785E197E06CEC71E00E942C
:10165000B32985E197E0BE014AE050E00E9481296C
:1016600085E197E063ED71E00E94B02A06C064E670
:1016700070E080E090E00E94752485E197E00E9490
:10168000D726892BA1F30E947C057B018C01BE012A
:10169000882777FD8095982F0E945130A8019701E7
:1016A0000E94B62FAB01BC0185E197E022E030E05B
:1016B0000E949D2ADF91CF911F910F91FF90EF9093
:1016C00008958091190490911A040E945507809101
:1016D0002304909124040E94AC0480E797E10E94C7
:1016E000950480E090E060E070E00E949306089529
:1016F0002F923F924F925F926F927F928F929F9222
:10170000AF92BF92CF92DF92EF92FF920F931F930F
:10171000DF93CF9300D000D0CDB7DEB780E00E943A
:1017200060070E94F80680E090E060E070E00E94B0
:1017300093065DE1452E54E0552E80911D04909155
:101740001E040E943A0780911F04909120040E9479
:101750001F0780912104909122040E94AC040E94F2
:10176000E00AA9E1B4E08D919C910E94550784E6BE
:1017700090E00E94B0070E94FD0A7C0145EE242EF5
:101780004FEF342E240C351CF101A080B18081EE86
:101790009FEF480E591ED2018D919D910D90BC91E5
:1017A000A02D89839A83AB83BC83609110047091D0
:1017B00011046A0D7B1D882777FD8095982F0E9464
:1017C000513029813A814B815C810E9405313B0176
:1017D0004C010027F7FC0095102FC801B7010E94AB
:1017E00051309B01AC01C401B3010E944E2F20E097
:1017F00030E048EC52E40E944E2F0E941E307B01E4
:101800008C0170933F0460933E0480911204909188
:101810001304A80EB91ECC24B7FCC094DC2CC6015E
:10182000B5010E94513029813A814B815C810E942F
:1018300005310E941E309B01AC01709341046093FE
:101840004004C701B9010E94A30535E1C32E37E06A
:10185000D32E60913E0470913F04882777FD8095D8
:10186000982F0E945130F2012081318142815381B1
:101870000E94B62F7B018C01D1016D917C9188274C
:1018800077FD8095982F0E9451309B01AC01C801D3
:10189000B7010E944D2FAB01BC01C60122E030E030
:1018A0000E949D2A6091400470914104882777FD31
:1018B0008095982F0E945130F20120813181428120
:1018C00053810E94B62F7B018C01D1016D917C91D7
:1018D000882777FD8095982F0E9451309B01AC019D
:1018E000C801B7010E944D2FAB01BC01C60122E027
:1018F00030E00E949D2A60913A0470913B04882751
:1019000077FD8095982F0E945130F201208131811E
:10191000428153810E94B62FAB01BC01C60122E077
:1019200030E00E949D2A60913C0470913D0488271C
:1019300077FD8095982F0E945130D2012D913D91D5
:101940004D915C910E94B62FAB01BC01C60122E013
:1019500030E00E949D2AE9E1F4E0808191810E94BB
:101960005507609108047091090480910A049091D0
:101970000B04D2012D913D914D915C910E94053156
:1019800020E030E040E05FE30E9405319B01AC01C4
:10199000CA010E942F0A80912304909124040E947E
:1019A000AC0481E0809335040F900F900F900F905E
:1019B000CF91DF911F910F91FF90EF90DF90CF902B
:1019C000BF90AF909F908F907F906F905F904F905F
:1019D0003F902F900895EF92FF920F931F93F894EA
:1019E00085E994E067EE71E041E00E943D208823A4
:1019F00041F485E197E061EF71E00E94B02A7894AC
:101A000046C085E197E066E072E00E94B02AEE24CD
:101A1000FF24870105C00894E11CF11C011D111D64
:101A200085E994E00E942E1C18161906A4F3C8013B
:101A3000B701807090700E944F306093450470939E
:101A400046048093470490934804B8018827992757
:101A50000E944F306093490470934A0480934B0472
:101A600090934C0485E197E060E172E00E94B32915
:101A700085E197E0B801A7012AE030E00E94CD2877
:101A800085E994E00E94111B78940E9411071F9130
:101A90000F91FF90EF900895CF93DF93EC01F894AE
:101AA00085E994E067EE71E043E60E943D208823DB
:101AB00041F485E197E068E172E00E94B02A7894F1
:101AC0001AC085E197E06EE272E00E94B32981E9D5
:101AD00094E0BE014AE050E00E94942985E994E038
:101AE0000E94111B85E197E065E472E00E94B02A34
:101AF00078940E941107DF91CF910895F894809116
:101B0000500490915104892B89F485E994E06BE4A9
:101B100072E043E50E943D208823C9F485E197E007
:101B200068E172E00E94B02A7894089585E994E013
:101B30006BE472E043E60E943D20882341F485E196
:101B400097E068E172E00E94B02A7894089581E9F4
:101B500094E063E474E04AE050E00E944C2385E99D
:101B600094E00E94111B78940E94110785E197E090
:101B700068E572E00E94B02A089585E197E06DE57E
:101B800072E00E94B02A83E594E066E148E00E949A
:101B90000823882329F485E197E065E672E004C014
:101BA00085E197E068E572E00E94B02A0895AF925F
:101BB000BF92CF92DF92EF92FF920F931F93CF933A
:101BC000DF93EC0180913504882391F48981833679
:101BD00079F0863669F085E197E064E772E00E946B
:101BE000B02A85E197E063E872E00E94B02A08C35A
:101BF0008981992787FD9095A92FB92FFC01E1567E
:101C0000F040EA31F10508F0E2C2EA5AFF4FEE0F68
:101C1000FF1F0590F491E02D09946A817B818C81EE
:101C20009D810E941E30DC01CB010E949504D5C22B
:101C30006A817B818C819D810E941E30DC01CB01F9
:101C40000E941A0BCAC20E94780B38C06A817B813D
:101C50008C819D8120E030E040E050E00E94B22F76
:101C6000882319F466E872E002C06DE872E085E14D
:101C700097E00E94B02A6A817B818C819D8120E05F
:101C800030E040E050E00E94B22F882319F00E941B
:101C9000E30602C00E94F80685E197E063E872E07F
:101CA0000E94B02A6A817B818C819D810E942330B1
:101CB0006093520492C281E00E940B1185E197E08B
:101CC00063E872E088C2E090FE03F090FF030091A9
:101CD000000410910104C801B7012A813B814C81A5
:101CE0005D810E9405310E941E3070933F04609315
:101CF0003E04C801B7012E813F81488559850E9465
:101D000005310E941E30709341046093400485E1C8
:101D100097E066E972E00E94B02A609140047091F9
:101D2000410480913E0490913F040E94A30581E00C
:101D300080933504C3CFE090FE03F090FF03009141
:101D4000000410910104C801B7012A813B814C8134
:101D50005D810E9405315B016C01C801B7012E81D4
:101D60003F81488559850E9405319B01AC01C60120
:101D7000B5010E942F0AA2CF80E09ECF6A817B81AD
:101D80008C819D810E941E307B018C016E817F8140
:101D9000888599850E941E309B01AC01C701B9015D
:101DA0000E9493068BCF0E94100588CF85E197E0B3
:101DB00063E872E00E94B02A0E94C7047FCF6A8164
:101DC0007B818C819D810E941E30DC01CB010E94B1
:101DD000B0076E817F81888599850E941E30DC0165
:101DE000CB010E947E076ACF6A817B818C819D81B5
:101DF0000E941E30DC01CB010E94AC046E817F8109
:101E0000888599850E941E30DC01CB010E94550710
:101E10006E817F81888599850E941E3070931A0497
:101E2000609319044BCF85E197E068EA72E00E9465
:101E3000B32960913A0470913B04882777FD80951F
:101E4000982F0E9451302091FE033091FF03409162
:101E50000004509101040E94B62FAB01BC0185E142
:101E600097E022E030E00E949D2A85E197E06CEA4D
:101E700072E00E94B32960913C0470913D04882770
:101E800077FD8095982F0E9451302091FE0330916C
:101E9000FF0340910004509101040E94B62FAB0152
:101EA000BC0185E197E022E030E00E949D2A85E1B7
:101EB00097E060EB72E00E94B32960913E0470915C
:101EC0003F04882777FD8095982F0E9451302091FC
:101ED000FE033091FF0340910004509101040E94E1
:101EE000B62F7B018C016091020470910304882756
:101EF00077FD8095982F0E9451309B01AC01C8015D
:101F0000B7010E944D2FAB01BC0185E197E022E0B3
:101F100030E00E949D2A85E197E061EC72E00E942A
:101F2000B3296091400470914104882777FD809522
:101F3000982F0E9451302091FE033091FF03409171
:101F40000004509101040E94B62F7B018C01609126
:101F5000020470910304882777FD8095982F0E94D2
:101F600051309B01AC01C801B7010E944D2FAB015C
:101F7000BC0185E197E022E030E00E949D2A80913B
:101F80005204882319F462ED72E002C06AED72E037
:101F900085E197E00E94B02A85E197E064EE72E067
:101FA0000E94B3294091360450913704609138045F
:101FB0007091390485E197E02AE030E00E946D29B4
:101FC00060913A0470913B04882777FD8095982FA3
:101FD0000E9451302091FE033091FF034091000494
:101FE000509101040E94B62F6A837B838C839D836A
:101FF00060913C0470913D04882777FD8095982F6F
:102000000E9451302091FE033091FF034091000463
:10201000509101040E94B62F6E837F838887998731
:102020004DCE85E197E065EF72E0D5C081E0809309
:102030004D0410925104109250046A817B818C816E
:102040009D810E94233070934F0460934E0485E17C
:1020500097E06EEF72E00E94B02A30CE6A817B81F9
:102060008C819D810E94233060932E0485E197E04E
:102070006AE173E00E94B32985E197E060912E0444
:102080004AE050E00E940F29A8C0EA80FB800C8142
:102090001D81C801B70120E030E040E050E00E941F
:1020A0000131181644F4E092FE03F092FF0300930E
:1020B00000041093010485E197E066E273E00E945A
:1020C000B3294091FE035091FF0360910004709189
:1020D000010485E197E022E030E00E949D2A85E13D
:1020E00097E063E373E00E94B329409108045091A4
:1020F000090460910A0470910B0485E197E022E0E5
:1021000030E00E949D2A85E197E067E373E00E943A
:10211000B32940910C0450910D0460910E0470910C
:102120000F0485E197E022E030E00E949D2A85E1DE
:1021300097E06BE373E00E94B3296091040470910F
:10214000050485E197E04AE050E00E94942985E18A
:1021500097E068E473E00E94B329609106047091EF
:10216000070485E197E04AE050E00E949429A6CD5B
:102170006A817B818C819D810E941E30DC01CB01B4
:102180000E944C0D0E94EB0C28C080E00E9450235E
:1021900085E197E066E573E00E94B02A0E94E912AB
:1021A0001CC06A817B818C819D8120E030E040E011
:1021B00050E00E94B22F882311F462EC01C06CE25F
:1021C00085E10E94BB257ACD0E94BD0D06C085E148
:1021D00097E063E673E00E94B02A80913604909104
:1021E0003704A0913804B09139040196A11DB11DA6
:1021F0008093360490933704A0933804B093390445
:10220000DF91CF911F910F91FF90EF90DF90CF90D2
:10221000BF90AF900895BF92CF92DF92EF92FF925E
:102220000F931F93DF93CF93CDB7DEB72A970FB6E7
:10223000F894DEBF0FBECDBFB82EF89485E994E0C8
:102240006BE472E041E00E943D20882341F0EE24DF
:10225000FF2487016E010894C11CD11C1DC085E1BB
:1022600097E061EF71E00E94B02A78944FC0C601F8
:102270000E943305BB2059F085E197E06FE673E0DB
:102280000E94B02A7894C6010E94D70DF894089451
:10229000E11CF11C011D111D85E994E0B6014AE025
:1022A00050E00E941B1B181619060CF3C801B70159
:1022B000807090700E944F30609345047093460484
:1022C0008093470490934804B801882799270E9477
:1022D0004F306093490470934A0480934B04909369
:1022E0004C0485E994E00E94111B78940E94110728
:1022F00085E197E065E773E00E94B32985E197E007
:10230000B801A7012AE030E00E94CD282A960FB636
:10231000F894DEBF0FBECDBFCF91DF911F910F911B
:10232000FF90EF90DF90CF90BF90089586E00E94DD
:10233000EE25892B11F40E94780B85E294E064EF7E
:1023400071E00E940913882359F060E080912D0408
:10235000882309F461E060932D0487E00E94BB2587
:1023600085E197E00E94D726181619060CF585E13D
:1023700097E00E94FE26809344040E947C056093AF
:1023800045047093460480934704909348040E9448
:102390007C056093490470934A0480934B049093A6
:1023A0004C0481E080932B0485E197E00E94602734
:1023B00080912B04882309F463C010922B04809130
:1023C0004D04882309F44BC080914404833731F5D0
:1023D00010924D0485E197E065E873E00E94B02A11
:1023E00080E00E940B116091500470915104809123
:1023F0004E0490914F04681B790B85E197E04AE009
:1024000050E00E94F22885E197E063E872E00E94C4
:10241000B02A10924F0410924E0425C00E947E0DE7
:1024200085E197E066E973E00E94B329609150046A
:10243000709151046F5F7F4F70935104609350040B
:102440006150704085E197E04AE050E00E94F22838
:1024500085E197E063E872E00E94B02A04C083E45B
:1024600094E00E94D70D81E080932C040E946724A1
:102470006093310470933204809333049093340456
:102480000E9467242091310430913204409133043A
:1024900050913404621B730B840B950B615D774084
:1024A0008040904038F080914204882319F481E004
:1024B0000E94600708950F931F930E94290405E16D
:1024C00017E0C80160E071EE0E94D626C80167EAF5
:1024D00073E00E94B329C801609114044AE050E0FF
:1024E0000E940F2987E061E00E942E2587E061E0CD
:1024F0000E94BB2585E161E00E942E2580E00E94BC
:10250000C60688E061E00E942E2589E061E00E9415
:102510002E258AE061E00E942E258BE061E00E947A
:102520002E2584E061E00E942E2580E061E00E947B
:102530002E2581E061E00E942E2582E061E00E946C
:102540002E2586E060E00E942E2586E061E00E9454
:10255000BB2581E161E00E942E2586E161E00E94B9
:102560002E2587E161E00E942E2586E161E00E9430
:10257000BB2587E161E00E94BB258DE060E00E9401
:102580002E258DE061E00E94BB2585E060E00E9481
:102590002E2585E061E00E94BB250E94610B0E9410
:1025A0000D070E94BD0D1F910F910895F999FECF5F
:1025B00072BD61BDF89A80B50895F999FECF1FBA32
:1025C00072BD61BD40BD0FB6F894FA9AF99A0FBE7C
:1025D00008958CB58F7B8CBD08950F931F93CF9377
:1025E000DF938C01EB0180E06115710509F081E05A
:1025F000F8018283882341F00E9467242197C60F47
:10260000D71FF801D183C083DF91CF911F910F9124
:102610000895EF92FF920F931F93CF93DF93EC01F6
:102620007B018A81882311F400E00FC008811981A1
:102630000E946724C801861B970B2AEE81369207F9
:1026400010F400E006C0082F0195CE01B7010E94EA
:10265000ED12802FDF91CF911F910F91FF90EF909E
:1026600008958FEF9FEFAFEFBFEF8093B106909388
:10267000B206A093B306B093B4061092B5060895BF
:102680000F931F938C01CB01BA01625070408040C0
:102690009040F801248130E040E050E00E94D131C8
:1026A0009B01AC01F80186859785A089B189280F27
:1026B000391F4A1F5B1FB901CA011F910F9108956D
:1026C0008091B50680FF3EC04091B1065091B206A0
:1026D0006091B3067091B4068091BA069091BB06E2
:1026E00021EB34E00E942421882371F18091B5060A
:1026F00081FF23C04091B6065091B7066091B8069D
:102700007091B9064115510561057105B1F08091CF
:10271000B1069091B206A091B306B091B406480FED
:10272000591F6A1F7B1F8091BA069091BB0621EB4F
:1027300034E00E942421882339F08091B5068E7FF1
:102740008093B50681E0089580E008950E946013AB
:102750000895DF92EF92FF920F931F937B018C01FC
:10276000D42E8091B1069091B206A091B306B0919B
:10277000B4068E159F05A007B107E1F00E94601313
:10278000882311F1D2FC0CC08091BA069091BB064F
:10279000B801A70121EB34E00E94E0218823A1F0D9
:1027A0001092B506E092B106F092B2060093B3061D
:1027B0001093B40683E0D8228091B5068D298093CA
:1027C000B50621EB34E002C020E030E0C9011F91E2
:1027D0000F91FF90EF90DF9008956F927F928F920C
:1027E0009F92AF92BF92CF92DF92EF92FF920F93A0
:1027F0001F93CF93DF935C01142F7093BB066093FC
:10280000BA06DC0157961C9282E090E0A0E0B0E0AE
:10281000F50180839183A283B3831092B5068FEF75
:102820009FEFAFEFBFEF8093B1069093B206A093F6
:10283000B306B093B4061092B6061092B706109283
:10284000B8061092B906442321F466247724430184
:1028500044C0453008F022C160E070E080E090E0C4
:1028600040E00E94A913EC01009709F417C1412F21
:1028700050E041505040FA0174E0EE0FFF1F7A958E
:10288000E1F7E80FF91FE254FE4F8081EE5BF14063
:1028900090E08F779070892B09F000C1E653FE4FCE
:1028A00080819181A281B38184369105A105B10512
:1028B00008F4F4C064E0440F551F6A95E1F7C40FB3
:1028C000D51FCA53DE4F688079808A809B8061144F
:1028D00071048104910409F4E1C0C401B30140E032
:1028E0000E94A913EC01009709F4D8C08B859C8540
:1028F0008050924009F0D2C06889662309F4CEC0A6
:10290000EE85FF85309709F4C9C08D85882309F4C9
:10291000C5C0D50152966C93529714968C93149718
:102920001D961C9201E010E008C04F5FD5011D9676
:102930004C934150483008F0B1C0D5011D964C91E0
:102940001D9714968C9190E09801042E02C0220FDE
:10295000331F0A94E2F78217930739F78E899F890C
:10296000009721F09C0140E050E004C02CA13DA163
:102970004EA15FA1D50115962D933D934D935C9388
:10298000189752968C91882341F02093B606309385
:10299000B7064093B8065093B9066F01EE24FF24A2
:1029A000C60CD71CE81CF91CF501C38AD48AE58A39
:1029B000F68A09891A89118F008F70E080E090E013
:1029C00025813681478150850E94D1316C0D7D1D56
:1029D0008E1D9F1DD5015A966D937D938D939C936B
:1029E0005D9735E0000F111F3A95E1F701501E4F3A
:1029F000012F11270695980140E050E0260F371F60
:102A0000481F591FF50126873787408B518B8B89CB
:102A10009C89009721F07C0100E010E004C0E8A050
:102A2000F9A00AA11BA1C401B301621B730B840BA3
:102A3000950B6E0D7F1D801F911FD5011D960C906B
:102A40001D9704C096958795779567950A94D2F758
:102A5000F5016187728783879487653FFFE07F0771
:102A6000F0E08F07F0E09F0720F48CE057968C93FE
:102A700015C0655F7F4F8040904018F480E1F501FC
:102A80000AC08CA59DA5AEA5BFA5F501828F938F29
:102A9000A48FB58F80E2878B81E001C080E0DF9159
:102AA000CF911F910F91FF90EF90DF90CF90BF904B
:102AB000AF909F908F907F906F90089542600E949A
:102AC000A91308958F929F92AF92BF92CF92DF92F7
:102AD000EF92FF920F931F93CF93DF93EC016A0164
:102AE0007B0148015901423051056105710508F427
:102AF0004BC089859A85AB85BC850196A11DB11D0A
:102B000084179507A607B70708F43EC08F89803160
:102B100029F4252F362F472F55270BC08032A1F5DA
:102B20009A01AB0117E056954795379527951A9569
:102B3000D1F78B899C89AD89BE89280F391F4A1F1F
:102B40005B1FCA01B90141E00E945E159C0100971C
:102B5000D9F08F89803149F4F601F070EE0FFF1F34
:102B6000E20FF31F918280820DC0F601EF77F070C3
:102B7000EE0FFF1FEE0FFF1FE20FF31F8082918207
:102B8000A282B38281E001C080E0DF91CF911F91EA
:102B90000F91FF90EF90DF90CF90BF90AF909F90FC
:102BA0008F900895CF92DF92EF92FF920F931F9331
:102BB000CF93DF93EC017A018B016901423051051B
:102BC0006105710508F453C089859A85AB85BC857C
:102BD0000196A11DB11D84179507A607B70708F434
:102BE00046C08F89803129F45527412F302F2F2D52
:102BF0000BC08032E1F59A01AB0167E0569547952D
:102C0000379527956A95D1F78B899C89AD89BE89BF
:102C1000280F391F4A1F5B1FCA01B90140E00E94FB
:102C20005E159C01009719F18F89803159F4F701E5
:102C3000F070EE0FFF1FE20FF31F80819181A0E083
:102C4000B0E00EC0F701EF77F070EE0FFF1FEE0F50
:102C5000FF1FE20FF31F80819181A281B381BF70BA
:102C6000F60180839183A283B38381E001C080E079
:102C7000DF91CF911F910F91FF90EF90DF90CF9058
:102C80000895AF92BF92CF92DF92EF92FF920F938F
:102C90001F93DF93CF9300D000D0CDB7DEB76C0188
:102CA0007A018B0182E090E0A0E0B0E0F601808341
:102CB0009183A283B3835E010894A11CB11CC60159
:102CC000B801A70195010E94D215882341F1C601E0
:102CD000B801A70100E010E020E030E00E9462159A
:102CE0008823E9F0E980FA800B811C81F60187894D
:102CF000803151F4F8EFEF16FFEFFF06F0E00F0719
:102D0000F0E01F07E0F209C088EFE8168FEFF80641
:102D10008FEF08078FE0180790F281E001C080E094
:102D20000F900F900F900F90CF91DF911F910F9107
:102D3000FF90EF90DF90CF90BF90AF9008952F92CB
:102D40003F924F925F926F927F928F929F92AF923B
:102D5000BF92CF92DF92EF92FF920F931F93DF9378
:102D6000CF93CDB7DEB72F970FB6F894DEBF0FBE67
:102D7000CDBF1C014A875B876C877D873F872E8785
:102D8000DC0119968D919D910D90BC91A02D01961D
:102D9000A11DB11D8E839F83A887B987F90100818A
:102DA000118122813381011511052105310549F079
:102DB000480159010894811C911CA11CB11C1D8261
:102DC00010C0D1018D909D90AD90BC901D828A85E0
:102DD0009B85AC85BD850197A105B10511F491E0F6
:102DE0009D83750164014424552432018E010F5FD7
:102DF0001F4FF10181859285A385B4854816590638
:102E00006A067B0608F090C08E819F81A885B985EF
:102E10008C159D05AE05BF0550F4F2E08F2E912C68
:102E2000A12CB12CE2E0CE2ED12CE12CF12CC10151
:102E3000B701A60198010E94D215882309F474C035
:102E400089819A81AB81BC81A70196012F5F3F4F99
:102E50004F4F5F4F0097A105B10519F049015A0185
:102E60000DC0281939094A095B098A859B85AC85FB
:102E7000BD85281739074A075B0759F00894411C9C
:102E8000511C611C711C0894C11CD11CE11CF11C5B
:102E9000B0CFC101A601B7010FEF1FEF2FEF3FE049
:102EA0000E946215882399F43FC0260137010894D7
:102EB0004108510861087108C101B301A2019701DD
:102EC00086010E946215882379F1730162018C14D6
:102ED0009D04AE04BF0448F3AE85BF854D915D915E
:102EE0006D917C91411551056105710539F0C10164
:102EF000950184010E9462158823B1F0EE85FF855B
:102F000080829182A282B382FD81FF2359F00894CE
:102F1000811C911CA11CB11CD1018D929D92AD927E
:102F2000BC92139781E001C080E02F960FB6F89411
:102F3000DEBF0FBECDBFCF91DF911F910F91FF90EC
:102F4000EF90DF90CF90BF90AF909F908F907F9049
:102F50006F905F904F903F902F9008950F931F9325
:102F6000CF93DF93DC01EB018A0180E090E020E267
:102F7000FE01E80FF91F208301968B309105C1F700
:102F800057E040E024C0622F2E3219F080EE90E02E
:102F900007C05A3051F15AE048E018C0321729F101
:102FA000FC01019634913323C9F75417F0F0213214
:102FB000E0F02F37D0F4822F81568A3110F4622F3F
:102FC0006052FE01E40FF11D60834F5F11962C915A
:102FD000222311F02F32B9F6F801B183A08390E0DB
:102FE0008881803219F091E001C090E0892FDF9153
:102FF000CF911F910F910895CF92DF92EF92FF92A0
:103000000F931F93DF93CF9300D000D0CDB7DEB7DF
:103010007C01FC018789908DA18DB28D89839A8373
:10302000AB83BC8300E010E06E010894C11CD11C8E
:1030300049815A816B817C81D70115968D919C9134
:10304000169796010E94D215882379F1D70115961B
:10305000ED91FC9116978481080F111DB0E10030AD
:103060001B0718F529813A814B815C818789803162
:1030700031F4285F3F4F40405040D0F205C0285FF8
:103080003F4F4F4F5F40A0F2C801A0E0B0E029E001
:10309000880F991FAA1FBB1F2A95D1F7F701838BB1
:1030A000948BA58BB68B81E001C080E00F900F90D0
:1030B0000F900F90CF91DF911F910F91FF90EF90A4
:1030C000DF90CF900895CF93DF93EC01FB018B81CC
:1030D0008823D1F57E836D8387898031C9F582E0AD
:1030E0008B831F8A188E198E1A8E808D918DA0E089
:1030F000B0E035E0880F991FAA1FBB1F3A95D1F7A2
:103100008B8B9C8BAD8BBE8B0FC083E08B83828DB2
:10311000938DA48DB58D8F8B988FA98FBA8FCE018B
:103120000E94FC17882381F081E089831F82188622
:1031300019861A861B861C861D861E861F86188A7F
:10314000198A1A8A1C8201C080E0DF91CF9108950C
:103150008032D1F7DACF6F927F928F929F92AF92A7
:10316000BF92CF92DF92EF92FF920F931F93CF9374
:10317000DF93EC017A018B012B81222309F480C0BB
:103180008B899C89AD89BE8984179507A607B707E7
:1031900008F476C085C0E114F1040105110551F46D
:1031A0001F82188619861A861B861C861D861E8617
:1031B00081E067C02B853C854D855E85ED81FE8174
:1031C000858590E0099621503040404050403901BB
:1031D0004A01082E04C096948794779467940A94C1
:1031E000D2F72F5F3F4F4F4F5F4F0894E108F10830
:1031F000010911095701680104C0D694C794B79416
:10320000A7948A95D2F70894E11CF11C011D111DA9
:10321000A614B704C804D90428F0211531054105C6
:10322000510549F48F89988DA98DBA8D8F83988720
:10323000A987BA8716C0A618B708C808D90811C048
:103240004F81588569857A858D819E8194010E9480
:10325000D2150894A108B108C108D108882331F417
:103260000FC047E0842E912C8C0E9D1EA114B1043A
:10327000C104D10429F7EB86FC860D871E8798CF01
:1032800080E0DF91CF911F910F91FF90EF90DF9041
:10329000CF90BF90AF909F908F907F906F90089548
:1032A000223009F078CFE7CFCF93DF93EC01462FA0
:1032B0006F85788989899A890E94A913AC01009742
:1032C00019F420E030E00AC08C81282F30E065E05E
:1032D000220F331F6A95E1F7240F351FC901DF91D3
:1032E000CF9108950F931F93CF93DF938C01FC012F
:1032F00083818823E1F1818187FF36C0C80161E0C5
:103300000E945419EC01009791F18881853E79F172
:10331000F8018381823040F483899489A589B68934
:103320008C8F9D8FAE8FBF8FF8018789908DA18D77
:10333000B28D9B8F8A8FCD01AA27BB279D8B8C8B4B
:10334000E091BE06F091BF06309751F0BE016A5E73
:103350007F4FCE0148960995888D998D9B8B8A8BDE
:10336000F80181818F7781830E94601304C081E01E
:10337000F801808380E0DF91CF911F910F91089534
:103380006F927F928F929F92AF92BF92CF92DF9275
:10339000EF92FF920F931F93DF93CF9300D000D053
:1033A000CDB7DEB77C015A016B01DC0113968C911D
:1033B0001397813009F091C011968C9181FF8DC0D7
:1033C000A0C00097A105B10511F481E087C0F70105
:1033D0006384748485849684C701B601A5010E9424
:1033E000AB18882309F479C0D70115968D919C916B
:1033F0001697A114B104C104D10489F457964D91D4
:103400005D916D917C915A970E944116882309F431
:1034100064C0F701178A108E118E128E44C0D70136
:1034200017964D915D916D917C911A979E012F5F3A
:103430003F4F0E94D215882309F44FC0D70115963B
:10344000ED91FC91169749815A816B817C81878926
:10345000803149F4483FBFEF5B07B0E06B07B0E055
:103460007B0748F020C0483F8FEF58078FEF680771
:103470008FE07807C0F4CF010E944116882369F1DC
:10348000D70117964D915D916D917C911A97159684
:103490008D919C9116970FEF1FEF2FEF3FE00E9449
:1034A00062158823D1F0F701A38AB48AC58AD68A27
:1034B000818180688183C7010E947219882369F025
:1034C000B601A5016A147B048C049D0410F4B401B8
:1034D000A301C7010E94AB1801C080E00F900F90BC
:1034E0000F900F90CF91DF911F910F91FF90EF9070
:1034F000DF90CF90BF90AF909F908F907F906F9014
:103500000895F70183899489A589B6898417950759
:10351000A607B70708F055CFE0CF1F93CF93DF93EF
:10352000EC01142F262F30E0F90185E0EE0FFF1F8C
:103530008A95E1F7EF54FB4F8385817121F0842F49
:10354000827109F064C08091B1069091B206A09199
:10355000B306B091B4068F87988BA98BBA8B6C8316
:10356000F901B5E0EE0FFF1FBA95E1F7EF54FB4FFD
:103570002489358940E050E0A901332722272F8B89
:10358000388F498F5A8F828D938DA0E0B0E0282B21
:10359000392B4A2B5B2B2F8B388F498F5A8F838582
:1035A00090E088719070009751F4848D958DA68D70
:1035B000B78D8B8B9C8BAD8BBE8B81E008C0409709
:1035C00031F5CE010E94FC17882309F184E08B833A
:1035D000812F8F7089831F82188619861A861B8611
:1035E0001C861D861E8614FF18C0CE0140E050E0E8
:1035F00060E070E00E94C019882379F408C04B890C
:103600005C896D897E89CE010E94AB1802C01B8245
:1036100080E0DF91CF911F91089515FDF0CF81E0FB
:10362000F8CF0F931F938C010E947219F801138237
:103630001F910F9108952F923F924F925F926F9238
:103640007F928F929F92AF92BF92CF92DF92EF9232
:10365000FF920F931F93DF93CF9300D0CDB7DEB7C8
:103660004C011A01DC0113968C911397882309F4FD
:10367000B4C011968C9180FFB0C0C7C015012E1840
:103680003F082B01F4013796FA83E98331019FC08B
:10369000D4011B962D913D914D915C911E979FEF0A
:1036A000A92E91E0B92EA222B3221596ED91FC919C
:1036B000169779018A0189E016950795F794E794A2
:1036C0008A95D1F7948113968C91823049F4428D7A
:1036D000538D648D758D4E0D5F1D601F711F35C03C
:1036E000D92EDA94DE20A114B10401F5DD20F1F425
:1036F000211531054105510551F4F4018789908D5B
:10370000A18DB28D87839087A187B2870FC0D40126
:1037100017964D915D916D917C911A97CF012981FA
:103720003A810E94D215882309F457C0F4014781D9
:10373000508561857285858196810E944013AB0119
:10374000BC014D0D511D611D711DA114B10499F4F1
:10375000F0E06F16F2E07F0670F08091B106909174
:10376000B206A091B306B091B406481759076A078C
:103770007B0709F067C0CB01BA0140E00E94A913A2
:10378000009759F140E052E04A195B098301461560
:10379000570508F48A019C012A0D3B1DC201B9019D
:1037A000A8010E94F001400E511E980140E050E037
:1037B000F40183859485A585B685820F931FA41F88
:1037C000B51F83879487A587B687601A710A61142D
:1037D000710409F05DCFA10102C04FEF5FEFCA0194
:1037E0000F900F90CF91DF911F910F91FF90EF906D
:1037F000DF90CF90BF90AF909F908F907F906F9011
:103800005F904F903F902F900895D4015396AD90C4
:10381000BD90CD90DC9056971B96ED90FD900D914C
:103820001C911E979A0140E050E0D601C5018E1907
:103830009F09A00BB10B281739074A075B0708F04F
:103840001DCF1FCF8091BA069091BB0692010E94B6
:10385000E021882311F200E012E0A5CFDF93CF939F
:103860000F92CDB7DEB7BE016F5F7F4F41E050E0F2
:103870000E941B1B019719F02FEF3FEF03C08981B6
:10388000282F30E0C9010F90CF91DF910895EF927A
:10389000FF920F931F93CF93DF93EC018B818230C4
:1038A00038F1EB84FC840D851E85CE010E942E1C10
:1038B00097FD1EC08B859C85AD85BE854F96A11D4D
:1038C000B11D8B879C87AD87BE8755E01695079500
:1038D000F794E7945A95D1F72E2D30E02F70307081
:1038E00045E0220F331F4A95E1F72F543B4F02C0AA
:1038F00020E030E0C901DF91CF911F910F91FF903F
:10390000EF900895CF93DF93EC019C01295F3F4F27
:103910008D819E8141E050E060E070E00E949F1642
:103920008823A1F08F89988DA98DBA8D0097A10564
:10393000B10559F48F819885A985BA858F8B988FA9
:10394000A98FBA8F89818068898381E0DF91CF91C7
:1039500008952F923F924F925F926F927F929F9223
:10396000AF92BF92CF92DF92EF92FF920F931F938D
:10397000DF93CF9300D000D0CDB7DEB76C01162F08
:10398000072F1A01DC0113968C911397813009F0EF
:1039900046C111968C9181FF42C15DC1F6014389F8
:1039A00054896589768983859485A585B68584172C
:1039B0009507A607B70731F0C6010E94AB18882308
:1039C00009F42DC1812F902F9C0129013101EDC0F7
:1039D000D6011596ED91FC911697DA01C90169E0BF
:1039E000B695A795979587956A95D1F794809A94FF
:1039F00098225FEFA52E51E0B52EA222B322992086
:103A000009F052C0A114B10409F04EC0D6011796B6
:103A10004D915D916D917C911A974115510561050C
:103A2000710571F1CF019E012F5F3F4F0E94D215AA
:103A3000882309F4F4C029813A814B815C81D60145
:103A40001596ED91FC9116978789803149F4283FAE
:103A5000BFEF3B07B0E04B07B0E05B0748F019C091
:103A6000283FEFEF3E07EFEF4E07EFE05E0788F4E9
:103A7000D60117962D933D934D935C931A9714C0DE
:103A8000F6018789908DA18DB28D0097A105B105B2
:103A900031F4C6010E94821C882331F4C0C0F601B3
:103AA00087839087A187B287D60117964D915D9144
:103AB0006D917C911A9715968D919C9116970E9405
:103AC00040137B018C01E90CF11C011D111DA11497
:103AD000B104A9F4B0E06B16B2E07B06A8F5F601DC
:103AE000238534854585568583899489A589B6893A
:103AF000281739074A075B0710F045E001C041E08D
:103B0000C801B7010E94A913009709F488C040E0DA
:103B100052E04A195B0983014615570508F48A01EA
:103B20009C012A0D3B1DC901B201A8010E94F001B0
:103B3000A00EB11EF0E0AF16F2E0BF0611F50E9434
:103B4000A6138823F1F46BC08091B1069091B20660
:103B5000A091B306B091B4068E159F05A007B107DA
:103B600011F40E9431138091BA069091BB06B801FE
:103B7000A70192010E942421882309F450C000E08B
:103B800012E0980140E050E0F60183859485A58518
:103B9000B685820F931FA41FB51F83879487A587BF
:103BA000B687400E511E601A710AD6011B962D91E0
:103BB0003D914D915C911E976114710409F008CFFD
:103BC00053968D919D910D90BC91A02D82179307D6
:103BD000A407B50748F4F601238B348B458B568B2D
:103BE00081818068818310C08091BE069091BF065C
:103BF000892B51F02114310439F0D60111968C91A2
:103C00001197806811968C93F601818183FF05C01E
:103C1000C6010E947219882311F0A10105C081E03C
:103C2000D6018C934FEF5FEFCA010F900F900F906A
:103C30000F90CF91DF911F910F91FF90EF90DF9048
:103C4000CF90BF90AF909F907F906F905F904F907C
:103C50003F902F90089582FDA1CEB4CE9F92AF9257
:103C6000BF92CF92DF92EF92FF920F931F93CF9369
:103C7000DF938C01FC0183899489A589B689805ED4
:103C80009F4FAF41B04008F05CC0C8010E94821C49
:103C9000882309F456C0D80117964D915D916D9116
:103CA0007C911A9715968D919C9116970E944013BE
:103CB0005B016C0145E00E94A913EC01009709F437
:103CC00042C080E092E0FE019C0111922150304000
:103CD000E1F79C2EED2EFF24F39411C0B601A5014F
:103CE0004F0D511D611D711D8091BA069091BB064B
:103CF000292D3E2D0E942421882319F1F394D80107
:103D00001596ED91FC9116972481F21638F330E068
:103D100040E050E079E0220F331F441F551F7A9591
:103D2000D1F753968D919D910D90BC91A02D820F4E
:103D3000931FA41FB51FF801838B948BA58BB68BA3
:103D400002C0C0E0D0E0CE01DF91CF911F910F9172
:103D5000FF90EF90DF90CF90BF90AF909F9008952D
:103D60008F929F92AF92BF92CF92DF92EF92FF928B
:103D70000F931F93CF93DF936C01EB01942E852E4D
:103D8000A22E8D819E81F60196838583CB0140E032
:103D900050E060E070E00E94AB18BB2434C0CE015C
:103DA0000E94471CFC01009709F48EC0A5E01695FF
:103DB0000795F794E794AA95D1F71E2D1F702081DF
:103DC000222311F0253EA9F4BB2081F48091B10695
:103DD0009091B206A091B306B091B406F601878720
:103DE000908BA18BB28B1483BB24B394222359F400
:103DF00018C0892D982DBF014BE050E00E94E301CF
:103E0000009709F46FC0EB84FC840D851E858B89B7
:103E10009C89AD89BE89E816F9060A071B0708F4D4
:103E2000BECFA6FE51C0A1FE4FC0BB2051F0F6018F
:103E30001481C60161E00E945419EC01009761F4FD
:103E400043C08B81823009F43FC0CE010E942E1EF8
:103E50000097D1F1EC0110E080E2FE0111928A9509
:103E6000E9F7DE01292D382DC901FC018BE0019015
:103E70000D928150E1F7E091BE06F091BF063097B8
:103E800039F0BE01625F7F4FCE014096099508C0B0
:103E900081E298E2998B888B80E098E09F878E87FB
:103EA000888999899B8B8A8B998F888F8E859F852E
:103EB0009F8B8E8B0E946013882331F0C601612F87
:103EC0004A2D0E948D1A01C080E0DF91CF911F9191
:103ED0000F91FF90EF90DF90CF90BF90AF909F90A9
:103EE0008F900895A7FEEACFEFCF2F923F924F9287
:103EF0005F926F927F928F929F92AF92BF92CF927A
:103F0000DF92EF92FF920F931F93DF93CF93CDB782
:103F1000DEB7C654D0400FB6F894DEBF0FBECDBF9B
:103F20003C016B01DE01AE5BBF4F11965C934E937B
:103F300025962FAF25976115710509F483C01F865B
:103F40001AA6FC018381882309F07CC01C861FA26D
:103F5000FA0180818F32F1F086019CE0E92EF12C8C
:103F6000EC0EFD1E82E4A82EB12CAC0EBD1E4E013F
:103F70000894811C911C2796FFAEEEAE2797B7E2FE
:103F80002B2E312C2C0E3D1E270124C01196B183FF
:103F9000A08301C0FD01A081B1818C918F32B1F36A
:103FA000D60113968C91139782508230A8F28E011D
:103FB000095D1F4F15966D917C911697C8010E945F
:103FC0006318882351F63EC0342D252D8701832F99
:103FD000922F7C01F50180819181B401A5010E949D
:103FE000AE17882329F42EC03196D501ED93FC93AA
:103FF000D501ED91FC9180818F32B1F38823C9F016
:10400000C701B801A40121E00E94B01E8823D1F0AD
:104010000C151D0519F0C8010E94111B2796EEAD65
:10402000FFAD2797EE16FF0679F6C101322D292F35
:10403000CDCFC301B801A40125962FAD25970E94CD
:10404000B01E01C080E0CA5BDF4F0FB6F894DEBF40
:104050000FBECDBFCF91DF911F910F91FF90EF90D9
:10406000DF90CF90BF90AF909F908F907F906F9098
:104070005F904F903F902F900895FB01242F609107
:10408000BC067091BD06AF010E94751F0895FF9296
:104090000F931F93CF93DF938B010E946724EB0153
:1040A000FF24FA9409C00E9467246C1B7D0B6017E3
:1040B000710710F080E008C0FEBC0DB407FEFDCF14
:1040C0008EB58F3F81F781E0DF91CF911F910F91E6
:1040D000FF900895FC0122812D3010F046E002C0CF
:1040E000422F4695242F30E0C9019595879580652C
:1040F0008CBD40FF02C080E004C080E0463009F083
:1041000081E08DBD808160E00E94BB250895FF9213
:104110000F931F93DF93CF9300D000D0CDB7DEB7BE
:104120008C01F62E29833A834B835C830E946A209C
:10413000C8016CE271E00E9447208F2D80648EBD23
:104140000DB407FEFDCFFE0131969E012350304095
:1041500083818EBD0DB407FEFDCF3197E217F307C3
:10416000B9F7FF2011F087E801C085E98EBD0DB4D5
:1041700007FEFDCF8CE0F81631F48FEF8EBD0DB445
:1041800007FEFDCF8EB590E02FEF2EBD0DB407FEDC
:10419000FDCF8EB587FF02C09150B9F7F801838338
:1041A0000F900F900F900F90CF91DF911F910F9173
:1041B000FF900895FC01808161E00E94BB258FEF94
:1041C0008EBD0DB407FEFDCF0895CF93DF93EC01B4
:1041D000DA016EBD0DB407FEFDCF8C918EBD119638
:1041E000EC91119782E090E00DB407FEFDCFEEBD9B
:1041F00022E08030920731F0FD01E80FF91FE081E5
:104200000196F2CF0DB407FEFDCF8FEF8EBD0DB43A
:1042100007FEFDCF8FEF8EBD0DB407FEFDCF8FEFF4
:104220008EBD0DB407FEFDCF8EB58B838F718530AB
:1042300011F481E006C083E18983CE010E94DA2077
:1042400080E0DF91CF910895CF92DF92EF92FF92BD
:104250000F931F93CF93DF93EC017A018B016901D8
:104260008C81833039F059E0EE0CFF1C001F111FC8
:104270005A95D1F7CE0168E1A80197010E948720E5
:10428000882311F086E023C0CE016EEFA6010E94C4
:10429000E5208823E9F0CE0168E572E00E9447201E
:1042A000882311F487E113C0CE016DE020E030E0F7
:1042B00040E050E00E948720882341F48FEF8EBDBC
:1042C0000DB407FEFDCF8EB5882379F086E1898392
:1042D000CE010E94DA2080E0DF91CF911F910F91F3
:1042E000FF90EF90DF90CF900895CE010E94DA20EA
:1042F00081E0F2CFBF92CF92DF92EF92FF920F93C5
:104300001F93CF93DF93EC016B017A010E94672426
:104310008B01BB24BA9409C00E946724601B710BF7
:104320006D52714010F081E10BC0BEBC0DB407FEB0
:10433000FDCF8EB58B838F3F79F38E3F39F08FE0C1
:104340008983CE010E94DA2080E030C0D701119726
:10435000EF28D9F08FEF8EBD20E030E09FEF0BC04B
:104360000DB407FEFDCF8EB59EBDF601E20FF31F23
:1043700080832F5F3F4F2A173B0790F30DB407FE52
:10438000FDCF8EB5AC0DBD1D8C931B828FEF8EBD06
:104390000DB407FEFDCF8EB58FEF8EBD0DB407FEB9
:1043A000FDCF8EB5CE010E94DA2081E0DF91CF9162
:1043B0001F910F91FF90EF90DF90CF90BF900895E5
:1043C000CF92DF92EF92FF920F931F93CF93DF93E1
:1043D000EC017A018B0169018C81833039F0B9E0FD
:1043E000EE0CFF1C001F111FBA95D1F7CE0161E141
:1043F000A80197010E948720882339F084E08983EF
:10440000CE010E94DA2080E006C0CE01B60140E075
:1044100052E00E947A21DF91CF911F910F91FF907E
:10442000EF90DF90CF900895BF92CF92DF92EF92FE
:10443000FF920F931F93CF93DF93EC01B62E1C8254
:10444000198248830E9467246B01888161E00E9481
:104450002E25888161E00E94BB2581E161E00E94F8
:10446000BB2581E161E00E942E258EE060E00E9484
:104470002E2580E161E00E942E258FE061E00E9400
:104480002E258BE08A8382E58CBD1DBC80E09FEFEA
:104490009EBD0DB407FEFDCF8F5F8A30C9F709C0FE
:1044A0000E9467246C197D09615D774010F081E0FE
:1044B00063C0CE0160E020E030E040E050E00E94C8
:1044C0008720813069F71FEFCE0168E02AEA31E0EA
:1044D00040E050E00E948720853011F481E00DC05B
:1044E00080E01EBD0DB407FEFDCF9EB58F5F84300A
:1044F000C1F79B839A3A31F482E08C838C818230BD
:1045000051F40DC00E9467246C197D09615D7740EC
:10451000D8F282E031C0EE24FF2487010FC0E12CE5
:10452000F12C012D80E4182F09C00E9467246C191A
:104530007D09615D774010F08AE01EC0CE0167E31F
:1045400020E030E040E050E00E948720CE0169E2A8
:10455000A80197010E948720882339F78C81823037
:1045600029F5CE016AE320E030E040E050E00E940F
:104570008720882331F088E08983CE010E94DA20E9
:1045800021C08FEF8EBD0DB407FEFDCF8EB5807CB0
:10459000803C11F483E08C8380E09FEF9EBD0DB4DE
:1045A00007FEFDCF2EB58F5F8330C1F7CE010E948D
:1045B000DA208EE08B1518F488E1898303C0BA8273
:1045C00081E001C080E0DF91CF911F910F91FF90BA
:1045D000EF90DF90CF90BF900895CF93DF93EC01E1
:1045E000662331F0A396D093BD06C093BC06A39773
:1045F0008EA1882321F0CE0183960E94111BCE014B
:1046000083962596BE010E946318DF91CF9108958D
:104610000F931F93CF93DF93EC01262F642F422F2C
:104620000E9414228823C9F08E010B5F1F4FC8011E
:10463000BE0141E00E94ED13882339F4C801BE0198
:1046400040E00E94ED13882341F0CE0161E00E941A
:10465000ED22882319F081E001C080E0DF91CF9145
:104660001F910F910895DF93CF930F92CDB7DEB7CF
:1046700069830496BE016F5F7F4F41E050E00E9466
:10468000A91C20E030E0019711F421E030E0C901DD
:104690000F90CF91DF91089504960E94A91C089570
:1046A0008430C0F4813049F0813028F0823039F014
:1046B000833041F406C0E89805C0E99803C0EA9841
:1046C00001C0EB98E82FF0E0EE0FFF1FE054F94F28
:1046D0001182108208951F920F920FB60F9211242B
:1046E0002F933F934F935F936F937F938F939F93FA
:1046F000AF93BF93EF93FF938091C0069091C10653
:10470000892B29F0E091C006F091C1060995FF912F
:10471000EF91BF91AF919F918F917F916F915F9139
:104720004F913F912F910F900FBE0F901F901895B2
:104730001F920F920FB60F9211242F933F934F9316
:104740005F936F937F938F939F93AF93BF93EF93F9
:10475000FF938091C2069091C306892B29F0E091C6
:10476000C206F091C3060995FF91EF91BF91AF91F9
:104770009F918F917F916F915F914F913F912F9179
:104780000F900FBE0F901F9018951F920F920FB6AB
:104790000F9211242F933F934F935F936F937F93C7
:1047A0008F939F93AF93BF93EF93FF938091C40632
:1047B0009091C506892B29F0E091C406F091C506B9
:1047C0000995FF91EF91BF91AF919F918F917F914B
:1047D0006F915F914F913F912F910F900FBE0F906E
:1047E0001F9018951F920F920FB60F9211242F93BE
:1047F0003F934F935F936F937F938F939F93AF9369
:10480000BF93EF93FF938091C6069091C706892BC3
:1048100029F0E091C606F091C7060995FF91EF9146
:10482000BF91AF919F918F917F916F915F914F91C8
:104830003F912F910F900FBE0F901F9018951F92D0
:104840000F920FB60F9211242F933F938F939F9344
:10485000AF93BF938091CC069091CD06A091CE06E8
:10486000B091CF063091D0060196A11DB11D232F26
:104870002D5F2D3720F02D570196A11DB11D2093DE
:10488000D0068093CC069093CD06A093CE06B0932D
:10489000CF068091C8069091C906A091CA06B09132
:1048A000CB060196A11DB11D8093C8069093C90641
:1048B000A093CA06B093CB06BF91AF919F918F9101
:1048C0003F912F910F900FBE0F901F9018958FB7AB
:1048D000F8942091CC063091CD064091CE065091AF
:1048E000CF068FBFB901CA0108959B01AC017FB704
:1048F000F8948091C8069091C906A091CA06B0911B
:10490000CB0666B5A89B05C06F3F19F00196A11DA7
:10491000B11D7FBFBA2FA92F982F8827860F911D11
:10492000A11DB11D62E0880F991FAA1FBB1F6A95C8
:10493000D1F7BC012DC0FFB7F8948091C8069091C3
:10494000C906A091CA06B091CB06E6B5A89B05C0E2
:10495000EF3F19F00196A11DB11DFFBFBA2FA92F7E
:10496000982F88278E0F911DA11DB11DE2E0880FA1
:10497000991FAA1FBB1FEA95D1F7861B970B885E6C
:104980009340C8F2215030404040504068517C4F25
:10499000211531054105510571F60895019739F04A
:1049A000880F991F880F991F02970197F1F70895B3
:1049B000789484B5826084BD84B5816084BD85B5FA
:1049C000826085BD85B5816085BDEEE6F0E08081C1
:1049D00081608083E1E8F0E01082808182608083E2
:1049E000808181608083E0E8F0E080818160808365
:1049F000E1E9F0E080818260808380818160808352
:104A0000E0E9F0E0808181608083E1ECF0E080818A
:104A100084608083808182608083808181608083E4
:104A2000E3ECF0E0808181608083E0ECF0E0808165
:104A300082608083E2ECF0E0808181608083EAE73D
:104A4000F0E08081846080838081826080838081C7
:104A5000816080838081806880830895CF93DF9315
:104A6000482F50E0CA01885C9E4FFC013491465E9D
:104A70005E4FFA018491882369F190E0880F991FB5
:104A8000FC01E051FF4FA591B491FC01E250FF4FB2
:104A9000C591D491662351F42FB7F8948C91932F3C
:104AA000909589238C93888189230BC0623061F4AF
:104AB0002FB7F8948C91932F909589238C938881AC
:104AC000832B88832FBF06C09FB7F8948C91832BCC
:104AD0008C939FBFDF91CF910895883071F1893019
:104AE00068F4823031F1833020F4813009F042C023
:104AF0001DC0833089F08430E9F512C08B3059F144
:104B00008C3028F48930E9F08A30A1F51EC08C3051
:104B100031F18E3079F529C0809180008F7703C004
:104B2000809180008F7D80938000089584B58F7779
:104B300002C084B58F7D84BD0895809190008F77E9
:104B400007C0809190008F7D03C080919000877F87
:104B50008093900008958091C0008F7703C080916A
:104B6000C0008F7D8093C00008958091C200877F30
:104B70008093C2000895FF920F931F93F62E482F43
:104B800050E0CA018A5A9E4FFC012491CA01885CF8
:104B90009E4FFC011491465E5E4FFA010491002382
:104BA000C9F0222319F0822F0E946D25E02FF0E03A
:104BB000EE0FFF1FE250FF4FA591B4919FB7F894FD
:104BC000FF2021F48C911095812302C08C91812BC0
:104BD0008C939FBF1F910F91FF9008950F931F9388
:104BE000482F50E0CA018A5A9E4FFC012491CA0105
:104BF000885C9E4FFC010491465E5E4FFA01149161
:104C0000112319F420E030E015C0222319F0822F7F
:104C10000E946D25812F90E0880F991F845F9E4F21
:104C2000FC01A591B4918C9120E030E0802311F03B
:104C300021E030E0C9011F910F9108951F93CF9398
:104C4000DF93182FEB0161E00E942E25209709F4D5
:104C50008FC0CF3FD10509F48EC0E12FF0E0EA5AB2
:104C6000FE4F8491883009F440C0893070F482305E
:104C700019F1833020F4813009F077C018C08330F7
:104C800001F1843009F071C026C08B3009F44BC0AB
:104C90008C3030F4893099F18A3009F066C039C01F
:104CA0008C3009F44DC08E3009F05FC051C084B51E
:104CB000806884BDC7BD63C084B5806284BDC8BD43
:104CC0005EC080918000806880938000D0938900CE
:104CD000C093880054C080918000806280938000DF
:104CE000D0938B00C0938A004AC080919000806866
:104CF00080939000D0939900C093980040C0809119
:104D00009000806280939000D0939B00C0939A00A3
:104D100036C080919000886080939000D0939D0071
:104D2000C0939C002CC08091C00080688093C0001C
:104D30008091C0008F7B8093C000C093CF001FC0C4
:104D40008091C00080628093C000C093D00017C0E3
:104D50008091C20088608093C2008091C2008B7FE6
:104D60008093C200C093D2000AC0C038D1051CF4A1
:104D7000812F60E002C0812F61E00E94BB25DF919E
:104D8000CF911F910895CF93DF930E94D8248BE297
:104D900097E00E94772B0E945B12C0E0D0E00E9457
:104DA00096112097E1F30E940000F9CF0895209119
:104DB0001107309112078091130790911407281B57
:104DC000390B2F733070C90108952091110730916C
:104DD000120780911307909114072817390719F4C7
:104DE0002FEF3FEF09C0E0911307F0911407EF5246
:104DF000F94F8081282F30E0C901089520911107D3
:104E000030911207809113079091140728173907E2
:104E100019F42FEF3FEF13C0E0911307F09114073F
:104E2000EF52F94F2081809113079091140701965A
:104E30008F739070909314078093130730E0C9012B
:104E40000895109218071092170788EE93E0A0E0DB
:104E5000B0E08093190790931A07A0931B07B093B3
:104E60001C0780EE93E09093160780931507089532
:104E70000F931F93DF93CF930F92CDB7DEB78C01C3
:104E800069838091D103882369F083E0BE016F5F5D
:104E90007F4F41E050E00E94952B1816190614F43C
:104EA0009C0107C081E090E0F8019383828320E0B9
:104EB00030E0C9010F90CF91DF911F910F910895BC
:104EC00083E00E946C2B0895CF93DF9312C082E0A1
:104ED0000E94F72A2FEF8F3F9207C9F0E091110748
:104EE000F0911207EF52F94F8083D0931207C093CD
:104EF0001107C0911107D09112072196CF73D0707E
:104F00008091130790911407C817D90701F7DF9113
:104F1000CF910895FC0180818E5F808380E860E8F6
:104F200071E042E450E00E94102B0895FC01818161
:104F30009081913A59F4813209F04CC080E06AECDA
:104F400073E047E050E00E94102B42C0913209F01C
:104F500041C0803239F48AEC93E067E070E00E944F
:104F6000542B36C0823209F035C082818093D10340
:104F70008091CA039091CB03A091CC03B091CD0353
:104F8000805B9440A040B04019F58091D10380FD32
:104F900012C087E797E790930108809300082BE001
:104FA00088E190E00FB6F894A895809360000FBE5A
:104FB000209360000DC088E10FB6F89480936000E4
:104FC000109260000FBEA895109201081092000880
:104FD00081E0089580E00895CF92DF92EF92FF92F2
:104FE0000F931F93CF93DF937C016B018A01C0E085
:104FF000D0E00FC0D6016D916D01D701ED91FC910C
:105000000190F081E02DC7010995C80FD91F01500B
:1050100010400115110571F7CE01DF91CF911F915D
:105020000F91FF90EF90DF90CF900895DC01ED910C
:10503000FC910190F081E02D09950895EF92FF9287
:105040000F931F938C01DC01ED91FC910190F08195
:10505000E02D6DE009957C01D801ED91FC91019066
:10506000F081E02DC8016AE009959C012E0D3F1DDD
:10507000C9011F910F91FF90EF900895CF93DF9397
:10508000EC016115710519F420E030E00FC0DB017F
:105090000D900020E9F71197A61BB70BE881F98165
:1050A0000280F381E02DAD0109959C01C901DF91DA
:1050B000CF9108954F925F927F928F929F92AF927D
:1050C000BF92CF92DF92EF92FF920F931F93DF93E5
:1050D000CF93CDB7DEB7A1970FB6F894DEBF0FBE62
:1050E000CDBF2C01742ECB01223008F42AE019A286
:1050F00031E2C32ED12CCC0EDD1E822E9924AA249F
:10510000BB24672D752FA50194010E94F031790110
:105110008A01C801B701A50194010E94D131472D30
:10512000461B0894C108D1084A3014F4405D01C000
:10513000495CF6014083E114F1040105110521F0F9
:105140007E2C5F2DC801DDCFC201B6010E943E2832
:10515000A1960FB6F894DEBF0FBECDBFCF91DF9101
:105160001F910F91FF90EF90DF90CF90BF90AF9085
:105170009F908F907F905F904F900895DC01211554
:10518000310541F4ED91FC910190F081E02D642F07
:10519000099508950E945A280895EF92FF920F935F
:1051A0001F937C010E94BE288C01C7010E941E280B
:1051B0009C01200F311FC9011F910F91FF90EF90AB
:1051C0000895EF92FF920F931F939A017B0100E0E5
:1051D00010E0B801A7010E94BE281F910F91FF9017
:1051E000EF900895CF92DF92EF92FF920F931F936B
:1051F0006C017B019A0100E010E0B801A7010E9458
:10520000BE288C01C6010E941E28080F191FC80164
:105210001F910F91FF90EF90DF90CF900895CF9264
:10522000DF92EF92FF920F931F936C01E62E9A018B
:10523000FF2400E010E0B801A7010E94BE288C0105
:10524000C6010E941E28080F191FC8011F910F9147
:10525000FF90EF90DF90CF900895CF92DF92EF9282
:10526000FF920F931F93CF93DF93EC016A017B01B1
:105270002115310541F4E881F9810190F081E02D9B
:10528000642F09951FC02A303105D1F477FF17C06C
:10529000E881F9810190F081E02D6DE209958C01A2
:1052A00044275527BA014C195D096E097F09CE01C3
:1052B0002AE00E945A289801280F391F04C02AE0CA
:1052C0000E945A289C01C901DF91CF911F910F9133
:1052D000FF90EF90DF90CF900895EF92FF920F93A1
:1052E0001F937C010E942D298C01C7010E941E285A
:1052F0009C01200F311FC9011F910F91FF90EF906A
:105300000895EF92FF920F931F937B019A0100275C
:10531000F7FC0095102FB801A7010E942D291F91BD
:105320000F91FF90EF900895CF92DF92EF92FF924E
:105330000F931F936C017B019A010027F7FC0095E6
:10534000102FB801A7010E942D298C01C6010E94CF
:105350001E28080F191FC8011F910F91FF90EF9091
:10536000DF90CF9008950E943E2808957F928F92FB
:105370009F92AF92BF92CF92DF92EF92FF920F93E4
:105380001F93CF93DF934C017A018B01722ECB01D7
:10539000BA01A80197010E94B631882321F0C40107
:1053A0006AEB73E021C0C0E0D0E057016801E894E7
:1053B000D7F8C601B5012FEF3FEF4FE75FE70E9437
:1053C000B631882351F4C601B5012FEF3FEF4FE707
:1053D0005FE70E94B22F181614F0C1E0D0E02197C9
:1053E00039F0C4016EEB73E00E943E28EC0193C0DB
:1053F000C801B7012FEF3FEF4FE75FE40E94013193
:10540000181654F0C801B7012FEF3FEF4FE75FECDC
:105410000E94B22F882324F4C40162EC73E0E4CF2D
:10542000C801B70120E030E040E050E00E94B22F18
:1054300087FD03C0C0E0D0E00EC0D401ED91FC9127
:105440000190F081E02DC4016DE20995EC0117FB9C
:10545000109517F9109520E030E040E05FE3DD247F
:105460000BC0CA01B90120E030E040E251E40E94E3
:10547000B62F9B01AC01D394D71498F3C801B701A0
:105480000E944E2F5B016C010E9423307B018C0136
:10549000C401B801A7012AE030E00E94BE28C80F6D
:1054A000D91F772039F0C40166EC73E00E943E28D2
:1054B000C80FD91FC801B7010E944F309B01AC0132
:1054C000C601B5010E944D2F24C020E030E040E22B
:1054D00051E40E9405317B018C010E941E305B016A
:1054E0006C01CC24B7FCC094DC2CC401B601A5012E
:1054F0002AE030E00E942D29C80FD91FC601B5014E
:105500000E9451309B01AC01C801B7010E944D2F90
:105510007A947720D1F6CE01DF91CF911F910F9130
:10552000FF90EF90DF90CF90BF90AF909F908F90C3
:105530007F9008950E94B6290895EF92FF920F93ED
:105540001F937C010E94B6298C01C7010E941E286E
:10555000080F191FC8011F910F91FF90EF90089538
:10556000EF92FF920F931F937C010E943E288C01C3
:10557000C7010E941E28080F191FC8011F910F9113
:10558000FF90EF900895282F809125078823C1F080
:1055900057FF1AC015C02898909324078091F100F6
:1055A0008193E217F307B9F74115510539F080915E
:1055B000F200882319F48BE68093E800AFBF02C0A5
:1055C0004FEF5FEFCA010895AFB7F89427702093AB
:1055D000E9008091F200282F30E0241735070CF401
:1055E000A901FB019B01240F311D94E6DACFDF9363
:1055F000CF930F92CDB7DEB7BE016F5F7F4F41E013
:1056000050E00E94C32A019719F02FEF3FEF03C02B
:105610008981282F30E0C9010F90CF91DF91089543
:10562000FF920F931F93F82E142F052F40912807F8
:1056300050912907212F302FC901DC01FB016EEFAA
:1056400029C0F7FE02C0949101C0908120912607E5
:105650003091270724173507ACF48091E800857056
:10566000E1F38091E80082FF03C02FEF3FEF17C006
:105670009093F100C90101968F739070892B11F4FA
:105680006093E8002F5F3F4F309327072093260752
:10569000119731961097A9F6812F902F9C01C9017F
:1056A0001F910F91FF9008959C018091E80082FF67
:1056B000FCCFF901260F311D03C08091F1008193C9
:1056C000E217F307D1F7289884E6809324078BEF3D
:1056D0008093E800CB0108958093E9008091F20067
:1056E000882319F08AE38093E800089508951092C2
:1056F000250781E08093D70080EA8093D80082E17B
:1057000089BD09B400FEFDCF61E070E080E090E06B
:105710000E94752480E98093D8008CE08093E20099
:105720001092E000559A209A08955F926F927F92AE
:105730008F929F92AF92BF92CF92DF92EF92FF92A1
:105740000F931F93CF93DF93E82E842E752E8091B5
:105750002507882371F18B01242F352FC901EC0116
:105760007AEFF72E67E0962E9E2050E4552E8E2D70
:1057700090E040E2A42EB12CA822B9223AE3632E95
:1057800020E4C22ED12CC822D92258C09FB7F89449
:105790009092E9008091E80085FD02C020E004C0FD
:1057A0008091F200252D281B9FBF222361F4FA94DB
:1057B00019F42FEF3FEF4DC061E070E080E090E022
:1057C0000E9475243BC0822F90E0C817D9070CF4C3
:1057D0002C2FC21BD1094FB7F8949092E900A11465
:1057E000B10421F406C01092F10021502223D9F710
:1057F00019C0E7FC03C0F801922F10C0C801322F76
:1058000006C0FC010196E491E093F100315033238E
:10581000C1F706C081918093F10091509923D1F78F
:10582000020F111D8091E80085FF05C0209729F423
:10583000C114D10411F06092E8004FBF209709F025
:10584000A5CF5D9884E680932307282D372DC901C5
:105850009C01C901DF91CF911F910F91FF90EF90B3
:10586000DF90CF90BF90AF909F908F907F906F9080
:105870005F9008951F920F920FB60F9211242F93ED
:105880003F934F935F936F937F938F939F93AF93C8
:10589000BF93EF93FF938091E1001092E100982F66
:1058A00083FF0FC01092E90081E08093EB0010921B
:1058B000EC0082E38093ED001092250788E080934E
:1058C000F00092FF34C083E08093E9008091F20001
:1058D000882319F08AE38093E8008FB7F89492E068
:1058E0009093E9009091F2008FBF992321F085E118
:1058F00097E00E94642780912307882351F08091CC
:10590000230781508093230780912307882309F47C
:105910005D9A80912407882351F08091240781505B
:105920008093240780912407882309F4289AFF9103
:10593000EF91BF91AF919F918F917F916F915F9107
:105940004F913F912F910F900FBE0F901F90189580
:105950000F931F93DF93CF930F92CDB7DEB71982CA
:105960008E010F5F1F4FC8010E948A27C8010E9445
:10597000412F898190E00F90CF91DF911F910F917E
:1059800008951F920F920FB60F921124EF92FF927B
:105990001F932F933F934F935F936F937F938F93B7
:1059A0009F93AF93BF93EF93FF93DF93CF93CDB7C5
:1059B000DEB76197DEBFCDBF1092E9008091E800AD
:1059C00083FF0FC1FE0131969E01275F3F4F03C049
:1059D0008091F1008193E217F307D1F7289884E6CC
:1059E0008093240782EF8093E800998197FF05C098
:1059F0008091E80080FFFCCF03C08EEF8093E80029
:105A0000292F30E0C90180769070892B09F0C2C03F
:105A10008A81882329F41092F1001092F100D6C0F7
:105A2000813009F4D3C0833009F4D0C0853049F403
:105A30008091E80080FFFCCF8B8180688093E30039
:105A4000C5C0863009F07CC01C81EF80F88412301C
:105A5000C1F51092E90010922707109226071092C4
:105A60002907109228070E94A82C99E0FE01399678
:105A7000DF01292F1D922A95E9F799871A8791E06E
:105A80009E8790E8988B9AEF998B2091260730910A
:105A90002707275F3F4F3C872B878D871092E900B0
:105AA0001092270710922607F0922907E092280704
:105AB00080E0BF0149E050E00E94102B0E94A82C1A
:105AC00085C01092E9001092270710922607F092E5
:105AD0002907E0922807123241F482E290E00E9406
